:020000040800F2
:10000000B8040624AD020008E95A00085936000871
:10001000E15A0008F9080008116B00080000000010
:10002000000000000000000000000000495D000822
:10003000190F000800000000F15A0008515D000887
:10004000C7020008C7020008C7020008C70200086C
:10005000C7020008C7020008C7020008C70200085C
:10006000C7020008C7020008C7020008C70200084C
:10007000C7020008C7020008C7020008C70200083C
:10008000C7020008C7020008C7020008C70200082C
:10009000C7020008C7020008C7020008210F0008B5
:1000A000C7020008C7020008C7020008C70200080C
:1000B000C7020008C7020008C7020008C7020008FC
:1000C000C7020008C7020008C7020008C7020008EC
:1000D000C7020008C7020008C7020008C7020008DC
:1000E000C7020008C702000800000000C70200089D
:1000F000C7020008C7020008C7020008C7020008BC
:10010000C7020008C7020008C7020008C7020008AB
:10011000C7020008C7020008C7020008C70200089B
:10012000C7020008C7020008C7020008C70200088B
:10013000C7020008C7020008C7020008C70200087B
:1001400000000000000000000000000000000000AF
:10015000C7020008C7020008C7020008C70200085B
:10016000C7020008C7020008C7020008C70200084B
:10017000C7020008C7020008C7020008C70200083B
:10018000C7020008C7020008C7020008C70200082B
:10019000C7020008C7020008C7020008C70200081B
:1001A000C7020008C7020008C7020008C70200080B
:1001B000C7020008C7020008C7020008C7020008FB
:1001C000C7020008C7020008C7020008C7020008EB
:1001D000C7020008C7020008C7020008C7020008DB
:1001E000C7020008C7020008C7020008C7020008CB
:1001F000C7020008C7020008C7020008C7020008BB
:10020000C7020008C7020008C7020008C7020008AA
:10021000C7020008C7020008C7020008C70200089A
:10022000C7020008C7020008C7020008000000005B
:10023000C7020008C702000800000000C70200084B
:10024000C7020008C7020008C7020008C70200086A
:10025000C7020008C7020008C7020008C70200085A
:10026000C7020008C7020008C7020008C70200084A
:10027000C7020008C7020008C7020008000000000B
:10028000C7020008C7020008C702000800000000FB
:1002900000000000C7020008DFF80CD000F0A2FA4E
:1002A0000048004749940008B804062406488047DF
:1002B00006480047FEE7FEE7FEE7FEE7FEE7FEE74B
:1002C000FEE7FEE7FEE7FEE7B15E000899020008E0
:1002D0002DE9F05F0546002092469B46884606467B
:1002E000814640241BE0284641464746224600F00E
:1002F00057F853465A46C01A914110D31146184632
:10030000224600F03EF82D1A67EB01084F462246C0
:100310000120002100F035F817EB00094E41201EA6
:10032000A4F10104DFDC484631462A464346BDE8D5
:10033000F09FD2B201E000F8012B491EFBD27047BA
:100340000022F6E710B513460A4604461946FFF7A1
:10035000F0FF204610BD30B50B460146002020229C
:10036000012409E021FA02F59D4205D303FA02F5C2
:10037000491B04FA02F52844151EA2F10102F1DC22
:1003800030BD202A04DB203A00FA02F10020704739
:100390009140C2F1200320FA03F3194390407047C3
:1003A000202A04DB203A21FA02F00021704721FACA
:1003B00002F3D040C2F12002914008431946704731
:1003C0002DE9FE4F804681EA0300C00F0C460090E5
:1003D00021F0004123F00045B8EB0200A94105D20D
:1003E0004046214690461C460B46024623F00040FC
:1003F000104347D0270DC7F30A00C3F30A510290F8
:10040000401A019040286BDAC3F3130040F4801BBC
:100410000098924620B10023D2EB030A63EB0B0B4A
:1004200001985946C0F140025046FFF7AAFF064620
:100430000D4650465946019A00F0ECF910EB0800C1
:100440006141002487EA115284EAE7731A4340D0DD
:10045000009A62B3019A012A4FEA075215DC001B89
:1004600061EB02014FF0004202EA0752CDE900427F
:10047000001C41F5801132462B4600F0ECF903B028
:10048000BDE8F08F40462146F9E7001B61EB020111
:10049000001C41F5801300185B412018A2F50017DD
:1004A00047EB030140EAD570B6196D4111E06D08C4
:1004B0004FEA360645EAC0754FEA0752001B61EB6A
:1004C0000201001C41F5801149084FEA3000001973
:1004D000514132462B4603B0BDE8F04F00F0ACB9B5
:1004E0000098012240000023D0EB020263EBE0738E
:1004F000009821464FEAE074B8EB000061EB04017C
:10050000E9E783F000435BE781F0004158E72DE91C
:10051000FE4F81EA030404F0004421F000410094FE
:100520004FF0000B23F0004350EA01045ED052EA82
:1005300003045BD0C3F30A54C1F30A552C44A4F25C
:10054000F3340194A0FB0254C1F3130141F4801170
:10055000C3F3130343F4801301FB024400FB034E77
:10056000840A970A44EA815447EA8357A4FB076840
:1005700002958D0A05FB07854FEA932C04FB0C546A
:100580002705029D4FEA065847EA1637B5EB0805DE
:100590006EEB070C870E920E47EA811742EA831230
:1005A000A7FB0201B6EB0B0164EB00042B0D43EA41
:1005B0000C335E1844EB1C50DA465146E7FB02014F
:1005C000C5F313044FEA0B3343EA14534FEA0432E2
:1005D000019C43EA0603A4F10C040294009CCDE9BB
:1005E00000B400F038F903B0BDE8F08F00200146F8
:1005F000F9E72DE9F04D81EA030404F0004B21F006
:10060000004514464FF0000A23F0004150EA05026D
:1006100020D054EA01021DD0C5F30A570246C5F3A3
:100620001303C1F31300C1F30A5640F4801543F4D9
:100630008013A7EB0608101BD64608F2FD3873EBB3
:10064000050002D308F1010801E092185B41B8F1FE
:10065000000F03DA00200146BDE8F08D00204FF4C2
:100660008011064684460EE0171B73EB050705D381
:10067000121B63EB050306434CEA010C49084FEAE1
:10068000300092185B4150EA0107EDD152EA0300B5
:1006900012D082EA040083EA0501084305D0101B4A
:1006A000AB4106D20122002306E000224FF00043B6
:1006B00002E06FF0010253101AEB06004CEB0851F8
:1006C00010EB0A0041EB0B01BDE8F04D00F0B4B8AF
:1006D00070B521F0004303430CD0C1F30A55002448
:1006E000D5EB040564EB0403D617AD1AB34102DB66
:1006F0000020014670BD201841EB025170BD2DE96C
:10070000FE4FC3F30A5701F000450024C1F30A5617
:10071000C3F31303C1F3130143F4801312EB020A72
:10072000A64641F48011009543EB030CA7F1010BA1
:1007300016E0B0EB0A0061EB0C01071E71F1000737
:1007400007DA4FF00008D0EB080085F0004568EBB1
:100750000101171A73EB0107EBD3761E001849410C
:100760005E45F6DA50EA010209D0CDE900E5002243
:100770001346029600F06FF803B0BDE8F08F2046F4
:100780000099F9E7C1F30A52C1F3130140F2FF33B4
:1007900041F480119A4202DA00200146704740F28B
:1007A00033439A42A2F2334202DC5242FFF7F8BDD1
:1007B000FFF7E7BD30B5041E71F1000404DB4FF014
:1007C0000044404264EB0101141E73F1000405DB98
:1007D0001C464FF00043524263EB0403994208BFAA
:1007E000904230BD1CB5094800900948019005466B
:1007F000009C06E0E06840F0010394E80700984799
:100800001034AC42F6D3FFF74BFD0000380E010860
:10081000780E0108202A06DBCB17203A41FA02F0B5
:1008200043EAE07306E041FA02F3D040C2F120024D
:10083000914008431946704710B5141E73F1000427
:1008400008DA401C41F1000192185B411A4301D1C2
:1008500020F0010010BD2DE9F04D92469B4611B1EC
:10086000B1FA81F202E0B0FA80F220329046FFF74E
:1008700088FD04460F4640EA0A0041EA0B01534650
:100880005A46084313D0114653EA010019D0C8F163
:1008900040025046FFF784FD05460E465046594635
:1008A0004246FFF76EFD084305D0012004E02046D4
:1008B0003946BDE8F08D0020054346EAE0762C433A
:1008C00037430A986305E40AA0EB08000022FD0AFA
:1008D00044EA47540A3002D500200146E9E7010501
:1008E00010196941DDE9084500196941BDE8F04D7D
:1008F000A2E7000000000000FEE70000000000008A
:10090000B0B586B044F2E04040F20044C5F60200C3
:10091000C5F6020401AD016841F002010160006802
:10092000294600F002000190019808200190012062
:10093000CDE9020003200490204600F085FD202030
:1009400001902046294600F07FFD2021012220460B
:1009500000F056FE08210122204600F051FE06B0AC
:10096000B0BD0000000000002DE9F04F83B040F260
:1009700000448246C5F60204206820F440602060EE
:10098000206820601E2008F027F808210022204659
:1009900000F036FE022008F01FF808210122204650
:1009A00000F02EFE2021204600F022FE002818BF75
:1009B00001200290022008F00FF8082100222046B2
:1009C00000F01EFE022008F007F808210122204650
:1009D00000F016FE2021204600F00AFE01900220C1
:1009E00007F0FAFF08210022204600F009FE02204D
:1009F00007F0F2FF08210122204600F001FE20212D
:100A0000204600F0F5FD834600284FF0020018BF95
:100A10004FF0010B07F0E0FF08210022204600F014
:100A2000EFFD022007F0D8FF08210122204600F048
:100A3000E7FD2021204600F0DBFD0546022007F0FF
:100A4000CBFF08210022204600F0DAFD022007F04B
:100A5000C3FF08210122204600F0D2FD20212046BC
:100A600000F0C6FD074600284FF0020018BF01271E
:100A700007F0B2FF08210022204600F0C1FD02204D
:100A800007F0AAFF08210122204600F0B9FD20212D
:100A9000204600F0ADFD0646022007F09DFF08212C
:100AA0000022204600F0ACFD022007F095FF08214F
:100AB0000122204600F0A4FD2021204600F098FDF0
:100AC000804600284FF0020018BF4FF0010807F0E1
:100AD00083FF08210022204600F092FD022007F04B
:100AE0007BFF08210122204600F08AFD20212046BC
:100AF00000F07EFD8146022007F06EFFBAFA8AF010
:100B000008214FEA501A0022204600F079FD2068A3
:100B1000202120F4406020602068524640F480602C
:100B20002060204600F06CFD022007F055FF0821F0
:100B30000122204600F064FD022007F04DFF08214D
:100B40000022204600F05CFD0199002918BF012118
:100B50000298002D18BF012541EA4000002E4FEAFF
:100B6000800040EA4B0028444FEA800018BF01266D
:100B700040EA4700B9F1000F30444FEA800018BF47
:100B80004FF0010940EA48004844C0B203B0BDE854
:100B9000F08F000000000000B0B540F200440546B0
:100BA000C5F602040022216821F44061216020681A
:100BB000082140F480602060204600F021FDEA0911
:100BC0002021204600F01CFD022007F005FF08212F
:100BD0000122204600F014FD022007F0FDFE08214E
:100BE0000022204600F00CFD022007F0F5FEC5F3C0
:100BF00080122021204600F003FD022007F0ECFEC9
:100C000008210122204600F0FBFC022007F0E4FE50
:100C100008210022204600F0F3FC022007F0DCFE51
:100C2000C5F340122021204600F0EAFC022007F024
:100C3000D3FE08210122204600F0E2FC022007F04A
:100C4000CBFE08210022204600F0DAFC022007F04B
:100C5000C3FEC5F300122021204600F0D1FC022083
:100C600007F0BAFE08210122204600F0C9FC02204C
:100C700007F0B2FE08210022204600F0C1FC02204D
:100C800007F0AAFEC5F3C0022021204600F0B8FC00
:100C9000022007F0A1FE08210122204600F0B0FC4E
:100CA000022007F099FE08210022204600F0A8FC4F
:100CB000022007F091FEC5F380022021204600F0BB
:100CC0009FFC022007F088FE08210122204600F048
:100CD00097FC022007F080FE08210022204600F049
:100CE0008FFC022007F078FEC5F340022021204649
:100CF00000F086FC022007F06FFE0821012220464A
:100D000000F07EFC022007F067FE0821002220464A
:100D100000F076FC022007F05FFE05F001022021C2
:100D2000204600F06DFC022007F056FE082101224B
:100D3000204600F065FC022007F04EFE082100224C
:100D4000204600F05DFC0220BDE8B04007F044BE44
:100D500010B540F200442021C5F6020401222068AB
:100D600020F440602060206840F4806020602046CD
:100D700000F046FC08210122204600F041FC1E2024
:100D800007F02AFE20210022204600F039FC022034
:100D900007F022FE082100222046BDE8104000F0A6
:100DA0002FBC00000000000010B540F200440821F4
:100DB000C5F602040022206820F44060206020680C
:100DC00040F480602060204600F01AFC20210022C0
:100DD000204600F015FC1E2007F0FEFD0821012230
:100DE000204600F00DFC022007F0F6FD2021012234
:100DF0002046BDE8104000F003BC000000000000E9
:100E0000B0B540F200442021C5F60204012220685A
:100E100020F44060206020682060204600F0F0FB55
:100E200008210122204600F0EBFB022007F0D4FD50
:100E30002021204600F0DCFB60B10025FA2D11D204
:100E40000220013507F0C8FD2021204600F0D0FB2C
:100E50000028F3D1082100220025204600F0D0FB15
:100E60002846B0BD2068082120F44060206020683A
:100E7000002240F480602060204600F0C1FB202169
:100E80000022204600F0BCFB1E2007F0A5FD082133
:100E900001222046012500F0B3FB022007F09CFD53
:100EA00020210122204600F0ABFB2846B0BD000007
:100EB0002DE9F04107461020984614460D460BF0E8
:100EC000ABFA40F28C01B4F5816FC2F20001064624
:100ED0000A68C8BF40F2094401EB82030A2C58603B
:100EE00002F101000860D8BF0A243770A4F10A009B
:100EF000B06081B2384605F09BFF307829467560B6
:100F000006F046F988F30E013078F16006F070F9CA
:100F10003046BDE8F081000070470000000000008E
:100F20004FF4807000F084BAEFF3108072B600BF07
:100F3000FEE7000000000000B3F5804F03461BD120
:100F4000B0B5002053F822C0CCF6F0708D680CEAE2
:100F5000000C8C69D1E9000E40EA0C00C96840EA37
:100F60000E1040EA0520204340EA0141BDE8B040B0
:100F7000002043F8221070476FF07041002043F8C2
:100F80002210704700000000B0B50A6850F8223007
:100F900023F0010340F82230D1F808E0CB68D1E912
:100FA00000C2BEF1080F08BF42F04002D1E904457B
:100FB0001A438B692243CC692A430D6A1A434B6A50
:100FC00022438C6A2A43CD6A1A430B6B22434C6B33
:100FD0002A438D6B1A4350F82C30224340F2804450
:100FE000CFF6C0742A4323401A4342EA0E0240F867
:100FF0002C200A6BB2F5801F05D10A684AB102683D
:1010000042F4801202600A681AB1496B0268114307
:1010100001600020B0BD0000F0B500EB820340F29B
:10102000000CCFF6F07C5A688E6802F0404E0D69D5
:10103000D1E9002742EA0E02CC6842EA07124F6962
:1010400042EA06228E690CEB0555FE3742EA04425D
:101050002A43324342EA07625A600268D20209D543
:101060004268096943681A430CEB015122F470028B
:10107000114341600020F0BDF0B587B044F2E0407C
:1010800040F60044C5F60200C5F6020401AD002694
:101090000168012741F001010160016801F00101CF
:1010A00001910199016841F0080101600068294639
:1010B00000F00800019001984FF480700190032027
:1010C0000490A4F540600296039700F0BDF9082053
:1010D0002946CDE90107204600F0B6F9FFF710FCDC
:1010E00008210022204600F08BFA142007F03CFC77
:1010F00008210122204600F083FA322007F034FC58
:10110000FFF726FE7020FFF747FDFFF779FE00206E
:10111000FFF742FDFFF774FE0020FFF73DFDFFF7EC
:101120006FFEFFF741FEFFF713FE7020FFF734FD5F
:10113000FFF766FEA420FFF72FFDFFF761FE0020FA
:10114000FFF72AFDFFF75CFEFFF72EFEFFF700FE1C
:101150007020FFF721FDFFF753FE8020FFF71CFDF5
:10116000FFF74EFE5020FFF717FDFFF749FEFFF790
:101170001BFE0C208DF81A00FFF7EAFD7020FFF728
:101180000BFDFFF73DFE8820FFF706FDFFF738FE59
:101190000C20FFF701FDFFF733FEFFF705FE0DF111
:1011A0001A01A120022200F017F89DF81A009DF8FC
:1011B0001B1080F0300081F003020339104311F15D
:1011C000020F38BF0126B0FA80F0400926EA00007D
:1011D00007B0F0BD0000000070B514460D4606468D
:1011E000FFF7B6FD7020FFF7D7FCFFF709FEF0B25E
:1011F000FFF7D2FCFFF704FEFFF7AAFD7120FFF70F
:10120000CBFCFFF7FDFD5CB1013D6442B4F1FF3062
:1012100018BF0120FFF7A8FB013405F8010FF5D333
:10122000BDE87040FFF7C0BD2DE9F04F83B08DF8E9
:101230000B000DF10B0102200122FFF7CDFF9DF8FD
:101240000B2040F210064FF0000BC2F2004602F0F5
:101250000F00411E042900F2B080FF214CF2C46946
:1012600040F29C4801FA00F04FF6C171C0F6000947
:101270000DF1070AC2F200480025009261EA000061
:10128000308703E00135052D00F09080308FE84075
:10129000C007F7D039F8150004225146FFF79CFF2C
:1012A00098F8080001283FD003281FD004285DD1FA
:1012B0009DF80700B8F802309DF8081006EB4507C6
:1012C00000F00F029DF8094041EA02219DF80A2032
:1012D00004F00F04C9431944B98342EA0421398157
:1012E00000F0F0008028CDD059E000BF9DF8070045
:1012F0009DF809209DF8081000F00F039DF80A7072
:1013000002F00F0241EA032106EB450347EA0222FD
:10131000B8F800709983D1433944198100F0F00086
:101320008028AFD03BE000BF9DF80700B8F8003040
:101330009DF8081000F00F029DF809709DF80A4012
:1013400041EA022107F00F02C943B8F802701944BC
:1013500006EB450344EA02221981D14339449983BB
:1013600000F0F00080288DD019E000BF9DF8070044
:1013700006EB45079DF809209DF8081000F00F03C3
:101380009DF80A4002F00F0241EA0321398144EA44
:101390000221B98300F0F00080283FF473AF06EB20
:1013A0004500A0F81CB0A0F808B06BE73089B18BFD
:1013B0004FF0010B009A084306D0D00604D05846DF
:1013C00003B0BDE8F08F00BF308F01064FF67F718C
:1013D00058BF602108403087584603B0BDE8F08F01
:1013E000B0B5044600F01CF940F208010546C2F20F
:1013F0000001621C097818BF0C4400BF00F010F90E
:10140000401BA042FAD3B0BDB0F5807F18BF704733
:1014100088204FF48071C5F60000016040F204009E
:10142000C2F200408021A0F8441070470000000084
:101430008821C5F600010A68024208BF70470860AB
:10144000FFF7E2BF000000002DE9F04F83B00F6806
:10145000002F00F0C98000F1264642F2004506F157
:10146000FF76C5F602050A22A8424FEAB62540F2E9
:10147000040C08BF092200F120030093092DC5F6D2
:10148000000C38BF4FEAB622002400264FF00008B7
:1014900001920AE008F101080F6837FA08F206F134
:1014A000020604F1040400F09F80012202FA08FE03
:1014B00017EA0E09EED0D1F804B003220BF00307AF
:1014C000B2407D1E6FEA020A012D11D88268CD68F4
:1014D00002EA0A02B5402A438260CBF30015426853
:1014E00022EA0E0205FA08F52A43426004E000BF32
:1014F000032F01D103271FE0C2688D6802EA0A02A8
:10150000B540022F42EA0502C26015D16FF0030216
:1015100004F01C0502EA580B009A0F2352F80BE066
:10152000AB400F692EEA0303AF403B4342F80B3058
:10153000D1F804B00BF00307026807FA06F302EAD9
:101540000A021BF4403F42EA03020260A2D044F2C6
:10155000F44340F2084EC5F60203C5F6000E0F250F
:101560001A6842F002021A601A6802F0020202923D
:1015700028F00302029B04F00C0352F80E709D4009
:10158000AF43019D05FA03F33B4342F80E304FF0A1
:10159000B04EDEF800204B6842EA0907DD0258BF72
:1015A00022EA09079D02CEF80070DCF8002042EA2A
:1015B000090758BF22EA09079D03CCF80070DCF840
:1015C000802042EA090758BF22EA0907DB03CCF86A
:1015D0008070DCF87C2042EA090758BF22EA09073C
:1015E000CCF87C7056E700BF03B0BDE8F08F000078
:1015F0000069084018BF012070470000000000008B
:10160000002A08BF09048161704700000000000043
:1016100041F20000C5F600400068000C7047000071
:1016200040F2B040C2F20040006870470000000085
:1016300090F84120202A03D190F84020012A01D1BE
:1016400002207047242280F841200268136823F0AA
:1016500001031360136823F4805313601368194364
:101660001160116841F001011160202180F84110E2
:10167000002180F8401000207047000000000000AA
:1016800090F84120202A03D190F84020012A01D16E
:1016900002207047242280F841200268136823F05A
:1016A00001031360136823F4706343EA012111609E
:1016B000116841F001011160202180F841100021E2
:1016C00080F840100020704710B310B590F841101A
:1016D00031B9002180F84010044600F04DF8204652
:1016E000242180F8411090E81210C3680A68012B89
:1016F00022F001020A6024F070620A618A6822F412
:1017000000428A6006D14CF400428A600CE000BFBF
:1017100001207047022B4CF404428A6004D14A68CD
:1017200042F4006203E000BF4A6822F400624A60AB
:1017300000F1100C4A6842F0007242F400424A6024
:10174000CA6822F40042CA609CE81C101A4342EAAC
:101750000422CA60026A42EA0C020A600A6842F085
:1017600001020A6000214164202280F841200163C7
:1017700080F84210002010BDB0B5B8B0044602A8F1
:101780000830B82100253395CDE93655CDE93455DB
:10179000FEF7D6FD45F200412068C4F20001884200
:1017A00002D038B0B0BD00BF0820029002A8039557
:1017B00000F0BAFA08B1FFF7B7FB44F2E04433A9EE
:1017C000C5F60204206840F002002060206800F0A6
:1017D000020001900198C020339012203490002024
:1017E000CDE935000420379040F20040C5F60200F4
:1017F000FFF72AFEA06840F40010A060A06800F483
:1018000000100190019838B0B0BD00000000000049
:1018100040F2080040F2B041C2F20000C2F20041C2
:1018200000780A681044086070470000000000005B
:1018300080B5032000F0FCF801F0B2F944F2184141
:101840004CF2B463C5F60201C0F600030A68C2F3A5
:1018500003229A5C096801F00F0102F01F02595C33
:10186000D04040F21402C2F2000201F01F0120FA3F
:1018700001F1116040F21001C2F2000108600F2076
:1018800000F00AF800281CBF012080BD00F07CF8A1
:10189000002080BD00000000B0B540F20805C2F293
:1018A00000052978F1B1044640F21000C2F20000B0
:1018B0004FF47A72B2FBF1F10068B0FBF1F001F085
:1018C00063FD0F2C01464FF001000AD8002918BF14
:1018D000B0BD4FF0FF300022214600F079F8002023
:1018E0006C60B0BD0120B0BD10B54EF6A05E43786F
:1018F000CEF2000E90F800C04EF8083CDEF8003042
:1019000023F00103CEF8003043684EF8043C037B1B
:10191000C27A817A447B120642EA0372837B42EAEE
:10192000C141C27B41EA8441447A41EA4341007AA1
:1019300041EA024141EA042141EA400040EA0C0048
:10194000CEF8000010BD00004EF62450CEF200008C
:10195000BFF35F8F016821F48031016000210167CE
:1019600070470000000000004EF6245140F00100D6
:10197000CEF200010867086840F480300860BFF3C9
:101980004F8FBFF36F8F704781B044F2F440C5F6BC
:101990000200016841F002010160006800F00200ED
:1019A0000090009801B07047002848BF704700F0D1
:1019B0001F01012202FA01F14EF20012C0F34A1097
:1019C000CEF2000242F82010704700000000000034
:1019D00070B54EF60C5C4FF0FF36CEF2000C00F105
:1019E000604505F56445DCF80030C3F3022E8EF047
:1019F0000703042B28BF0423BEF1030406FA03F3F4
:101A000021EA030100F00F0338BF0024043B002843
:101A1000634406FA04F048BF03F10C05A14022EA32
:101A2000000008430001287070BD000000000000A5
:101A30004EF60C514FF6FF03CEF200010A681A4031
:101A400060F30A2242F0806040F0FD700860704749
:101A5000B0B544F60C05C5F60205296849072968A2
:101A600006D401F00701081A18BF0120B0BD00BF5D
:101A700021F0070108432860FFF7D2FD044600BFAC
:101A800055F8080C800407D4FFF7CAFD001BB0F519
:101A90007A7FF5D90120B0BD0020B0BD0000000064
:101AA00080B500F0F5FF44F220414CF2B462C5F677
:101AB0000201C0F600020968C1F30211515C01F095
:101AC0001F01C84080BD000080B544F2384EC5F605
:101AD000020E5EF8103C5EF8101C5EF80C2CC1F390
:101AE000053CDEF80410BCF1000F15D0C908D20681
:101AF00001EAE2716FF35F3100EE101A03F00301A7
:101B00000229B8EE400A0DD081B95EF8381C89066A
:101B100010D49FED361A1BE000218160C0E900114E
:101B200080BD00BF9FED301A12E000BF9FED2D1A5F
:101B30000EE000BF5EF8381C49F20002C0F2D0325D
:101B4000C1F3C10122FA01F101EE101AB8EE411AF7
:101B5000DEF800109FED263A6FF35F2102EE101AB7
:101B6000DEF80010C1F34621B8EE422A00EE032A47
:101B700000EE10CAB7EE003AB8EE400A81EE000A55
:101B800032EE031A02EE101AB8EE422A20EE010AD3
:101B900032EE031A80EE011ABCEEC11A80ED001A73
:101BA000DEF80010C1F3064101EE101AB8EE411A3A
:101BB00031EE031A80EE011ABCEEC11A80ED011A53
:101BC000DEF80010C1F3066101EE101AB8EE411AFA
:101BD00031EE031A80EE010ABCEEC00A10EE101AB4
:101BE000816080BD0024744A20BCBE4B0024744C2C
:101BF000000000390000000080B544F2404EC5F6F8
:101C0000020E5EF8183C5EF8181C5EF8142CC1F346
:101C1000055CDEF80410BCF1000F15D0C908D20530
:101C200001EAE2716FF35F3100EE101A03F0030175
:101C30000229B8EE400A0DD081B95EF8401C890631
:101C400010D49FED361A1BE000218160C0E900111D
:101C500080BD00BF9FED301A12E000BF9FED2D1A2E
:101C60000EE000BF5EF8401C49F20002C0F2D03224
:101C7000C1F3C10122FA01F101EE101AB8EE411AC6
:101C8000DEF800109FED263A6FF35F2102EE101A86
:101C9000DEF80010C1F34621B8EE422A00EE032A16
:101CA00000EE10CAB7EE003AB8EE400A81EE000A24
:101CB00032EE031A02EE101AB8EE422A20EE010AA2
:101CC00032EE031A80EE011ABCEEC11A80ED001A42
:101CD000DEF80010C1F3064101EE101AB8EE411A09
:101CE00031EE031A80EE011ABCEEC11A80ED011A22
:101CF000DEF80010C1F3066101EE101AB8EE411AC9
:101D000031EE031A80EE010ABCEEC00A10EE101A82
:101D1000816080BD0024744A20BCBE4B0024744CFA
:101D200000000039000000002DE9F0470446C078AB
:101D300044F22C480007C5F6020828D5A06E4FEAE9
:101D4000305103292AD8DFE801F0030B131B00BF31
:101D5000D8F8001041F40031C8F8001010E000BFBE
:101D600004F10800022103F0C7FE064680B906E030
:101D700004F12800022103F053FF064640B9A06E8B
:101D8000D8F8241021F440110843C8F82400002694
:101D90006078C00706D135462FE000BF0126607885
:101DA000C007F8D0A06D042858D83546DFE800F009
:101DB00004140E0B0B0000BFD8F80000354640F4A9
:101DC0000030C8F800002F46C5B90DE004F1280026
:101DD000002103F025FF04E004F10800002103F0D6
:101DE0008BFE05462F464DB9D8F82400A16D20F092
:101DF000070000250843C8F82400374660788007AC
:101E000031D5E06D4FEAB01004285FD8DFE800F06C
:101E100004140E0A0A0000BFD8F8000040F4003095
:101E2000C8F800002E46FDB90EE000BF04F12800FE
:101E3000002103F0F5FE04E004F10800002103F0A6
:101E40005BFE05462E467DB9D8F82400E16D20F4EE
:101E5000E07000250843C8F8240004E001250127AC
:101E600060788007CDD43E466078400733D5D4F8FB
:101E7000A8004FEA7050042860D8DFE800F0031390
:101E80000D090900D8F8000040F40030C8F800003F
:101E9000A9460DBB0EE000BF04F12800002103F0AD
:101EA000BFFE04E004F10800002103F025FE054612
:101EB000A9468DB9D8F82C00D4F8A81020F46000F9
:101EC00000250843C8F82C0005E000BF01250126C5
:101ED00060784007CBD4B1466078000734D5D4F899
:101EE000AC004FEA306004285ED8DFE800F003134E
:101EF0000D090900D8F8000040F40030C8F80000CF
:101F00002F4615BB0EE000BF04F12800002103F0AE
:101F100087FE04E004F10800002103F0EDFD054612
:101F20002F4695B9D8F82C00D4F8AC1020F0E0601A
:101F300000250843C8F82C0006E000BF01254FF03B
:101F4000010960780007CAD44F46E078800730D591
:101F5000E06C4FEA3010032820D8DFE800F00903D6
:101F6000150900BFD8F8000040F40030C8F80000A0
:101F70002E46ADB9D8F82000E16C20F030000025E5
:101F80000843C8F8200014E004F10800022103F01F
:101F9000B3FD05462E461DB9ECE700BF012501261D
:101FA0006078C00609D434E001250127E078800775
:101FB000CED43E466078C0062BD5206E4FEA303036
:101FC000042839D8DFE800F004140E0A0A0000BF24
:101FD000D8F8000040F40030C8F800002F46CDB912
:101FE0000EE000BF04F12800002103F019FE04E018
:101FF00004F10800002103F07FFD05462F464DB98E
:10200000D8F82400216E20F4E04000250843C8F8E9
:10201000240037466078800635D5606E4FEA304040
:10202000052815D8DFE800F0041A0E04040400BFE8
:102030002E46DDB91EE000BF01250127607880062D
:10204000EBD420E004F12800012103F0E9FD0AE0CF
:10205000012501266078400619D449E004F1080002
:10206000012103F049FD05462E461DB1607840066A
:102070000DD43DE0D8F82400616E20F4E020002566
:102080000843C8F824003E466078400630D5D4F8AE
:10209000B0004FEA307005280ED8DFE800F00313D7
:1020A000070303032F46ADB918E000BF04F1280071
:1020B000012103F0B5FD0AE0012501276078000643
:1020C0001AD43CE004F10800012103F015FD054697
:1020D0002F461DB1607800060ED430E0D8F82C00F1
:1020E000D4F8B01020F0E04000250843C8F82C00D8
:1020F00037466078000622D5206F58B1B0F1005FF6
:102100000CD0B0F1805F37D1D8F8000040F4003037
:10211000C8F800002E469DB908E000BF04F1080091
:10212000012103F0E9FC05462E464DB9D8F82400FC
:10213000216F20F0405000250843C8F824003E4697
:10214000E078C0071DD0A06C032855D8DFE800F068
:1021500008024A08D8F8000040F40030C8F800002F
:10216000A9467DB9D8F82000A16C20F00300002515
:102170000843C8F8200004E001250126E078C007E4
:10218000E1D1B146A078400602D44F4618E000BF26
:10219000D8F8D40340F48070C8F8D403FFF740FAAD
:1021A000064600BFD8F8D403C00507D4FFF738FAB5
:1021B000801B6428F6D90325032701E02F46FDB1D3
:1021C0002078C00700F06F80E06F4FEAF00005282C
:1021D0004ED8DFE800F0035347030303002D2E46DB
:1021E00054D157E004F10800022103F085FC0546B4
:1021F000002DA946C6D1B5E701254FF00109C1E779
:10220000D8F84410D4F8B400414011F4407F11D004
:10221000D8F84410D8F8442042F48032C8F844205A
:10222000D8F8442021F4407122F48032C8F84420C8
:10223000C8F84410B0F5807F40F0E082FFF7F0F975
:10224000064641F2883A0325032700BFD8F8440028
:10225000800700F1D182FFF7E3F9801B5045F5D9E3
:10226000AEE700BF04F12800012103F0D9FC0AE029
:10227000012501262078800719D446E004F10800E2
:10228000012103F039FC05462E461DB12078800758
:102290000DD43AE0D8F82800E16F20F0380000258E
:1022A0000843C8F828003E46207880072DD5A06F47
:1022B00005280FD8DFE800F004140804040400BF68
:1022C0002F46ADB918E000BF04F12800012103F04A
:1022D000A7FC0AE0012501272078400719D447E030
:1022E00004F10800012103F007FC05462F461DB14B
:1022F000207840070DD43BE0D8F82800A16F20F0EB
:10230000070000250843C8F8280037462078400712
:102310002ED5D4F8940005280ED8DFE800F003137A
:10232000070303032E46ADB918E000BF04F12800EF
:10233000012103F075FC0AE00125012620788006C2
:102340001AD44BE004F10800012103F0D5FB054647
:102350002E461DB1207880060ED43FE0D8F82C0020
:10236000D4F8941020F0070000250843C8F82C008A
:102370003E462078800631D5D4F890004FEA307080
:1023800005280FD8DFE800F004140804040400BF97
:102390002F46ADB918E000BF04F12800022103F078
:1023A0003FFC0AE001250127207840061AD44BE0C3
:1023B00004F10800002103F09FFB05462F461DB1E4
:1023C000207840060ED43FE0D8F82800D4F89010CA
:1023D00020F0E04000250843C8F828003746207860
:1023E000400631D5D4F89C004FEAB02005280FD81C
:1023F000DFE800F004140804040400BF2E46ADB961
:1024000018E000BF04F12800022103F009FC0AE0F3
:1024100001250126207800061AD44EE004F10800B8
:10242000002103F069FB05462E461DB12078000609
:102430000ED442E0D8F82C00D4F89C1020F4E050E0
:1024400000250843C8F82C003E462078000634D505
:10245000D4F8A0004FEA7030052815D8DFE800F066
:10246000041A0E04040400BF2F46E5B120680107DA
:1024700027D4C1063ED4000355D477E004F12800E8
:10248000022103F0CDFB0AE00125012720680107A6
:10249000EFD516E004F10800002103F02DFB0546FE
:1024A000002D2F46E2D1D8F82C00D4F8A01020F44B
:1024B000604000250843C8F82C0037462068010713
:1024C000D7D5D4F88400B0F5805F09D104F1280095
:1024D000022103F0A5FB002818BF0127D4F88400CF
:1024E000D8F8281021F440510843C8F82800206883
:1024F000C106C0D5D4F89800B0F5807F09D104F1A9
:102500002800022103F08CFB002818BF0127D4F813
:102510009800D8F82C1021F440710843C8F82C001A
:102520002068000322D5D4F8A400B0F5003F11D0F4
:10253000B0F5803F08D0002844D104F10800002104
:1025400003F0DAFA05E000BF04F12800022103F0ED
:1025500067FB05462E4655B9D8F82C00D4F8A410D0
:1025600020F4403000250843C8F82C003E46A078EF
:1025700040072CD5D4F88800B0F5401F0BD0B0F53B
:10258000001F0BD0B0F5801F2AD1D8F8000040F40E
:102590000030C8F800002F46D5B907E004F1280044
:1025A000012103F03DFB05462F468DB9D8F82800E0
:1025B000D4F8881020F4401000250843C8F82800FB
:1025C00005E000BF01250126A0784007D2D4374698
:1025D000A078C00709D13E462168880015D532E0B1
:1025E00001250127A078C007F5D0206DB0F5803F08
:1025F00010D018BBD8F8000040F40030C8F8000034
:102600002E4685B1216888001DD460688A0326D4CF
:1026100069E000BF04F10800022103F06DFA0546ED
:10262000002D2E46EED1D8F82000216D20F4803008
:1026300000250843C8F82000CDE700BF012501268A
:1026400021688800E1D504F12800022103F0E8FAAE
:10265000002818BF0126D4E900108A0343D5D4F816
:1026600080206FF0010303EB3223022B0BD34FEAE0
:10267000322343B1012B40F0B980D8F8003043F445
:102680000033C8F800303DB3CA022FD4CA0037D493
:102690008A0240D44A0048D4CA0F55D109025DD4F9
:1026A000C10766D181076FD4410779D4010700F1D2
:1026B0008380C10600F18C80800607D504F12800D4
:1026C000022103F0ADFA002818BF0125002D18BF24
:1026D00001252846BDE8F087D8F8283023F4407358
:1026E0001A43C8F828203546CA02CFD5D8F8242086
:1026F000636F22F000421A43C8F82420CA00C7D5ED
:1027000058F81C2CD4F8B83022F480421A4348F808
:102710001C2C8A02BED5D8F82420E36E22F08072E9
:102720001A43C8F824204A00B6D558F81C2C22F4C5
:10273000004248F81C2CD4F8BC2058F81C3C1A4322
:1027400048F81C2CCA0FA9D0D8F82020636D22F0BD
:1027500040521A43C8F820200902A1D5D8F8281001
:10276000D4F88C2021F440011143C8F82810C10787
:1027700098D004F10800002103F0BEF9002818BF2A
:102780000546606881078FD504F10800012103F038
:10279000B3F9002818BF0546606841077FF586AF8A
:1027A00004F10800022103F0A7F9002818BF05462C
:1027B000606801077FF57DAF04F12800002103F078
:1027C0002FFA002818BF05466068C1067FF574AF70
:1027D00004F12800012103F023FA002818BF054660
:1027E000606880063FF56AAF70E700BF0125CA0246
:1027F0007FF54CAF7AE700BFD4F8B4004FF6CF7343
:1028000058F81C2CC0F2FF0300F4407122F47C52F3
:1028100003EA10136FF31F30B1F5407F08BF1A436E
:10282000002548F81C2CD8F844100843C8F8440088
:10283000FFF7ABBC000000002DE9F04381B0002899
:1028400000F0208142F200090446C5F20029D9F8BF
:10285000000000F00F0088420DD2D9F8000020F0EF
:102860000F000843C9F80000D9F8000000F00F007D
:10287000884240F00781206844F218464207C5F6B6
:1028800002060AD52269336803F070039A4204D91C
:10289000336823F070031A43326002070AD5626975
:1028A000736803F070039A4204D9736823F07003CD
:1028B0001A437260C2060AD5A269736803F4E06322
:1028C0009A4204D9736823F4E0631A437260820663
:1028D0000AD5E269B36803F070039A4204D9B36879
:1028E00023F070031A43B26010F002020AD0E368CA
:1028F000376807F00F07BB4204D9376827F00F0786
:102900003B433360C3073FD0306820F47062D4E9A2
:1029100001031A433260012856F8182C0AD0032804
:1029200004D002280AD192030BD4ABE0920108D460
:10293000A8E000BFD20504D4A4E000BF520740F1D4
:10294000A180884656F8081C21F00701084346F884
:10295000080CFEF765FE054641F2883756F8080C6C
:10296000616800F03800B0EBC10F09D0FEF758FEE7
:10297000401BB842F2D9032001B0BDE8F08300BF8C
:102980002068414600F0020252B1E268336803F069
:102990000F039A4204D2336823F00F031A433260C4
:1029A000D9F8002002F00F028A420CD9D9F8002091
:1029B00022F00F020A43C9F80020D9F8002002F0E3
:1029C0000F028A425ED141070AD52169326802F0BE
:1029D0007002914204D2326822F0700211433160D9
:1029E00001070AD56169726802F07002914204D24F
:1029F000726822F0700211437160C1060AD5A169A4
:102A0000726802F4E062914204D2726822F4E062D9
:102A10001143716080060AD5E069B16801F0700168
:102A2000884204D2B16821F070010843B06000F020
:102A3000B7F831684CF2B462C0F60002C1F303216A
:102A4000515C336803F00F0301F01F01D25C20FAE0
:102A500001F102F01F0040F21402C2F2000221FA5A
:102A600000F0106040F20C0040F21002C2F20000D0
:102A7000C2F200020068116001B0BDE8F043FEF749
:102A80000BBF00BF012001B0BDE8F08300000000D3
:102A900080B500F085F844F218414CF2B463C5F6F5
:102AA0000201C0F600030A68C2F303229A5C0968B7
:102AB00001F00F0102F01F02595C20FA02F201F04E
:102AC0001F0040F21401C2F2000122FA00F0086077
:102AD00040F21001C2F200010A6080BD0000000057
:102AE00080B500F05DF844F2184C4CF2B463C5F6C2
:102AF000020CC0F60003DCF80020C2F303229A5C4B
:102B0000DCF8001001F00F0102F01F02595CD04008
:102B100040F21402C2F2000201F01F0120FA01F19A
:102B2000116040F21002C2F200021060DCF80400F2
:102B3000C0F30210185C00F01F0021FA00F080BD05
:102B400080B500F02DF844F2184C4CF2B463C5F691
:102B5000020CC0F60003DCF80020C2F303229A5CEA
:102B6000DCF8001001F00F0102F01F02595CD040A8
:102B700040F21402C2F2000201F01F0120FA01F13A
:102B8000116040F21002C2F200021060DCF8040092
:102B9000C0F30220185C00F01F0021FA00F080BD95
:102BA00044F20041C5F602010869C0F3C2000328DF
:102BB00016D002280ED098BB0868800649F20000A3
:102BC000C0F2D03058BF70470968C1F3C101C84096
:102BD000704700BF47F64000C0F27D10704700BF4D
:102BE0008A6A886AC0F3051CC86ABCF1000F4B6B87
:102BF0001CD000F00100404200EAD3006FF35F30C8
:102C000000EE100A02F003000228B8EE400A0FD0CE
:102C100090B90868800613D49FED251A1DE000BF07
:102C200040F60010C0F23D00704700BF0020704722
:102C30009FED1E1A11E000BF9FED1B1A0DE000BFB3
:102C4000086849F20002C0F2D032C0F3C10022FA93
:102C500000F001EE100AB8EE411A086B9FED153A2C
:102C60006FF35F2002EE100A086BC0F34620B8EE47
:102C7000422A013000EE032A00EE10CAB7EE003AF5
:102C8000B8EE400A81EE000A32EE031A20EE010A85
:102C900001EE100AB8EE411A80EE010ABCEEC00A3D
:102CA00010EE100A704700BF0024744A20BCBE4BCF
:102CB0000024744C0000003970B3F0B581B00446B4
:102CC000007844F20046C007C5F6020626D12078F7
:102CD000800740F1C280306910F03801B06A3FD0FF
:102CE000182908BF5FEA80703AD0E0683168002890
:102CF00062D021F0190108433060FEF791FC0546CF
:102D00003068400748D4FEF78BFC401B0228F7D9F7
:102D1000032001B0F0BD00BF01207047306900F012
:102D20003801B06A102905D018290BD100F0030032
:102D3000022807D130688003C9D560680028C6D151
:102D40003CE100BF6168306800294FD0B1F5A02F89
:102D500044D0B1F5803F5FD140F4803062E000BFE5
:102D600030684007E06802D5002800F0278131680C
:102D700021F0190108433060FEF752FC054600BF00
:102D80003068400708D4FEF74BFC401B02284FF088
:102D90000300F5D901B0F0BDFEF73AFC41F20301A2
:102DA00088424FD820697168402821F47C3151D184
:102DB00041F4003050E000BF21F001003060FEF728
:102DC0002FFC05463068400747D5FEF729FC401B1D
:102DD00002284FF00300F5D9DCE700BF40F4802063
:102DE0003060306840F480301CE000BF20F4803058
:102DF0003060306820F480203060FEF711FC05461A
:102E0000306880037FF563AFFEF70AFC401B64283F
:102E10004FF00300F4D9BDE720F480303060306813
:102E200020F480203060FEF7FBFB0546306880030D
:102E30003FF54DAFFEF7F4FB401B6428F6D90320A5
:102E400001B0F0BD7068216920F0FE4040EA0160E9
:102E500002E000BF41EA003070602078C00654D51F
:102E6000306900F03801B06A082905D0182919D155
:102E700000F00300012815D13068C00503D5E069D2
:102E8000802840F09B80FEF7C3FB41F2030188429B
:102E90001ED8206A7168202821F0F84132D141F013
:102EA000804031E0E0690028306819D040F08000AF
:102EB0003060FEF7B5FB05463068C005E3D4FEF789
:102EC000AFFB401B02284FF00300F5D962E700BFBB
:102ED000F068216A20F07C5040EA0160F06014E064
:102EE00020F080003060FEF79BFB05463068C0058F
:102EF0000BD5FEF795FB401B02284FF00300F5D9D8
:102F000048E700BF41EA80607060207800073FD446
:102F10002078800656D42078400769D4656A9DB32E
:102F2000306900F03800182840F0A880012DB16AFF
:102F3000306B43D001F00302A36A9A423ED1C1F341
:102F40000511E26A914239D10146226B6FF35F218C
:102F5000013A914232D1C0F34622616B01398A4273
:102F60002CD1C0F30642A16B01398A4226D1C0F3AD
:102F70000660E16B0139884220D1706BA16CC0F30F
:102F8000CC00814240F03481002001B0F0BD00BF90
:102F900060690028706F41D040F001007067FEF753
:102FA0003FFB0546706F8007B2D4FEF739FB401B2C
:102FB0000228F7D9032001B0F0BD00BF012001B005
:102FC000F0BD00BFA0690028306845D040F48050B3
:102FD0003060FEF725FB0546306880049BD4FEF781
:102FE0001FFB401B0228F7D9032001B0F0BD00BF32
:102FF000D6F8000440F48070C6F80004FEF710FB19
:10300000054600BFD6F80004C00519D4FEF708FB3A
:10301000401B6428F6D9032001B0F0BD20F0010068
:103020007067FEF7FDFA0546706F80077FF570AF99
:10303000FEF7F6FA401B02284FF00300F4D9A9E688
:10304000A168306F002943D0052939D0012957D113
:1030500040F001005AE000BF20F480503060FEF7DD
:10306000DFFA0546306880047FF555AFFEF7D8FAE1
:10307000401B02284FF00300F4D98BE6306820F0A3
:1030800080703060FEF7CCFA022D05460CD100BFEF
:10309000306880014CD5FEF7C3FA401B02284FF080
:1030A0000300F5D976E600BF306880017FF56CAF8C
:1030B000FEF7B6FA401B02284FF00300F4D969E688
:1030C00040F004003067306F40F001001EE000BFA8
:1030D00020F001003067306F20F004003067FEF709
:1030E0009FFA054641F28837306F80077FF516AFAB
:1030F000FEF796FA401BB8424FF00300F4D949E6B8
:1031000020F001003067306F20F004003067FEF7D8
:1031100087FA054641F28837306F80073FF5FEAEEB
:10312000FEF77EFA401BB8424FF00300F4D931E6B7
:1031300004F12807B06A40F2F33188438ECF084388
:10314000591E40EA02104FF47E426FF35F21B062D5
:1031500002EB47204FF4FE0280B2E36B0844A16B00
:1031600002EB01414FF0FE4201F4FE0102EB03626B
:10317000084402F0FE4108443063F06A4FF6F871EB
:1031800020F00100F062706BA26C884340EAC2003C
:103190007063F06A216C20F00C000843F062F06A62
:1031A000616C20F002000843F062F06A40F4803065
:1031B000F062F06A40F40030F062F06A40F480207F
:1031C000F062F06A40F00100F062306840F0807018
:1031D0003060FEF725FA0446306880013FF5D4AE32
:1031E000FEF71EFA001B02284FF00300F4D9D1E5C8
:1031F000F06A20F00100F062FEF712FA0546FEF7D1
:103200000FFAA842FBD0706B4FF6F871A26C88439E
:1032100040EAC2007063F06A40F00100F0620020F2
:1032200001B0F0BD0000000090B370B5044690F806
:10323000450015460E4628B9002084F84400204673
:1032400000F02AF8206804F10801FDF79DFE2068CF
:103250003146A268FDF7E0FED4E90102E36A29469F
:10326000FDF76AFEA068216851F8202042F00102B3
:1032700041F8202044F20000C5F20020016841F02E
:1032800000410160012084F84500002070BD00BFAE
:1032900001207047000000002DE9F043BBB040F270
:1032A000A0000025C2F200003A95399501783695C4
:1032B000CDE93755002956D106AC4FF0010880F80A
:1032C000008004F10800B821FDF73AF84FF0807053
:1032D000069020460795FEF727FD08B1FDF724FE6E
:1032E00044F2D44040F60044C5F60200C5F602049C
:1032F00036AD4FF002090168032741F480510160A7
:103300000068294600F48050019001984FF68070C3
:10331000369004F58060CDE9379839970C263A96B7
:10332000FEF792F84CF6B3702946CDE936092046EF
:103330003A96CDE93887FEF787F801AD4FF4005093
:10334000CDE90108204629460026CDE90367FEF7AE
:103350007BF84FF480502946CDE901082046CDE99D
:103360000367FEF771F83BB0BDE8F0830000000092
:103370004EF210010428CEF200010A6822F0040285
:1033800008BF04320A607047411E0020B0EB116F85
:1033900002D00120704700BF4EF21002F023CEF29F
:1033A000000251604EF62351CEF200010B7007214E
:1033B000906011607047000090F88410012901D1DD
:1033C000022070472421C0F8881001680A680B6841
:1033D00022F0005223F001030B60002343660A60D1
:1033E0002021C0F8881080F8843000207047000049
:1033F00090F88420012A01D10220704770B5242260
:10340000C0F888200268D0F864E0BEF1000FD2F85E
:1034100000C0136823F001031360936823F0606316
:1034200041EA0301916019D0916840F6266E9368D5
:10343000C0F6010E5B0F40F62E65C1F34266C0F682
:1034400001051EF80340E95C2301B3FBF1F11EF80E
:103450000630AE5D1B01B3FBF6F301E00121012351
:10346000A0F86A102021A0F86830C2F800C0C0F8A7
:103470008810002180F88410002070BD000000003A
:1034800090F88420012A01D10220704770B52422CF
:10349000C0F888200268D0F864E0BEF1000FD2F8CE
:1034A00000C0136823F001031360936823F06043A6
:1034B00041EA0301916019D0916840F6266E936845
:1034C000C0F6010E5B0F40F62E65C1F34266C0F6F2
:1034D00001051EF80340E95C2301B3FBF1F11EF87E
:1034E0000630AE5D1B01B3FBF6F301E001210123C1
:1034F000A0F86A102021A0F86830C2F800C0C0F817
:103500008810002180F88410002070BD00000000A9
:1035100010B5D8B10446D0F8880028B9002084F846
:103520008400204600F028F82420C4F88800206891
:10353000A16A0268002922F00101016002D0204640
:1035400002F0D2FD204602F0F7FE08B1012010BDC6
:103550002068416821F490414160816821F02A018E
:103560008160016841F0010101602046BDE8104022
:1035700002F02ABE00000000B0B5B8B0044602A8B0
:10358000C0210025CDE93655CDE934553395FCF7FA
:10359000D7FE44F200412068C4F20001884229D0DD
:1035A00041F20001C4F20101884251D10020039090
:1035B0000120029002A8FEF7B7FB08B1FDF7B4FCAA
:1035C00044F2E040C5F60200016941F010010161DA
:1035D000016901F0100101910199016841F00101B7
:1035E0000160006800F00100019001984FF4C06094
:1035F00020E000BF0220029002A80395FEF794FB92
:1036000008B1FDF791FC44F2E040C5F60200816884
:1036100041F400318160816801F400310191019928
:10362000016841F001010160006800F001000190B3
:1036300001980C203390022034900020CDE9350011
:1036400007203790002033A9C5F60200FDF7FCFEE5
:1036500038B0B0BD00000000FEE700000000000030
:103660002DE9F04F81B040F29C4B45F20846C2F282
:10367000004B99460C468246BBF80470B7420A9F3D
:1036800034D1A2EB0A08A9EB04061FFA88F2002540
:10369000B3B250462146C6F2020501F0F9FE06FB20
:1036A00008F1BBF80A0025F8020C99B1042901F0D1
:1036B000030007D321F0030104392F802F802F80CE
:1036C0002F80F9D130B101282F8003D002282F801C
:1036D00018BF2F80BBF800200020BBF8023000216B
:1036E00001B0BDE8F04F01F0D3BE00BF4C454AD851
:1036F000A2EB0A000026411CC6F202060A0433D0DF
:103700004FF6FC7201F0030B1FFA80F801EA020584
:1037100004E000BF0134A0B2484534D8A1B25046FD
:1037200001F0EAFD40F29C40B8F1030FC2F2004004
:10373000408926F8020C09D3002000BF04303780EE
:1037400081B23780A94237803780F7D1BBF1000FB3
:10375000E0D0BBF1010F3780DCD0BBF1020F378026
:1037600018BF3780D6E700BFA1B2504601F0C4FDB4
:1037700040F29C410134A0B2C2F20041484549895F
:1037800026F8021CF0D901B0BDE8F08F000000005F
:103790002DE9F04F87B0002540F600440A20C6F21C
:1037A0000205C5F602044FF00A08FDF719FE4FF4B2
:1037B0000061002220460027FDF722FF0A20FDF7C6
:1037C0000FFE4FF48051012220464FF0010AFDF711
:1037D00017FF0A20FDF704FE0420ADF81A00BDF81B
:1037E0001A004FF0050BADF81A00BDF81A0025F8C5
:1037F000020C052005F0F0F8288840F29C49ADF84D
:103800001A0048F25252BDF81A002888ADF81A0082
:10381000C2F20049BDF81A002888ADF81A00BDF8B8
:103820001A002988ADF81A10BDF81A1041EA0020D4
:10383000A9F8040081B2914240F078821124ADF8D9
:103840001A40BDF81A00ADF81A00BDF81A0025F8A4
:10385000020C7820FDF7C4FD4FF0360EADF81AE0EB
:10386000BDF81A004FF03A0CADF81A002026BDF84A
:103870001A0025F8020CADF81A70BDF81A00ADF860
:103880001A00BDF81A002880ADF81AC0BDF81A0059
:10389000ADF81A00BDF81A0025F8020CADF81AB000
:1038A000BDF81A00ADF81A00BDF81A002880B22041
:1038B000ADF81A00BDF81A00ADF81A00BDF81A00EC
:1038C00025F8020C0C20ADF81A00BDF81A10ADF85E
:1038D0001A10BDF81A102980ADF81A00BDF81A00A8
:1038E000ADF81A00BDF81A002880ADF81A700B2741
:1038F000BDF81A00ADF81A00BDF81A002880332070
:10390000ADF81A00BDF81A10ADF81A10BDF81A106B
:103910002980ADF81A00BDF81A00ADF81A00BDF8FC
:103920001A002880B720ADF81A00BDF81A00ADF8CB
:103930001A00BDF81A0025F8020C3520ADF81A005F
:10394000BDF81A00ADF81A00BDF81A002880BB2097
:10395000ADF81A00BDF81A00ADF81A00BDF81A004B
:1039600025F8020C2820ADF81A00BDF81A00ADF8B1
:103970001A00BDF81A002880C020ADF81A00BDF862
:103980001A00ADF81A00BDF81A0025F8020C2C2018
:10399000ADF81A00BDF81A10ADF81A10BDF81A10DB
:1039A0002980C221ADF81A10BDF81A10ADF81A100E
:1039B000BDF81A1025F8021CADF81AA0BDF81A10AF
:1039C000ADF81A10BDF81A102980C321ADF81A10ED
:1039D000BDF81A10ADF81A10BDF81A1025F8021C1F
:1039E000ADF81A70BDF81A10ADF81A10BDF81A101B
:1039F0002980C421ADF81A10BDF81A10ADF81A10BC
:103A0000BDF81A1025F8021CADF81A60BDF81A109E
:103A1000ADF81A10BDF81A102980C621ADF81A1099
:103A2000BDF81A10ADF81A10BDF81A1025F8021CCE
:103A30000F21ADF81A10BDF81A20ADF81A20BDF804
:103A40001A202A80D022ADF81A20BDF81A30ADF81D
:103A50001A30BDF81A3025F8023CA423ADF81A300C
:103A6000BDF81A30ADF81A30BDF81A302B80A123FA
:103A7000ADF81A30BDF81A30ADF81A30BDF81A306A
:103A80002B80E023ADF81A30BDF81A30ADF81A30AB
:103A9000BDF81A3025F8023CADF81A20BDF81A30EE
:103AA000ADF81A30BDF81A302B80ADF81AA0BDF869
:103AB0001A30ADF81A30BDF81A302B800823ADF853
:103AC0001A30BDF81A30ADF81A30BDF81A302B8014
:103AD000ADF81A10BDF81A10ADF81A10BDF81A108A
:103AE0002980ADF81A40BDF81A10ADF81A10BDF8CB
:103AF0001A1029802A21ADF81A10BDF81A30ADF835
:103B00001A30BDF81A302B80ADF81AE0BDF81A3023
:103B1000ADF81A30BDF81A302B805523ADF81A30A5
:103B2000BDF81A30ADF81A30BDF81A302B80442396
:103B3000ADF81A30BDF81A30ADF81A30BDF81A30A9
:103B40002B80ADF81AC0BDF81A30ADF81A30BDF8A8
:103B50001A302B80ADF81A70BDF81A30ADF81A3053
:103B6000BDF81A302B800623ADF81A30BDF81A3094
:103B7000ADF81A30BDF81A302B80ADF81A40BDF8F8
:103B80001A30ADF81A30BDF81A302B80ADF81A6033
:103B9000BDF81A30ADF81A30BDF81A302B80E12389
:103BA000ADF81A30BDF81A30ADF81A30BDF81A3039
:103BB00025F8023C45F20843ADF81A20BDF81A205A
:103BC000ADF81A20BDF81A202A800222ADF81A207A
:103BD000BDF81A20ADF81A20BDF81A202A80072255
:103BE000ADF81A20BDF81A20ADF81A20BDF81A2039
:103BF0002A80ADF81A80BDF81A20ADF81A20BDF859
:103C00001A202A80ADF81A702B27BDF81A20ADF8BB
:103C10001A20BDF81A202A801822ADF81A20BDF803
:103C20001A20ADF81A20BDF81A202A803422ADF8E7
:103C30001A20BDF81A20ADF81A20BDF81A202A80E3
:103C40004322ADF81A20BDF81A20ADF81A20BDF8AD
:103C50001A202A804A22ADF81A20BDF81A20ADF8A1
:103C60001A20BDF81A202A80ADF81A70BDF81A2063
:103C7000ADF81A20BDF81A202A801B22ADF81A20B0
:103C8000BDF81A20ADF81A20BDF81A202A801C228F
:103C9000ADF81A20BDF81A20ADF81A20BDF81A2088
:103CA0002A802222ADF81A20BDF81A20ADF81A2079
:103CB000BDF81A202A801F22ADF81A20BDF81A205C
:103CC000ADF81A20BDF81A202A802922ADF81A2052
:103CD000BDF81A20ADF81A20BDF81A2025F8022CDC
:103CE000ADF81A00BDF81A20ADF81A20BDF81A2058
:103CF00025F8022CB9F804209A424FF0030389F802
:103D0000083000F0378245F210539A4200F02682C4
:103D100048F2525340F600449A42C5F6020440F07D
:103D200043826026F0234FF4A0722FE2ADF81A70A0
:103D3000BDF81A00ADF81A00BDF81A0025F8020CFB
:103D4000052004F049FE288845F20846ADF81A001F
:103D5000BDF81A00A9F80400B04240F047810120E4
:103D600025F8020C4FF480702880022025F8020C00
:103D70004FF4E06028804FF0030A25F802AC41F2CE
:103D800030002880042025F8020C00272F8008200E
:103D900025F8020C40F202202880092025F8020CA8
:103DA0002F800A2025F8020C0C202F804FF0100BDA
:103DB00025F8020C0D202F80112625F8020C0F206B
:103DC0002F804FF0120825F8020CC8202F801324F2
:103DD00025F802BC2F8025F8026C2F8025F8028C74
:103DE0002F8025F8024C2F8004F0BEFD25F8026CD0
:103DF000072028803220322604F0B6FD25F802BCC8
:103E000041F2B0202880322004F0AEFD25F8028C6B
:103E100040F2BD102880322004F0A6FD25F8024CA7
:103E20004FF4A0502880292025F8020C0E2028806D
:103E3000322004F099FD202025F8020C2F8021204B
:103E400025F8020C40F23F102880302125F8021C92
:103E500040F60D312980312125F8021C41F623114D
:103E6000298041F6264125F8026C45F20842298056
:103E7000332125F8021C42F21C612980342125F8E7
:103E8000021C42F219412980352125F8021C40F616
:103E90000B512980362125F8021C41F206012980A8
:103EA000372125F8021C4FF4C2612980382125F8FA
:103EB000021C40F206712980392125F8021C4FF4BA
:103EC000417129803A2125F8021C40F605612980BC
:103ED0003B2125F8021C40F6016129803C2125F890
:103EE000021C4FF4877129803D2125F8021C40F205
:103EF0000E5129803E2125F8021C40F20341298001
:103F00003F2125F8021C40F207612980502125F845
:103F1000021C51212F8025F8021CEF2129805221FB
:103F200025F8021C53212F8025F8021C4FF427414D
:103F30002880602025F8020C2980612125F8021CC8
:103F4000012129806A2125F8021C80212F8025F873
:103F5000021C81212F8025F8021C82212F8025F848
:103F6000021C83212F8025F8021C84212F8025F834
:103F7000021C85212F8025F8021C90212F8025F816
:103F8000021C9221A5F800B025F8021C93212F8075
:103F900025F8021C9521A5F800A025F8021C4FF475
:103FA00088712980972125F8021C98212F8025F8F7
:103FB000021C2F80B9F8041089F808A0914200F083
:103FC000198145F21052914200F0088148F2525294
:103FD00040F600449142C5F6020440F025812B21B1
:103FE0002A272C26F0234FF4A0720FE14FF47040E3
:103FF000ADF81A00BDF81A00ADF81A00BDF81A00A5
:1040000025F8020C5520ADF81A00BDF81A00ADF8DD
:104010001A00BDF81A0028804FF20100CFF6FF7099
:10402000ADF81A00BDF81A10ADF81A10BDF81A1044
:1040300025F8021CAA21ADF81A10BDF81A10ADF827
:104040001A10BDF81A102980411CADF81A10BDF8DD
:104050001A10ADF81A10BDF81A1025F8021C5221DA
:10406000ADF81A10BDF81A10ADF81A10BDF81A10F4
:104070002980811CADF81A100330BDF81A10ADF874
:104080001A10BDF81A1025F8021C0821ADF81A10F4
:10409000BDF81A10ADF81A10BDF81A102980ADF845
:1040A0001A00BDF81A00ADF81A00BDF81A0025F87C
:1040B000020C0120ADF81A00BDF81A00ADF81A0084
:1040C000BDF81A0028804FF44540ADF81A00BDF83D
:1040D0001A00ADF81A00BDF81A0025F8020C0520E8
:1040E00004F07AFC2888ADF81A00BDF81A00288878
:1040F000ADF81A00BDF81A000002A9F804004CF24D
:104100000150CFF6FF70ADF81A00BDF81A00ADF8F7
:104110001A00BDF81A0025F8020C052004F05CFC1A
:104120002888ADF81A00BDF81A002888ADF81A00E2
:10413000BDF81A00B9F804100143A9F8041088B2B8
:10414000B0423FF40CAE45F21051884200F09C8022
:1041500048F2525188423FF471AB81E0A0264FF4FF
:104160002C574FF428514FF430504FF4F0734FF464
:10417000487207E041F20806212720212220F0237F
:104180004FF4A07240F60044C5F60204A9F80020DE
:10419000A9F80230A9F80A00A9F80C10A9F80E70C5
:1041A000A9F8066006E000BFB9F80660B9F800207B
:1041B000B9F802303620ADF81A00BDF81A00ADF893
:1041C0001A00BDF81A0025F8020CADF81A60BDF807
:1041D0001A00ADF81A00BDF81A0034E0A0204FF420
:1041E0002C514FF428574FF430564FF4F0734FF4DE
:1041F000487207E041F20800212120272226F023FF
:104200004FF4A07240F60044C5F60204A9F800205D
:10421000A9F80230A9F80A60A9F80C70A9F80E10E4
:10422000A9F8060006E000BFB9F80600B9F80020BA
:10423000B9F80230032125F8021C2880072025F850
:10424000020C4FF4897028800020002101F020F931
:10425000B9F8040045F21051884201D1012200E072
:1042600000224FF400512046FDF7CAF9B9F80020AA
:104270000020B9F8023000214FF6FF770097FFF7D2
:10428000EFF907B0BDE8F08F32204CF20154FDF792
:10429000A7F84BF601434FF20101CFF6FF734FF43D
:1042A000704025F8020C55202880AA2025F8021C11
:1042B0005A1C2880481C05904FF05D0E25F8020C12
:1042C00052202880881C03904FF0B90C25F8020C6E
:1042D00008202880C81C0290862125F8020C0120A5
:1042E0002880032725F8023C03F5807329804FF0CE
:1042F0006B0804924FF0840B25F8022C6A222A8066
:104300004FF09C0A25F8023C022329804BF602510B
:10431000CFF6FF7125F8021C2A8004F540624DF2A9
:104320000214FF31CFF6FF7425F8021C67212980A3
:104330004FF4514125F8021C0021298025F8022C58
:104340005D222A80621C25F8024C04F12C0629808B
:1043500025F8022C6B222A80A21C25F8022CE21CD4
:10436000298025F8022C84222A80221D25F8022C7F
:10437000621D298025F8022C9C222A80A21D25F886
:10438000022CE21D298025F8022CB1222A8004F19A
:10439000080225F8022C04F10902298025F8022CD4
:1043A000D9222A8004F10A0225F8022C04F10B021A
:1043B000298025F8022CFD222A8004F10C0225F820
:1043C000022C04F10D02288025F8022C38222A80C4
:1043D00004F10E0225F8022C04F10F02288025F8C2
:1043E000022C68222A8004F1100225F8022C04F124
:1043F0001102288025F8022C04F11202A5F800C051
:1044000025F8022C04F11302288025F8022CFB2247
:104410002A8004F1140225F8022C04F115022B80E5
:1044200025F8022C63222A8004F1160225F8022CBA
:1044300004F117022B8025F8022C04F11802A5F8CC
:1044400000C025F8022C04F119022B8025F8022C5B
:10445000BB222A8004F11A0225F8022C04F11B0267
:104460002F8025F8022C04F11C022F8025F8022C45
:1044700004F11D022F8025F8022C46222A8004F127
:104480001E0225F8022C04F11F022F8025F8022CB1
:1044900069222A8004F1200225F8022C04F121026D
:1044A0002F8025F8022C8F222A8004F1220225F881
:1044B000022C04F123022F8025F8022CA4222A804A
:1044C00004F1240225F8022C04F125022F8025F89E
:1044D000022C04F12602A5F800C025F8022C04F1F4
:1044E00027022F8025F8022CC7222A8004F12802F7
:1044F00025F8022C04F129022F8025F8022CC9226C
:104500002A8004F12A0225F8022C04F12B022F80C4
:1045100025F8022CCB222A8025F8026C04F12D0606
:104520002F8025F8026C04F12E062A8025F8026CF3
:1045300004F12F062F8025F8026C04F130062A8042
:1045400025F8026C04F131062F8025F8026CCC2688
:104550002E804FF4524625F8026C04F1FF062980A4
:1045600004F5807425F8026CA5F800E025F8024CEB
:104570004DF20324CFF6FF74298025F8024C661C07
:10458000A5F8008025F8026CA61C298025F8026C8D
:10459000E61CA5F800B04FF0D90B25F8026C261DDB
:1045A000298025F8026C661DA5F800A04FF0B10A1D
:1045B00025F8026CA61D298025F8026CE61DA5F8D9
:1045C00000A025F8026C04F10806298025F8026C89
:1045D00004F10906A5F800B025F8026C04F10A06FA
:1045E000298025F8026CFD262E8004F10B0625F8A3
:1045F000026C04F10C06288025F8026C38262E8007
:1046000004F10D0625F8026C04F10E06288025F849
:10461000026C68262E8004F10F0625F8026C04F166
:104620001006288025F8026C04F11106A5F800C0D8
:1046300025F8026C04F11206288025F8026CFB268E
:104640002E8004F1130625F8026C04F114062B8069
:1046500025F8026C63262E8004F1150625F8026CFD
:1046600004F116062B8025F8026C04F11706A5F854
:1046700000C025F8026C04F118062B8025F8026CA6
:10468000BB262E8004F1190625F8026C04F11A06E7
:104690002F8025F8026C04F11B062F8025F8026C90
:1046A00004F11C062F8025F8026C46262E8004F1AA
:1046B0001D0625F8026C04F11E062F8025F8026CF9
:1046C00069262E8004F11F0625F8026C04F12006ED
:1046D0002F8025F8026C8F262E8004F1210625F804
:1046E000026C04F122062F8025F8026CA4262E808D
:1046F00004F1230625F8026C04F124062F8025F826
:10470000026C04F12506A5F800C025F8026C04F13E
:1047100026062F8025F8026CC7262E8004F1270676
:1047200025F8026C04F128062F8025F8026CC926B2
:104730002E8004F1290625F8026C04F12A062F8048
:1047400025F8026C04F12B062A8025F8026C04F18E
:104750002C062F8025F8026C04F12D062A8025F8FE
:10476000026C04F12E062F8025F8026C04F12F064E
:104770002A8025F8026C04F130062F8025F8026C9F
:10478000CC262E804FF4534625F8026C04F1FE0629
:10479000298025F8026C04F1FF06A5F800E004F575
:1047A000807425F8026C4FF0840E298025F8024CA5
:1047B0004DF20434CFF6FF74A5F8008025F8024CC2
:1047C000661C298025F8026C84262E80A61C25F8FC
:1047D000026CE61C298025F8026C9C262E80261D82
:1047E00025F8026C661D298025F8026CA61DA5F827
:1047F00000A025F8026CE61D298025F8026C04F162
:104800000806A5F800B025F8026C04F10906298015
:1048100025F8026CFD262E8004F10A0625F8026CAC
:1048200004F10B06288025F8026C38262E8004F14E
:104830000C0625F8026C04F10D06288025F8026CA0
:1048400068262E8004F10E0625F8026C04F10F068E
:10485000288025F8026C04F11006A5F800C025F8A0
:10486000026C04F11106288025F8026CFB262E80CC
:1048700004F1120625F8026C04F113062B8025F8CA
:10488000026C63262E8004F1140625F8026C04F1F4
:1048900015062B8025F8026C04F11606A5F800C059
:1048A00025F8026C04F117062B8025F8026CBB2654
:1048B0002E8004F1180625F8026C04F119062F80E9
:1048C00025F8026C04F11A062F8025F8026C04F119
:1048D0001B062F8025F8026C46262E8004F11C064C
:1048E00025F8026C04F11D062F8025F8026C69265C
:1048F0002E8004F11E0625F8026C04F11F062F809D
:1049000025F8026C8F262E8004F1200625F8026C13
:1049100004F121062F8025F8026CA4262E8004F1D4
:10492000220625F8026C04F123062F8025F8026C7C
:1049300004F12406A5F800C025F8026C04F1250650
:104940002F8025F8026CC7262E8004F1260625F854
:10495000026C04F127062F8025F8026CC9262E80F0
:1049600004F1280625F8026C04F129062F8025F8A9
:10497000026C04F12A062A8025F8026C04F12B0649
:104980002F8025F8026C04F12C062A8025F8026C91
:1049900004F12D062F8025F8026C04F12E062A80E2
:1049A00025F8026C04F12F062F8025F8026CCC2626
:1049B0002E804FF4544625F8026C04F1FD06298040
:1049C00025F8026C5D262E8004F1FE0625F8026CA7
:1049D00004F1FF06298004F5807425F8026CA5F81F
:1049E00000804FF0840825F8024C4DF20544CFF6C4
:1049F000FF74298025F8024C661CA5F800E04FF0F2
:104A00005D0E25F8026CA61C298025F8026C9C26F8
:104A10002E80E61C25F8026C261D298025F8026CE4
:104A2000661DA5F800A04FF06B0A25F8026CA61DC4
:104A3000298025F8026CE61DA5F800B04FF0B10BF7
:104A400025F8026C04F10806298025F8026CFD2681
:104A50002E8004F1090625F8026C04F10A0628806C
:104A600025F8026C38262E8004F10B0625F8026C1E
:104A700004F10C06288025F8026C68262E8004F1CB
:104A80000D0625F8026C04F10E06288025F8026C4C
:104A900004F10F06A5F800C025F8026C04F1100619
:104AA000288025F8026CFB262E8004F1110625F8DB
:104AB000026C04F112062B8025F8026C63262E800E
:104AC00004F1130625F8026C04F114062B8025F876
:104AD000026C04F11506A5F800C025F8026C04F17B
:104AE00016062B8025F8026CBB262E8004F11706D3
:104AF00025F8026C04F118062F8025F8026C04F1E9
:104B000019062F8025F8026C04F11A062F8025F86B
:104B1000026C46262E8004F11B0625F8026C04F177
:104B20001C062F8025F8026C69262E8004F11D06D4
:104B300025F8026C04F11E062F8025F8026C8F26E2
:104B40002E8004F11F0625F8026C04F120062F8048
:104B500025F8026CA4262E8004F1210625F8026CAB
:104B600004F122062F8025F8026C04F12306A5F833
:104B700000C025F8026C04F124062F8025F8026C91
:104B8000C7262E8004F1250625F8026C04F12606BE
:104B90002F8025F8026CC9262E8004F1270625F8FF
:104BA000026C04F128062F8025F8026C04F1290616
:104BB0002A8025F8026C04F12A062F8025F8026C61
:104BC00004F12B062A8025F8026C04F12C062F80B4
:104BD00025F8026C04F12D062A8025F8026C04F1F8
:104BE0002E062F8025F8026CCC262E804FF45546D9
:104BF00025F8026C04F1FC06298025F8026C5D267C
:104C00002E8004F1FD0625F8026C04F1FE062980D1
:104C100025F8026C6B262E8004F1FF0625F8026C45
:104C200004F58074298025F8024C4DF20654CFF625
:104C3000FF74A5F8008025F8024C661C298025F831
:104C4000026C9C262E80A61C25F8026CE61C29808E
:104C500025F8026CB1262E80261D25F8026C661DF3
:104C6000298025F8026CD9262E80A61D25F8026C15
:104C7000E61D298025F8026CFD262E8004F1080629
:104C800025F8026C04F10906288025F8026C382604
:104C90002E8004F10A0625F8026C04F10B06288028
:104CA00025F8026C68262E8004F10C0625F8026CAB
:104CB00004F10D06288025F8026C04F10E06A5F813
:104CC00000C025F8026C04F10F06288025F8026C5C
:104CD000FB262E8004F1100625F8026C04F1110663
:104CE0002B8025F8026C63262E8004F1120625F82D
:104CF000026C04F113062B8025F8026C04F11406F3
:104D0000A5F800C025F8026C04F115062B8025F8E3
:104D1000026CBB262E8004F1160625F8026C04F105
:104D200017062F8025F8026C04F118062F8025F84D
:104D3000026C04F119062F8025F8026C46262E809D
:104D400004F11A0625F8026C04F11B062F8025F8E1
:104D5000026C69262E8004F11C0625F8026C04F111
:104D60001D062F8025F8026C8F262E8004F11E066A
:104D700025F8026C04F11F062F8025F8026CA4268A
:104D80002E8004F1200625F8026C04F121062F8004
:104D900025F8026C04F12206A5F800C025F8026C83
:104DA00004F123062F8025F8026CC7262E8004F11B
:104DB000240625F8026C04F125062F8025F8026CE4
:104DC000C9262E8004F1260625F8026C04F1270678
:104DD0002F8025F8026C04F128062A8025F8026C41
:104DE00004F129062F8025F8026C04F12A062A8096
:104DF00025F8026C04F12B062F8025F8026C04F1D3
:104E00002C062A8025F8026C04F12D062F8025F847
:104E1000026CCC262E804FF4564625F8026C04F125
:104E2000FB06298025F8026C04F1FC06A5F800E0D9
:104E30004FF0CC0E25F8026C04F1FD06298025F810
:104E4000026C04F1FE06A5F800A025F8026C04F13E
:104E5000FF06298004F5807425F8026C9C26A5F8CD
:104E6000008025F8024C4DF20764CFF6FF742980CC
:104E700025F8024C2E80661C25F8026CA61C2980A1
:104E800025F8026CE61CA5F800B025F8026C261D7A
:104E9000298025F8026CD9262E80661D25F8026C23
:104EA000A61D298025F8026CFD262E80E61D25F81A
:104EB000026C04F10806288025F8026C38262E8042
:104EC00004F1090625F8026C04F10A06288025F889
:104ED000026C68262E8004F10B0625F8026C04F1A2
:104EE0000C06288025F8026C04F10D06A5F800C018
:104EF00025F8026C04F10E06288025F8026CFB26CA
:104F00002E8004F10F0625F8026C04F110062B80A8
:104F100025F8026C63262E8004F1110625F8026C38
:104F200004F112062B8025F8026C04F11306A5F893
:104F300000C025F8026C4BF60216CFF6FF762B80E8
:104F400004F1140325F8023CBB232B8004F1150364
:104F500025F8023C2F8004F1160325F8023C04F1E9
:104F600017032F8025F8023C04F118032F8025F841
:104F7000023C46232B8004F1190325F8023C04F17E
:104F80001A032F8025F8023C69232B8004F11B03B0
:104F900025F8023C04F11C032F8025F8023C8F23E6
:104FA0002B8004F11D0325F8023C04F11E032F8021
:104FB00025F8023CA4232B8004F11F0325F8023CB2
:104FC00004F120032F8025F8023C04F12103A5F809
:104FD00000C04FF0AA0C25F8023C04F122032F80F8
:104FE00025F8023CC7232B8004F1230325F8023C5B
:104FF00004F124032F8025F8023CC9232B8004F1FF
:10500000250325F8023C04F126032F8025F8023CF5
:1050100004F127032A8025F8023C04F128032F809D
:1050200025F8023C04F129032A8025F8023C04F10A
:105030002A032F8025F8023C24232A8004F12B0226
:1050400025F8022C04F12C022F8025F8022C4FF4B5
:105050003A42A5F800E025F8022C06F1FF022B8069
:1050600025F8022C06F580722B8025F8022C4FF4CF
:1050700039422B8025F8022C4BF60102CFF6FF7245
:105080002B8002F5807425F8024C2B8025F8026CE9
:105090004BF601462B804FF4704325F8023C552314
:1050A0002B804FF2010325F8023CCFF6FF76A5F8DE
:1050B00000C0059B25F8023C52232B80039B25F85A
:1050C000023C08232B80029B25F8023C29804FF4E8
:1050D000314325F8023C4FF43C43A5F800E025F8A5
:1050E000023C05232B8025F8026C2B80049E25F8BA
:1050F000026C4BF602562B80CFF6FF764FF4384306
:1051000025F8023C531C288025F8022C02322F80FF
:1051100025F8023C731C2F8025F8022C07222F80D3
:1051200025F8026C06F580762A8025F8023C3123AA
:105130002B8025F8026C4BF60366CFF6FF762A80AB
:1051400025F8026C06F1FF042B8025F8024C4FF481
:1051500068542A8006F5807225F8022C4FF47F42AD
:105160002B80552625F8022C6FF0FE02A5F800C012
:10517000531C25F8022C02322E8025F8023C2523F0
:105180002B80112325F8022C4FF20432CFF6FF7248
:10519000288025F8022C2B80931C25F8023C102334
:1051A0002B80043225F8022C4FF45452298025F824
:1051B000022C4FF42852298025F8024C2E8025F825
:1051C000022C42F60122298025F8022C42F6022206
:1051D000298025F8022C288042F6032025F8020CAD
:1051E000DF2028804FF42C5025F8020C42F60130C5
:1051F000298025F8020C42F60230298025F8020C9D
:1052000042F603302F8025F8020C1F2028804FF42F
:105210008850ADF81A00BDF81A00ADF81A00BDF8B4
:105220001A0025F8020C0A2003F09EFB4FF42450CC
:10523000ADF81A00BDF81A00ADF81A00BDF81A0052
:1052400025F8020C052003F08FFB25F8024C4FF4E3
:1052500058502E8045F2084225F8020C6020288024
:10526000B9F8041089F8087091421FD045F2105225
:1052700091420FD048F2525240F600449142C5F696
:1052800002042DD12B212A272C26F0234FF4A072C3
:1052900018E000BFA0204FF42C514FF428574FF4D2
:1052A00030564FF4F0734FF4487207E041F20800B3
:1052B000212120272226F0234FF4A07240F600443B
:1052C000C5F60204A9F80020A9F80230A9F80A607E
:1052D000A9F80C70A9F80E10A9F8060006E000BFA6
:1052E000B9F80600B9F80020B9F802304FF4585167
:1052F00025F8021CFEF7A7BF80B581B040F29C4C98
:1053000045F20842C2F2004CBCF80430934200F06F
:10531000AF8045F2105293424AD048F25252934223
:1053200040F0A480BCF80C200023ADF80220C6F2A7
:105330000203BDF80220ADF80220BDF8022023F8D8
:10534000022C020AC0B2ADF80220BDF80220ADF86E
:105350000220BDF802201A80ADF80200BDF802005C
:10536000ADF80200BDF802001880BCF80E00ADF8E0
:105370000200BDF80200ADF80200BDF8020023F8FB
:10538000020C080AADF80200BDF80200ADF80200F8
:10539000BDF802001880C8B2ADF80200BDF80200E6
:1053A000ADF80200BDF80200188001B080BD00BF5A
:1053B000BCF80C2040F2000EADF80220C6F2020E3E
:1053C000BDF802300132ADF80230BDF802302EF8DF
:1053D000023C030AC0B2ADF80230BDF80230ADF8AD
:1053E0000230BDF80230AEF80030ADF80220BDF852
:1053F0000220ADF80220BDF802202EF8022CADF8F4
:105400000200BDF80200ADF80200BDF80200AEF8DF
:105410000000BCF80E00ADF80200BDF8022001301B
:10542000ADF80220BDF802202EF8022C0A0AADF8D1
:105430000220BDF80220ADF80220BDF80220AEF82F
:105440000020ADF80200BDF80200ADF80200BDF882
:1054500002002EF8020CC8B2ADF80200BDF802003E
:10546000ADF80200BDF80200AEF8000001B080BD4A
:105470000023BCF80C20C6F2020323F8022C18808B
:10548000BCF80E0023F8020C198001B080BD0000AA
:1054900070B581B040F29C4C45F20844C2F2004C19
:1054A000BCF804E0A64500F0398145F21054A64549
:1054B00076D048F25254A64540F04681BCF80C40E4
:1054C00040F2000EADF80240C6F2020EBDF80240F6
:1054D0000244ADF80240013A95B2BDF80240D2B2A2
:1054E0002EF8024C040AADF80240BDF802400B440D
:1054F000ADF80240BDF80240AEF80040C4B2ADF8CD
:105500000240BDF80240ADF80240BDF80240AEF8DE
:1055100000402C0AADF80240BDF80240ADF8024050
:10552000BDF80240AEF80040ADF80220BDF8022000
:10553000ADF80220BDF80220AEF80020BCF80E2025
:10554000ADF80220BDF80220ADF80220BDF802201F
:105550002EF8022C0A0AADF80220BDF80220ADF8A0
:105560000220BDF80220AEF80020CAB2ADF8022039
:10557000BDF80220ADF802205A1E95B2BDF80230E7
:10558000D2B2AEF800302B0AADF80230BDF80230CE
:10559000ADF80230BDF80230AEF80030B2E000BF26
:1055A000BCF80C4040F2000EADF80240C6F2020E0C
:1055B000BDF802500244ADF80250013A96B2BDF86F
:1055C0000250D2B22EF8025C050AADF80250BDF8C6
:1055D00002500B44ADF80250013BBDF80250AEF84A
:1055E0000050651CADF80250BDF80250ADF80250F5
:1055F000BDF802502EF8025CC5B2ADF80250BDF8FD
:105600000250ADF80250BDF80250AEF80050A51C93
:10561000ADF802500334BDF80250ADF80250BDF8A9
:1056200002502EF8025C350AADF80250BDF8025067
:10563000ADF80250BDF80250AEF800509DB2ADF882
:105640000240BDF80240ADF80240BDF802402EF81D
:10565000024CADF80220BDF80220ADF80220BDF8E2
:105660000220AEF80020BCF80E20ADF80220BDF8F4
:105670000260ADF80260BDF802602EF8026C0E0AFE
:10568000ADF80260BDF80260ADF80260BDF80260DE
:10569000AEF80060561CADF80260BDF80260ADF8CF
:1056A0000260BDF802602EF8026CCEB2ADF8026066
:1056B000BDF80260ADF80260BDF80260AEF80060AF
:1056C000961CADF802600332BDF80260ADF80260CE
:1056D000BDF802602EF8026C2E0AADF80260BDF82B
:1056E0000260ADF80260BDF80260AEF80060ADF88F
:1056F0000220BDF80220ADF80220BDF802202EF8ED
:10570000022CDAB2ADF80220BDF80220ADF802207A
:10571000BDF80220AEF8002053E000BF9CF808401E
:10572000012C1FD0042C13D0032C27D1BCF802501D
:10573000BCF80040691A201AA1F1010EA0F1010C79
:10574000CC1A821A734624E00020002139E000BF01
:105750000B440244A3F1010EA2F1010C0C460246D7
:105760000B4617E0BCF8005003EB010C281AA0F11F
:10577000010E841A0A46734608460BE0BCF8025034
:105780000244A2F1010E0446691AA1F1010CCA1AE1
:105790000346604600255021C6F2020525F8021C8A
:1057A00051212C8025F8021C5221A5F800E025F893
:1057B000021C53212A8025F8021C0146A5F800C0CE
:1057C000184680B289B201B0BDE87040FFF794BDC1
:1057D00040F29C404FF6FE71C2F20040C6F2010159
:1057E000408908807047000080B58EB040F22830B4
:1057F00044F20001C2F20040C5F200214FF0100E49
:105800004FF48053016001F5827141600021C0E9CD
:10581000021101614FF00F0CC0E905E1C0E9071169
:10582000C0E909314FF480430522C0E90B31C0E9DA
:105830000D114FF400130691C0E90F314D23CDF83F
:105840001CE0CDE909311123CDF820C0CDE90C31A0
:10585000CDE9002CCDE9022107A96A46CDF82CE05C
:10586000CDE904E3FDF7E0FC08B1FBF75DFB0EB00A
:1058700080BD0000000000002DE9F04F87B044F229
:10588000E0404FF0000BC5F60200CDF818B0CDE9AE
:1058900004BBCDE902BB016840F2004A41F01001AF
:1058A00001600168C5F6020A01F010010191019939
:1058B000016841F08001016001680AF5806501F02E
:1058C000800101910199016841F0040101600168C2
:1058D000002201F0040101910199016841F00101E8
:1058E000016001684FF0730801F001010191019915
:1058F000016841F002010160016801F002010191BB
:105900000199016841F0080101600068732100F00D
:105910000800019001982846FBF772FE4FF47F4182
:10592000002250464FF47F49FBF76AFE02AE0F207B
:10593000CDE9020B0AF54060314601240494FBF7DF
:1059400083FD28463146CDE90284CDF810B0022708
:105950000597FBF779FD50463146CDE90294CDE934
:1059600004B7FBF771FD07B0BDE8F08F0000000041
:1059700080B540F2D42045F20041C2F2004047F227
:10598000B152C4F20001C3F27002C0E9001200215A
:1059900081600122C0E90321C0E90511C0E90711B6
:1059A000FBF792FE08B1FBF7BFFA40F2D4200021CA
:1059B000C2F20040FBF73CFE08B1FBF7B5FA40F23B
:1059C000D4200021C2F20040FBF75AFE002808BF95
:1059D00080BDBDE88040FBF7A7BA000000000000D2
:1059E00080B540F2743041F20001C2F20040C4F2CE
:1059F00001010C2201604FF4E13141600021C0E956
:105A000002110161C0E90521C0E90711C0E90911CE
:105A1000FDF77EFD08B1FBF787FA40F274300021F4
:105A2000C2F20040FDF72CFD08B1FBF77DFA40F211
:105A300074300021C2F20040FDF7DAFC08B1FBF738
:105A400073FA40F27430C2F20040FDF7B5FC002852
:105A500008BF80BDBDE88040FBF766BA00000000CB
:105A600080B540F2084044F20041C2F20040C4F266
:105A700000010C2201604FF4E13141600021C0E9D6
:105A800002110161C0E90521C0E90711C0E909114E
:105A9000FDF73EFD08B1FBF747FA40F20840002150
:105AA000C2F20040FDF7ECFC08B1FBF73DFA40F212
:105AB00008400021C2F20040FDF79AFC08B1FBF754
:105AC00033FA40F20840C2F20040FDF775FC0028AE
:105AD00008BF80BDBDE88040FBF726BA000000008B
