:020000040800F2
:10000000D8C30224AD02000811950008696D0008EC
:1000100009950008A10B0008F9AB000800000000DA
:1000200000000000000000000000000049990008E6
:1000300019160008000000001995000851990008E1
:10004000C7020008C7020008C7020008C70200086C
:10005000C7020008C7020008C7020008C70200085C
:10006000C7020008C7020008C7020008B91100084B
:10007000C9110008C7020008C7020008C70200082B
:10008000C7020008C7020008C7020008C70200082C
:10009000C7020008C7020008C7020008A916000826
:1000A000C7020008C7020008C7020008C70200080C
:1000B000C7020008C7020008C7020008C7020008FC
:1000C000C7020008C7020008C7020008C7020008EC
:1000D000C7020008C7020008C7020008C7020008DC
:1000E000C7020008C702000800000000C70200089D
:1000F000C7020008C7020008C7020008C7020008BC
:10010000C7020008C7020008C7020008C7020008AB
:10011000C7020008C7020008C7020008C70200089B
:10012000C7020008C7020008C7020008C70200088B
:10013000C7020008C7020008C7020008C70200087B
:1001400000000000000000000000000000000000AF
:10015000C7020008C7020008C7020008C70200085B
:10016000C7020008C7020008C7020008C70200084B
:10017000C7020008C7020008C7020008C70200083B
:10018000C7020008C7020008C7020008C70200082B
:10019000C7020008C7020008C7020008C70200081B
:1001A000C7020008C7020008C7020008C70200080B
:1001B000C7020008C7020008C7020008C7020008FB
:1001C000C7020008C7020008C7020008C7020008EB
:1001D000C7020008C7020008D9110008C7020008BA
:1001E000C7020008C7020008C7020008C7020008CB
:1001F000C7020008C7020008C7020008C7020008BB
:10020000C7020008C7020008C7020008C7020008AA
:10021000C7020008C7020008C7020008C70200089A
:10022000C7020008C7020008C7020008000000005B
:10023000C7020008C702000800000000C70200084B
:10024000C7020008C7020008C7020008C70200086A
:10025000C7020008C7020008C7020008C70200085A
:10026000C7020008C7020008C7020008C70200084A
:10027000C7020008C7020008C7020008000000000B
:10028000C7020008C7020008C702000800000000FB
:1002900000000000C7020008DFF80CD000F048FAA8
:1002A00000480047D9C30008D8C302240648804745
:1002B00006480047FEE7FEE7FEE7FEE7FEE7FEE74B
:1002C000FEE7FEE7FEE7FEE7999A000899020008BC
:1002D0002DE9F05F0546002092469B46884606467B
:1002E000814640241BE0284641464746224600F00E
:1002F00057F853465A46C01A914110D31146184632
:10030000224600F03EF82D1A67EB01084F462246C0
:100310000120002100F035F817EB00094E41201EA6
:10032000A4F10104DFDC484631462A464346BDE8D5
:10033000F09FD2B201E000F8012B491EFBD27047BA
:100340000022F6E710B513460A4604461946FFF7A1
:10035000F0FF204610BD30B50B460146002020229C
:10036000012409E021FA02F59D4205D303FA02F5C2
:10037000491B04FA02F52844151EA2F10102F1DC22
:1003800030BD202A04DB203A00FA02F10020704739
:100390009140C2F1200320FA03F3194390407047C3
:1003A000202A04DB203A21FA02F00021704721FACA
:1003B00002F3D040C2F12002914008431946704731
:1003C0002DE9FE4F804681EA0300C00F0C460090E5
:1003D00021F0004123F00045B8EB0200A94105D20D
:1003E0004046214690461C460B46024623F00040FC
:1003F000104347D0270DC7F30A00C3F30A510290F8
:10040000401A019040286BDAC3F3130040F4801BBC
:100410000098924620B10023D2EB030A63EB0B0B4A
:1004200001985946C0F140025046FFF7AAFF064620
:100430000D4650465946019A00F092F910EB08001B
:100440006141002487EA115284EAE7731A4340D0DD
:10045000009A62B3019A012A4FEA075215DC001B89
:1004600061EB02014FF0004202EA0752CDE900427F
:10047000001C41F5801132462B4600F092F903B082
:10048000BDE8F08F40462146F9E7001B61EB020111
:10049000001C41F5801300185B412018A2F50017DD
:1004A00047EB030140EAD570B6196D4111E06D08C4
:1004B0004FEA360645EAC0754FEA0752001B61EB6A
:1004C0000201001C41F5801149084FEA3000001973
:1004D000514132462B4603B0BDE8F04F00F052B90F
:1004E0000098012240000023D0EB020263EBE0738E
:1004F000009821464FEAE074B8EB000061EB04017C
:10050000E9E783F000435BE781F0004158E72DE91C
:10051000FE4F81EA030404F0004421F000410094FE
:100520004FF0000B23F0004350EA01045ED052EA82
:1005300003045BD0C3F30A54C1F30A552C44A4F25C
:10054000F3340194A0FB0254C1F3130141F4801170
:10055000C3F3130343F4801301FB024400FB034E77
:10056000840A970A44EA815447EA8357A4FB076840
:1005700002958D0A05FB07854FEA932C04FB0C546A
:100580002705029D4FEA065847EA1637B5EB0805DE
:100590006EEB070C870E920E47EA811742EA831230
:1005A000A7FB0201B6EB0B0164EB00042B0D43EA41
:1005B0000C335E1844EB1C50DA465146E7FB02014F
:1005C000C5F313044FEA0B3343EA14534FEA0432E2
:1005D000019C43EA0603A4F10C040294009CCDE9BB
:1005E00000B400F0DEF803B0BDE8F08F0020014653
:1005F000F9E72DE9F04D81EA030404F0004B21F006
:10060000004514464FF0000A23F0004150EA05026D
:1006100020D054EA01021DD0C5F30A570246C5F3A3
:100620001303C1F31300C1F30A5640F4801543F4D9
:100630008013A7EB0608101BD64608F2FD3873EBB3
:10064000050002D308F1010801E092185B41B8F1FE
:10065000000F03DA00200146BDE8F08D00204FF4C2
:100660008011064684460EE0171B73EB050705D381
:10067000121B63EB050306434CEA010C49084FEAE1
:10068000300092185B4150EA0107EDD152EA0300B5
:1006900012D082EA040083EA0501084305D0101B4A
:1006A000AB4106D20122002306E000224FF00043B6
:1006B00002E06FF0010253101AEB06004CEB0851F8
:1006C00010EB0A0041EB0B01BDE8F04D00F05AB809
:1006D000C1F30A52C1F3130140F2FF3341F4801118
:1006E0009A4202DA00200146704740F233439A42B0
:1006F000A2F2334202DC5242FFF752BEFFF741BE84
:1007000030B5041E71F1000404DB4FF00044404298
:1007100064EB0101141E73F1000405DB1C464FF06D
:100720000043524263EB0403994208BF904230BD3C
:100730001CB509480090094801900546009C06E058
:10074000E06840F0010394E8070098471034AC4299
:10075000F6D3FFF7A5FD00006421010884210108FC
:10076000202A06DBCB17203A41FA02F043EAE07375
:1007700006E041FA02F3D040C2F120029140084362
:100780001946704710B5141E73F1000408DA401CB6
:1007900041F1000192185B411A4301D120F00100A0
:1007A00010BD2DE9F04D92469B4611B1B1FA81F290
:1007B00002E0B0FA80F220329046FFF7E2FD0446F4
:1007C0000F4640EA0A0041EA0B0153465A460843E5
:1007D00013D0114653EA010019D0C8F14002504627
:1007E000FFF7DEFD05460E46504659464246FFF7E6
:1007F000C8FD084305D0012004E020463946BDE885
:10080000F08D0020054346EAE0762C4337430A98F2
:100810006305E40AA0EB08000022FD0A44EA4754FD
:100820000A3002D500200146E9E7010510196941A7
:10083000DDE9084500196941BDE8F04DA2E7000077
:10084000B0B50446006842F2001140F48070C4F272
:100850000201884218D142F20830C4F20200006856
:1008600010F4403F18D005F013FB61680546B1F560
:10087000803F05D0B1F5403F2CD0B1F5003F2AD1E3
:10088000080CB5FBF0F526E046F20830C5F602008C
:10089000006810F4403FE6D14FF40020002104F03E
:1008A00043FA61680546A1F580224FEAB2420A2A5E
:1008B00011D8DFE802F0070707070707555359511A
:1008C000570000BF6FF0010000EA5140B5FBF0F5A2
:1008D00001E000BFAD0803F0EBFD41F203018842E7
:1008E0000ED8206842F60151C0F231118D42816864
:1008F0002CBF41F4807121F480718160B0BD00BFD4
:100900004BF62140C0F2BE00854205D820688168C0
:1009100021F440718160B0BD47F64100C0F27D1006
:10092000854207D820680122816862F3092181602D
:10093000B0BD00BF20684FF28101C0F2FA218D42A4
:10094000816805D8022262F309218160B0BD00BF31
:1009500041F440718160B0BDED09BCE76D09BAE7B3
:100960002D09B8E72D0AB6E7AD09B4E7000000008D
:1009700070B5044600688268836802F0040203F0E0
:100980000803D2186CD0C268920121D5627D012A79
:100990001ED1227D012A1BD10168490613D44DF6D0
:1009A0000441C0F20C01043950D0026852065CBF09
:1009B00002685FEA426206D4026852065CBF0268BF
:1009C0005FEA4262EFD540210160012106E000BFED
:1009D000022903D10221082612E000BF82685207D3
:1009E0000AD58268920707D44FF6C0738268C7F6AB
:1009F000FF731A401032826001294FF0040610D0B4
:100A0000826812070AD58268920707D44FF6C0732E
:100A10008268C7F6FF731A4020328260032908BF3C
:100A20000C2603F04DFD21688968314218D0054637
:100A300003E000BF8068304212D003F041FD401B4C
:100A400006282068F6D381683142F3D0606D40F00B
:100A500010006065A06D40F00100A065012070BD30
:100A6000002070BD000000000146806B426D12F056
:100A7000500F426D06D0D20610D4C06CC26C08462E
:100A8000104700BF42F40071416501680A6812070F
:100A9000CA6805D4910709D001F0F2BA01F0F8BA9A
:100AA00012F4406FF8D1C9688904F5D4416D21F47E
:100AB00080714165416DC904EED4416D41F0010181
:100AC000416501F0DDBA0000806B416D41F04001ED
:100AD0004165816D41F00401816501F0D9BA0000E2
:100AE000806B01F0D1BA0000F0B581B00446006817
:100AF0008168C9074AD14FF6C0778168C7F6FF778A
:100B000007F17F0211420BD0606D40F0100060656C
:100B1000A06D40F00100A065012001B0F0BD00BF54
:100B20008168394041F00101816003F0C9FC42F263
:100B3000000246F20836C4F20202216802F5807310
:100B400002F54275C5F60206994208BF2E4691424B
:100B500008BF2E4699420546306814D110F01F0098
:100B600014D110E08868C00704D18868384040F08C
:100B70000100886003F0A4FC401B2168032802D315
:100B80000868C007C0D00868C007EBD0002001B0DB
:100B9000F0BD0000000000007047000000000000F1
:100BA000FEE7000000000000B0B586B044F2E0406F
:100BB00040F20044C5F60200C5F6020401AD01682A
:100BC00041F0020101600068294600F00200019036
:100BD0000198082001900120CDE902000320049033
:100BE000204603F081FB202001902046294603F097
:100BF0007BFB20210122204603F052FC0821012228
:100C0000204603F04DFC06B0B0BD0000000000001F
:100C10002DE9F04F83B040F200448246C5F602044D
:100C2000206820F440602060206820601E200AF0C8
:100C30005FFF08210022204603F032FC02200AF068
:100C400057FF08210122204603F02AFC20212046DC
:100C500003F01EFC002818BF0120029002200AF0B9
:100C600047FF08210022204603F01AFC02200AF068
:100C70003FFF08210122204603F012FC20212046DC
:100C800003F006FC019002200AF032FF0821002246
:100C9000204603F005FC02200AF02AFF0821012269
:100CA000204603F0FDFB2021204603F0F1FB8346A4
:100CB00000284FF0020018BF4FF0010B0AF018FF98
:100CC00008210022204603F0EBFB02200AF010FF6F
:100CD00008210122204603F0E3FB2021204603F0F7
:100CE000D7FB054602200AF003FF08210022204618
:100CF00003F0D6FB02200AF0FBFE08210122204669
:100D000003F0CEFB2021204603F0C2FB074600285B
:100D10004FF0020018BF01270AF0EAFE0821002266
:100D2000204603F0BDFB02200AF0E2FE082101226A
:100D3000204603F0B5FB2021204603F0A9FB064620
:100D400002200AF0D5FE08210022204603F0A8FB6D
:100D500002200AF0CDFE08210122204603F0A0FB6C
:100D60002021204603F094FB804600284FF002002B
:100D700018BF4FF001080AF0BBFE082100222046F0
:100D800003F08EFB02200AF0B3FE08210122204668
:100D900003F086FB2021204603F07AFB81460220E7
:100DA0000AF0A6FEBAFA8AF008214FEA501A002289
:100DB000204603F075FB2068202120F4406020606D
:100DC0002068524640F480602060204603F068FBB3
:100DD00002200AF08DFE08210122204603F060FB6C
:100DE00002200AF085FE08210022204603F058FB6D
:100DF0000199002918BF01210298002D18BF012573
:100E000041EA4000002E4FEA800040EA4B002844AF
:100E10004FEA800018BF012640EA4700B9F1000FF1
:100E200030444FEA800018BF4FF0010940EA480003
:100E30004844C0B203B0BDE8F08F000000000000DD
:100E4000B0B540F200440546C5F602040022216810
:100E500021F4406121602068082140F48060206016
:100E6000204603F01DFBEA092021204603F018FB71
:100E700002200AF03DFE08210122204603F010FB6B
:100E800002200AF035FE08210022204603F008FB6C
:100E900002200AF02DFEC5F380122021204603F027
:100EA000FFFA02200AF024FE08210122204603F066
:100EB000F7FA02200AF01CFE08210022204603F067
:100EC000EFFA02200AF014FEC5F34012202120465A
:100ED00003F0E6FA02200AF00BFE08210122204668
:100EE00003F0DEFA02200AF003FE08210022204669
:100EF00003F0D6FA02200AF0FBFDC5F30012202110
:100F0000204603F0CDFA02200AF0F2FD082101226A
:100F1000204603F0C5FA02200AF0EAFD082100226B
:100F2000204603F0BDFA02200AF0E2FDC5F3C0023C
:100F30002021204603F0B4FA02200AF0D9FD08214E
:100F40000122204603F0ACFA02200AF0D1FD08216C
:100F50000022204603F0A4FA02200AF0C9FDC5F3DE
:100F600080022021204603F09BFA02200AF0C0FDF7
:100F700008210122204603F093FA02200AF0B8FD6E
:100F800008210022204603F08BFA02200AF0B0FD6F
:100F9000C5F340022021204603F082FA02200AF025
:100FA000A7FD08210122204603F07AFA02200AF068
:100FB0009FFD08210022204603F072FA02200AF069
:100FC00097FD05F001022021204603F069FA022076
:100FD0000AF08EFD08210122204603F061FA02206A
:100FE0000AF086FD08210022204603F059FA02206B
:100FF000BDE8B0400AF07CBD10B540F200442021AD
:10100000C5F602040122206820F4406020602068B8
:1010100040F480602060204603F042FA082101225B
:10102000204603F03DFA1E200AF062FD2021002236
:10103000204603F035FA02200AF05AFD082100226A
:101040002046BDE8104003F02BBA0000000000006D
:1010500010B540F200440821C5F6020400222068C1
:1010600020F440602060206840F4806020602046CA
:1010700003F016FA20210022204603F011FA1E2068
:101080000AF036FD08210122204603F009FA022069
:101090000AF02EFD202101222046BDE8104003F079
:1010A000FFB9000000000000B0B540F2004420216C
:1010B000C5F602040122206820F440602060206808
:1010C0002060204603F0ECF908210122204603F0BD
:1010D000E7F902200AF00CFD2021204603F0D8F9A0
:1010E00060B10025FA2D11D2022001350AF000FD71
:1010F0002021204603F0CCF90028F3D1082100225A
:101100000025204603F0CCF92846B0BD2068082110
:1011100020F4406020602068002240F4806020605D
:10112000204603F0BDF920210022204603F0B8F943
:101130001E200AF0DDFC082101222046012503F0D3
:10114000AFF902200AF0D4FC20210122204603F04E
:10115000A7F92846B0BD000010B5846B204601F009
:1011600087FB0120207110BD10B5846B204601F073
:1011700093FA0120207110BD10B5846B206940F0F6
:1011800004002061204601F07BFB0120207110BD8E
:1011900010B5846B206940F004002061204601F006
:1011A00083FA0120207110BD806B01F065BB000047
:1011B000806B01F075BA000046F29800C2F202405E
:1011C00001F04ABF0000000040F27C00C2F2004083
:1011D00001F042BF0000000040F27C00C2F200407B
:1011E00001F076BC0000000040F20F42D0F800C0D1
:1011F000C4F20202944511DC6F22C4F2020294454B
:1012000022DC3F22C4F20202944539DC1022C4F2EF
:10121000020294455AD0282254E000BF40F26F42A7
:10122000C4F2020294451BDC40F23F42C4F20202C7
:1012300094452DDC40F21042C4F20202944545D0A0
:1012400040F228423EE000BF9F22C4F202029445D1
:1012500028DC7022C4F20202944537D0882231E0A3
:1012600040F29F42C4F20202944523DC40F27042F5
:10127000C4F20202944529D040F2884222E000BF25
:101280004022C4F20202944520D058221AE000BF46
:1012900040F24042C4F20202944517D040F2584254
:1012A00010E000BFA022C4F2020294450ED0B82282
:1012B00008E000BF40F2B842C4F20202944505D0F3
:1012C00040F2A042C4F20202944517D10CF0F80299
:1012D0004AF6AB23103ACAF6AA23A2FB03310AA3AB
:1012E0005F2AC1F302115B5C40F2FF312CEA01017D
:1012F000C36588BF04318165084670472CF0FF0143
:1013000081650846704700BF0006101600061016DB
:1013100070B540F26F44D0F800C0C4F20204D0F8B7
:1013200058E0A4451ADC9F25C4F20205AC4533DC25
:101330005725C4F20205AC455ADC1025C4F202055B
:10134000AC4500F098802825C4F20205AC4500F0B9
:1013500092804025C4F202058AE000BF45F22F4585
:10136000C5F60205AC452DDC40F2B745C4F20205D6
:10137000AC454BDC40F27045C4F20205AC457AD076
:1013800040F28845C4F20205AC4574D040F2A04555
:10139000C4F202056CE000BF40F22745C4F202052A
:1013A000AC4543DCA025C4F20205AC4563D0B825AA
:1013B000C4F20205AC455ED040F21045C4F202050D
:1013C00056E000BF45F26B45C5F60205AC453FDC73
:1013D00045F23045C5F60205AC454CD045F24445D2
:1013E000C5F60205AC4546D045F258453EE000BF83
:1013F0005825C4F20205AC453DD07025C4F2020563
:10140000AC4538D08825C4F2020531E040F2B84539
:10141000C4F20205AC452ED045F20845C5F60205DA
:10142000AC4528D045F21C4520E000BF40F22845DD
:10143000C4F20205AC451ED040F24045C4F202059C
:10144000AC4518D040F25845C4F2020510E000BF88
:1014500045F26C45C5F60205AC450CD045F2944505
:10146000C5F60205AC4506D045F28045C5F6020535
:10147000AC4540F0D080456EC66E002E866E6E6024
:101480001CBFD0E91C566E60A44515DC9F24C4F235
:101490000204A4452CDC5724C4F20204A44551DC08
:1014A0001024C4F20204A4457AD02824C4F2020411
:1014B000A44575D040246FE045F22F44C5F60204E0
:1014C000A44529DC40F2B744C4F20204A44545DC3B
:1014D00040F27044C4F20204A44561D040F2884452
:1014E000C4F20204A4455BD040F2A04454E000BF23
:1014F00040F22744C4F20204A4453FDCA024C4F215
:101500000204A4454CD0B824C4F20204A44547D038
:1015100040F2104440E000BF45F26B44C5F60204BF
:10152000A44555DC45F23044C5F60204A44561D01B
:1015300045F24444C5F60204A4455BD045F2584444
:1015400054E000BF5824C4F20204A44528D07024FB
:10155000C4F20204A44523D088241DE040F2B8441C
:10156000C4F20204A4451BD045F20844C5F60204A7
:10157000A4453FD045F21C4438E000BF40F2284467
:10158000C4F20204A4450BD040F24044C4F2020469
:10159000A44505D040F25844C4F20204A4453AD10F
:1015A0008468C06D00F01F003F2505FA00F0CEF8FA
:1015B0000800DCF80000402C20F48020CCF800006B
:1015C000CCF8043023D1CCF80820CCF80C1070BD36
:1015D00045F26C44C5F60204A4450BD045F28044A4
:1015E000C5F60204A44505D045F29444C5F60204AC
:1015F000A44510D1C46D012504F01F04806805FACC
:1016000004F4CEF804404028CCF80430DBD0CCF809
:101610000810CCF80C2070BD7047000000000000DE
:101620004FEA901CBCF1040F98BFEF2900D9704716
:10163000B0B501EB810E40F2BC744FEAD22CC2F27D
:10164000004403FB0CFC02F01F0104EBCE1E01FB67
:1016500003F5C2F345122CF0FF0C3EF810104FEAD0
:10166000CC045A4304EB152CC3F58073CC0A9DB20D
:101670006343C1F3451401F01F01694323F0FF03E5
:101680006C436FF01F05DB0005EAD20205EAD404C3
:10169000624403EB1121214411442EF81010BDE8DF
:1016A000B0407047000000004FF4807002F010BEA0
:1016B000EFF3108072B600BFFEE7000000000000EC
:1016C000B3F5804F03461BD1B0B5002053F822C0BC
:1016D000CCF6F0708D680CEA000C8C69D1E9000E34
:1016E00040EA0C00C96840EA0E1040EA0520204399
:1016F00040EA0141BDE8B040002043F822107047A5
:101700006FF07041002043F8221070470000000085
:10171000B0B50A6850F8223023F0010340F82230B7
:10172000D1F808E0CB68D1E900C2BEF1080F08BFCC
:1017300042F04002D1E904451A438B692243CC6947
:101740002A430D6A1A434B6A22438C6A2A43CD6AA4
:101750001A430B6B22434C6B2A438D6B1A4350F890
:101760002C30224340F28044CFF6C0742A432340F9
:101770001A4342EA0E0240F82C200A6BB2F5801F91
:1017800005D10A684AB1026842F4801202600A6810
:101790001AB1496B0268114301600020B0BD00001E
:1017A000F0B500EB820340F2000CCFF6F07C5A68F3
:1017B0008E6802F0404E0D69D1E9002742EA0E0220
:1017C000CC6842EA07124F6942EA06228E690CEBA6
:1017D0000555FE3742EA04422A43324342EA076291
:1017E0005A600268D20209D54268096943681A43FF
:1017F0000CEB015122F47002114341600020F0BD56
:10180000F0B587B044F2E04040F60044C5F602006F
:10181000C5F6020401AD00260168012741F001016F
:101820000160016801F0010101910199016841F035
:10183000080101600068294600F008000190019845
:101840004FF48070019003200490A4F5406002964C
:10185000039702F049FD08202946CDE901072046FB
:1018600002F042FDFFF7A0F908210022204602F015
:1018700017FE14200AF004F908210122204602F084
:101880000FFE32200AF0FCF8FFF7B6FB7020FFF7DE
:10189000D7FAFFF709FC0020FFF7D2FAFFF704FCA4
:1018A0000020FFF7CDFAFFF7FFFBFFF7D1FBFFF7B3
:1018B000A3FB7020FFF7C4FAFFF7F6FBA420FFF7A5
:1018C000BFFAFFF7F1FB0020FFF7BAFAFFF7ECFBD6
:1018D000FFF7BEFBFFF790FB7020FFF7B1FAFFF7B1
:1018E000E3FB8020FFF7ACFAFFF7DEFB5020FFF7A9
:1018F000A7FAFFF7D9FBFFF7ABFB0C208DF81A0016
:10190000FFF77AFB7020FFF79BFAFFF7CDFB8820EB
:10191000FFF796FAFFF7C8FB0C20FFF791FAFFF7E5
:10192000C3FBFFF795FB0DF11A01A120022200F085
:1019300017F89DF81A009DF81B1080F0300081F018
:1019400003020339104311F1020F38BF0126B0FA28
:1019500080F0400926EA000007B0F0BD000000005A
:1019600070B514460D460646FFF746FB7020FFF79C
:1019700067FAFFF799FBF0B2FFF762FAFFF794FB03
:10198000FFF73AFB7120FFF75BFAFFF78DFB5CB1C5
:10199000013D6442B4F1FF3018BF0120FFF738F970
:1019A000013405F8010FF5D3BDE87040FFF750BBD7
:1019B0002DE9F04F83B040F229148346C2F200446F
:1019C0008DF80BB02178481C2070C1B20A290FD3C2
:1019D000CD225143C90A01EB8101A0EB4100000671
:1019E00006D04FF000095FEACB6014D1D9E000BF08
:1019F0000DF10B0102200122FFF7B2FF9DF80BB0A1
:101A00004FF000090BF00F00411E04290CD95FEACA
:101A1000CB6000F0C6802078F12880F0D88048465E
:101A200003B0BDE8F08F00BF40F22807FF21C2F2EB
:101A3000004746F2C03801FA00F04FF6C1710DF1CF
:101A4000070AC2F20248002561EA0000388703E075
:101A50000135052D00F09480388FE840C007F7D09D
:101A60004DF6C8100422C0F60000514630F81500AB
:101A7000FFF776FF98F8080001283FD003281FD011
:101A800004285DD19DF80700B8F802309DF80810D1
:101A900007EB450400F00F029DF8096041EA0221BE
:101AA0009DF80A2006F00F06C9431944A18342EAB3
:101AB0000621218100F0F0008028C9D059E000BF44
:101AC0009DF807009DF809209DF8081000F00F030D
:101AD0009DF80A6002F00F0241EA032107EB45037B
:101AE00046EA0222B8F800609983D1433144198153
:101AF00000F0F0008028ABD03BE000BF9DF807006D
:101B0000B8F800309DF8081000F00F029DF8096049
:101B10009DF80A4041EA022106F00F02C943B8F8D5
:101B20000260194407EB450344EA02221981D143BC
:101B30003144998300F0F000802889D019E000BF7B
:101B40009DF8070007EB45069DF809209DF8081051
:101B500000F00F039DF80A4002F00F0241EA032152
:101B6000318144EA0221B18300F0F00080283FF483
:101B70006FAF07EB4500A0F81C90A0F8089067E74E
:101B80003889B98B40F229144FF00109C2F20044A0
:101B9000084308BF8346002020705FEACB607FF4D3
:101BA0003AAF40F22800C2F20040018F0A0605D485
:101BB0004FF6FF7202818283602202E04FF0FF3213
:101BC000803A114001872078F128FFF428AF0A20DD
:101BD0002070484603B0BDE8F08F00000000000010
:101BE000C20AC0F345134A4300F01F004B43484369
:101BF00002F4F852D1006FF01F0202EAD30201EBA7
:101C00001020104480B2704790F85020012A01D172
:101C100002207047B0B582B042F20832002301932F
:101C2000C4F202020093A2F542740368A34227D1D2
:101C30004FF6006C4FF60055CFF6FF7CCFF6FF75E0
:101C400052F80C40535923435B0719D4D1F800E0F4
:101C50001368BEF1000F23F440441FD04B682343A8
:101C60001360535952F80C502B43DB0722D11368F1
:101C700040F61F75AB438968194341EA0E0118E02D
:101C8000416D41F0200141650121002280F8502082
:101C900002B0BDE8B0400846704700BF146051591B
:101CA00052F80C301943C90704D1116840F61F736C
:101CB000994311600021E8E7F0B581B0002200925D
:101CC00090F85020012A03D10221084601B0F0BD4E
:101CD0000768012380F85030BB685B0700F16C8116
:101CE0000C684FF6FF7CB4F1FF3FC0F20F0C4FEAD7
:101CF000946E0FDD94FAA4F314EA0C0FB3FA83F395
:101D000008BFA30E012403F01F0304FA03F3FC69C8
:101D10002343FB614B681F260EF01F02C3F301240F
:101D200003F01F039E4007EB84049A40256B25EACD
:101D3000060632432263BA68BB6802F0040203F06D
:101D40000803D21840F095800A6807258E68C2F310
:101D50004063C2F3045207EB830395405C6906FAC3
:101D600002F224EA05052A435A6141F20002C5F64F
:101D70000042126802F07042B2F1805F32D14A69CB
:101D8000FB680E2606EA530302FA03F30C69042CDF
:101D900038D007F160020E6806F0F84652F8245079
:101DA000334305F000452B4342F824300B694E7E47
:101DB00052F82350012E25F0004508BF05F10045DB
:101DC00042F823500A7E0B693E69013A03F01F0373
:101DD000B2FA82F226F4F0465209D2029A40324315
:101DE0003A6146E0FA684B69FE68D2064FEA56044B
:101DF00002D404F00E0201E004F0080293400C69E2
:101E0000042CC6D13A6E0B6802F0F8429B069A4247
:101E100018D13A6E22F000423A667A6E02F0F84229
:101E20009A4214D0BA6E02F0F8429A4218D1BA6EB1
:101E300022F00042BA66FA6E02F0F8429A4214D0DA
:101E400017E000BF7A6E02F0F8429A42EAD17A6E49
:101E500022F000427A66BA6E02F0F8429A42E6D068
:101E6000FA6E02F0F8429A4203D1FA6E22F0004272
:101E7000FA66BA68D20752D1CA680B6802F0180530
:101E800003EA0C042CFA05F540F2000CD7F8C06008
:101E9000C4F2FF7CA6431D40624545EA0602C7F82E
:101EA000C02039D194B193FAA3F2B2FA82F201328E
:101EB00002F01E03092B02F01F0310D8012203EBCE
:101EC00043069A4042EA065315E000BF012202EBA6
:101ED000936202F01E030A2B02F01F03EED30122CD
:101EE00003EB43069A400023CFF6206303EB06532F
:101EF0001A4342F00073C3F340620725C3F304534F
:101F00008E6807EB82029D40546906FA03F324EAC7
:101F100005052B4353610B68B3F1FF3F02DD002140
:101F20004FE000BF42F2000146F2083CC4F2020159
:101F3000C5F6020C01F5807201F5427697426246C1
:101F400008BF32468F4242F2001508BF324647F4BE
:101F50008076C4F20205AE42D2F800E024D18A684D
:101F6000D1F808111143C90726D100210EF0E07401
:101F7000CCF684318B4208BF1EF4000128D000212A
:101F8000CCF252718B4263D10021B1EB146F5FD15F
:101F9000ACF542718F42C2D1DCF8001021F0E07143
:101FA000214341F0807168E04FF60051CFF6FF7198
:101FB0005CF80110C907D8D0416D41F0200141659E
:101FC0000121002280F85020084601B0F0BD00BF7A
:101FD000ACF542718F42A2D1DCF8001042F6635298
:101FE00021F0E071C0F23E52214341F40001CCF8EF
:101FF000001040F21401C2F2004109688909A1FBF6
:1020000002129109022202EB41010091009900297C
:102010003FF485AF009901390091009900293FF400
:102020007EAF009901390091009900293FF477AF04
:10203000009901390091009900293FF470AF00998F
:1020400001390091009900294FF00001E2D1B8E771
:10205000ACF542718F424FF00001B2D10022CCF6B4
:10206000B872934208BF1EF48002AAD1DCF80010B7
:1020700021F0E071214341F48001CCF800104EE7DB
:1020800070470000000000007047000000000000E2
:10209000704700000000000070B582B004460028C0
:1020A0004FF0000001902DD0606D30B9204600F057
:1020B0001FF90020A06584F850002068816889001D
:1020C0004FF6C071C5F6FF7102D582680A40826082
:1020D0008268D20031D4826801F18051114042F609
:1020E000635241F08051816040F21401C0F23E52CF
:1020F000C2F2004109688909A1FB0212012101EB2A
:10210000921105E00126304602B070BD01990139F7
:102110000191019989B1019901390191019961B147
:10212000019901390191019900291FBF01990139D4
:102130000191019918BF0029E8D18168C90009D42B
:10214000616D012641F010016165A16D41F0010151
:10215000A16500E000268168626D02F0100201F0C6
:1021600004018918616D40F0918021F48171023180
:1021700061658168C90728D142F2001240F480717C
:10218000C4F20202914242F20001C4F2020140F0A4
:10219000A5808A68D1F808311A43D20715D101F514
:1021A000807201F5427346F2080C9042C5F6020CAB
:1021B0001A4618BF0CF54072884208BF1A4660687C
:1021C000116821F47C110843106002F071F941F2AA
:1021D000030100228842A068A0F1100188BF0122FB
:1021E000B1FA81F1237F49091140226B617D1546C7
:1021F00016BF4D034A031C20012B45EA034141EA67
:10220000020141EA000106D1206A0022CFF6FE72E7
:1022100002EB40400143606A20B100F47870A26A8A
:102220001043014320684CF20303CFF6F073C268F9
:102230001A401143C1608168826801F0040102F014
:102240000802891836D1217D44F20305E26AC36889
:1022500042EA813123EA05021143C16094F8381043
:10226000012901691AD14FF61E020125CFF600425D
:10227000CFF6FF751140D4E90F231943636C05EBCA
:1022800002421143A26C1943114309E041F01000CE
:1022900001266065304602B070BD00BF21F001012B
:1022A00001610169626B21F07041114301612046B7
:1022B000FEF7C6FA2068E1680129026B22F00F01DF
:1022C00002D1A269013A114301630121606D61F3FA
:1022D00001006065304602B070BD00BF46F20802E2
:1022E000C5F602021268D2073FF459AF6DE700004D
:1022F00070B58AB042F200130168C4F202030022F2
:1023000099420992CDE90722CDE90522CDE90322C0
:10231000CDE9012264D042F20002C4F202029142ED
:1023200040F08C8040F278060546C2F2004644F246
:10233000D840C5F602003168002901F10101316081
:1023400008D1016841F020010160016801F020011D
:10235000009100998168002441F00101816080684A
:1023600005A900F00100009000984020059003208E
:1023700006900020C5F60200079401F0B5FF304634
:102380002821C4F2020140F8041F0921C0E9011408
:10239000C4604FF4806101614FF4006141614FF40A
:1023A0000051C0E90614C0E9084401F061FA08B11F
:1023B000FFF77EF9062001A9CDE90104341D4FF491
:1023C0008070ADF80C0001200490204600F044FB22
:1023D00008B1FFF76DF9EC64F5630AB070BD00BF9A
:1023E00040F2780144F2D840C2F20041C5F6020042
:1023F0000A68002A02F101020A6008D1016841F06E
:1024000020010160016801F02001009100998168BC
:1024100041F0040181608068002100F00400009018
:10242000C5F60201009810200590032006900020B8
:10243000079001F5006005A901F056FF0AB070BDD4
:102440002DE9F04142F2001646F20834C4F20206C9
:10245000076806F50275C5F60204A6F58073B74253
:1024600008BF2C469F4208BF2C462368BF687F07E1
:1024700003D490F85070012F02D10220BDE8F08102
:1024800003F01F070123092F80F850305AD8BB40B2
:1024900040F221252B4255D00D4690460446FEF7CA
:1024A00023FB28B1002084F850000120BDE8F08112
:1024B0002168606D40F601732246984300F58070F4
:1024C00060650FB1B14203D0506D20F480105065AB
:1024D000506D40F66927C0044FF0000044BF906D76
:1024E00020F0060040F6E126C0F600079065C0F631
:1024F0000006D06C00231446C0E90F7640F6C927C9
:10250000D66AC0F60007C7641C270F6082F85030F7
:102510002A464B6843F010034B60CB6823F003035B
:102520003343CB604031434601F0D2FC21684FF683
:10253000C073C7F6FF738A681A4004328A60BDE828
:10254000F08100BF002180F850100120BDE8F0812B
:1025500070B5044690F85000012801D1022070BDEA
:1025600003212046012584F85050FEF701FA28B1D6
:10257000002084F85000284670BD00BF2168E06C40
:10258000CA6822F00302CA6090F83520022A3AD1C4
:1025900000F0CEFAB0B305462068616D41F040010D
:1025A0006165416821F01001416081688268D2074D
:1025B000DED011F00201DBD1816801F00D010129AB
:1025C0001ED14FF6C0728168C7F6FF72114002310A
:1025D00081600321016001F073FF21688968C907E8
:1025E000C6D0064603E000BF8068C007C0D001F037
:1025F00067FF801B03282068F6D38168C907F3D0E2
:10260000606D39E02168486820F0100048608868F3
:102610008A68D20717D010F0020014D1886800F041
:102620000D00012826D14FF6C0728868C7F6FF72E8
:102630001040023088600320086001F041FF2168EB
:102640008968C90708D1204641F20112002550F8D7
:10265000541F914316E000BF054602E08068C007A2
:10266000F1D001F02DFF401B03282068F6D38168CC
:10267000C907F3D0606D012540F010006065204669
:1026800050F8581F41F001010160002084F850000B
:10269000284670BD000000007047000000000000E8
:1026A00070470000000000007047000000000000BC
:1026B00000B34379012B4FF0020319D080B50371A9
:1026C00001F01001D0F800E04FF47C638B4042F041
:1026D0008002DEF800C002FA01F12CEA030319437C
:1026E0000023CEF80010012101714371BDE8804044
:1026F00018467047012070472DE9F0410446002834
:102700004FF0010018BF002902D1BDE8F08100BFE1
:10271000607901284FF0020008BFBDE8F081012375
:1027200063712071086804281ED10F46154601F018
:10273000C7FE2368A846002D0546586B24D0B0F18B
:10274000FF3F06DD3946B86958643AE0586B002807
:10275000F8D501F0B5FE401B23680228F6D3586B6C
:10276000B0F1FF3FF2DC21E023680869012843D182
:1027700002F010021F27986B97404E69B84306FA83
:1027800002F73843986339E048F20006C2F20006C7
:1027900001E000BF586B304210D001F091FE401BA9
:1027A00023680228F6D3586B3042F3D0206940F0FA
:1027B0000800206103202071BDE8F0813946B86926
:1027C000186408F0100040F2FF379E6C8740D1E992
:1027D000075C26EA070705FA00F637439F64FF27E0
:1027E000DE6C8740424626EA07070CFA00F03843C1
:1027F000D86408690128BBD002F010020727D86B03
:10280000CE689740012E20EA070C4FF0000003D05D
:10281000022E03D1012605E0002603E08E68B6FAF9
:1028200086F676090D688F682E43374349689740CE
:1028300047EA0C07DF634FF480471E68974026EA9B
:1028400007071F6040F6FE771E68974026EA0707D5
:10285000914039431960C02191401A6822EA010170
:102860001960012121716071BDE8F0810000000054
:1028700070470000000000007047000000000000EA
:10288000704700000000000090B1017941B910B517
:1028900000214171044600F00FF82046BDE81040C9
:1028A0000221017100210161012202710846704775
:1028B000012070470000000070B586B047F200416B
:1028C00004460068C4F2000100268842CDE904668F
:1028D00003960296019601D006B070BD44F2E04026
:1028E000C5F60200816841F000518160816801F005
:1028F000005100910099016841F0010101600068F8
:1029000001A900F001000090009830200190032000
:10291000CDE902060020C5F6020001F0E5FC46F212
:1029200098051020C2F20245C4F20200286043203C
:1029300068604020C5E902064FF4806028614FF4CA
:10294000006068614FF40050A8614FF480706E62BF
:10295000C5E90706284600F08BFF08B1FEF7A8FE80
:10296000A560AC6306B070BDB0B384464079012861
:102970004FF0020008BF7047F0B581B0069C0F46CB
:102980004FF001068CF805608CF8040031B3DCF8D8
:102990000C0041F2691141F2B116C0F60001C0F617
:1029A0000006042CC0E90F1641F29116DCF8001065
:1029B000C0F60006C6644FF01C06654608BF182620
:1029C000002C0C6808BF142644F080540C6001EB06
:1029D000060C4FF0005424E001207047DCF808009A
:1029E00041F2591141F2A91541F27916C0F60001E0
:1029F000C0F60005C0E90F15C0F60006DCF80010AF
:102A0000C6641026042C654608BF0C26002C0C68F2
:102A100008BF082644F480540C6001EB060C4FF408
:102A200000540E6826430E601146624601F050FACB
:102A30004FF00001697118B105F11001042204E0A2
:102A400007F0100101228A4029680B681A430A60C6
:102A500001B0BDE8F040704770B50A7A012A0DD187
:102A6000D1E9003C4FEA036E90F83530012B0DD0D0
:102A70004FF400614165012070BD00BF4FF0000EB2
:102A80004FF0000C90F83530012BF1D190F8343034
:102A9000012B01D1022070BD036E00264EEA0242D6
:102AA000CFF6F8761C6842EA0C0224F481341C60EC
:102AB0001C68CD68E4B2497A06EBC546224332432E
:102AC00042EA41211960002180F83410002070BDD5
:102AD00010B5D0E9192311680B4211D0046ED0F85B
:102AE0004CC0BCF1000F216821F48071216053605B
:102AF000416D41F40071416502D00446E047204633
:102B0000C16E99B1D0E91C231468234208BF10BDDF
:102B10000C6824F480740C605360416D41F4806152
:102B20004165C16C11B1BDE81040084710BD0000FF
:102B30002DE9F041044601F0C3FC1CB3054694F8AE
:102B40003500022822D140F20F472668C4F202075E
:102B500040F26F48BE426FF00E00C4F202081DDC66
:102B60006F21C4F202018E422ADC3F21C4F202012D
:102B70008E4241DC1021C4F202018E4263D0282132
:102B80005CE000BF0120BDE8F08100BF80206065EF
:102B90000120002184F83410BDE8F08146451BDC9B
:102BA00040F23F41C4F202018E422DDC40F210415E
:102BB000C4F202018E4246D040F228413EE000BFFE
:102BC0009F21C4F202018E4228DC7021C4F202016E
:102BD0008E4238D0882131E040F29F41C4F2020198
:102BE0008E4223DC40F27041C4F202018E422AD0B0
:102BF00040F2884122E000BF4021C4F202018E422F
:102C000021D058211AE000BF40F24041C4F2020135
:102C10008E4218D040F2584110E000BFA021C4F20B
:102C200002018E420FD0B82108E000BF40F2B84147
:102C3000C4F202018E4206D040F2A041C4F2020169
:102C40008E42314607D13146306820F01E0041F8EF
:102C5000140B6FF080000A68464500EA0200086025
:102C60001ADC9F20C4F20200864233DC5720C4F2F3
:102C7000020086425ADC1020C4F20200864200F0B4
:102C800097802820C4F20200864200F09180402004
:102C9000C4F202008AE000BF45F22F40C5F60200F0
:102CA00086422DDC40F2B740C4F2020086424BDC83
:102CB00040F27040C4F20200864279D040F288406F
:102CC000C4F20200864273D040F2A040C4F2020077
:102CD0006CE000BF40F22740C4F20200864243DCB1
:102CE000A020C4F20200864262D0B820C4F20200E2
:102CF00086425DD040F21040C4F2020056E000BFB0
:102D000045F26B40C5F6020086423FDC45F230409A
:102D1000C5F6020086424BD045F24440C5F602009B
:102D2000864245D045F258403EE000BF5820C4F2EC
:102D3000020086423CD07020C4F20200864237D0A6
:102D40008820C4F2020031E040F2B840C4F2020030
:102D500086422DD045F20840C5F60200864227D0B3
:102D600045F21C4020E000BF40F22840C4F20200BF
:102D700086421DD040F24040C4F20200864217D085
:102D800040F25840C4F2020010E000BF45F26C402F
:102D9000C5F6020086420BD045F29440C5F602000B
:102DA000864205D045F28040C5F60200864204D135
:102DB000206E016821F480710160306820F001000C
:102DC000306000BF3068C00710D001F079FB401BB5
:102DD0000628F7D320206065032084F83500012001
:102DE000002184F83410BDE8F08100BF206808217C
:102DF000B8424FF03F0211DC6F23C4F20203984245
:102E00001EDC3F23C4F20203984235DC1023C4F2D7
:102E10000203984257D0282350E000BF40451BDCF6
:102E200040F23F43C4F2020398422DDC40F21043CB
:102E3000C4F20203984246D040F228433EE000BF6D
:102E40009F23C4F20203984228DC7023C4F20203D9
:102E5000984238D0882331E040F29F43C4F2020305
:102E6000984223DC40F27043C4F2020398422AD015
:102E700040F2884322E000BF4023C4F2020398429C
:102E800021D058231AE000BF40F24043C4F20203AD
:102E9000984218D040F2584310E000BFA023C4F27B
:102EA000020398420FD0B82308E000BF40F2A043CD
:102EB000C4F20203984206D040F2B843C4F20203BF
:102EC000984240F0C580D4E9163707F01F07404507
:102ED00002FA07F25A5019DC9F21C4F2020188421B
:102EE00032DC5721C4F20201884259DC1021C4F2BD
:102EF0000201884200F096802821C4F20201884233
:102F000000F090804021C4F2020189E045F22F4197
:102F1000C5F6020188422DDC40F2B741C4F202013D
:102F200088424BDC40F27041C4F20201884279D001
:102F300040F28841C4F20201884273D040F2A041BD
:102F4000C4F202016CE000BF40F22741C4F202016A
:102F5000884243DCA021C4F20201884262D0B82139
:102F6000C4F2020188425DD040F21041C4F2020175
:102F700056E000BF45F26B41C5F6020188423FDCD6
:102F800045F23041C5F6020188424BD045F244413A
:102F9000C5F60201884245D045F258413EE000BFE7
:102FA0005821C4F2020188423CD07021C4F20201CF
:102FB000884237D08821C4F2020131E040F2B841A2
:102FC000C4F2020188422DD045F20841C5F6020143
:102FD000884227D045F21C4120E000BF40F2284142
:102FE000C4F2020188421DD040F24041C4F2020105
:102FF000884217D040F25841C4F2020110E000BFED
:1030000045F26C41C5F6020188420BD045F294416D
:10301000C5F60201884205D045F28041C5F602019D
:1030200088420BD1616EA26EE06E4A6030B10168D9
:1030300021F480710160D4E91C014160012084F811
:1030400035000020002184F83410BDE8F08100BF75
:103050000421012237E700002DE9F04782B000216A
:10306000019140F2140148F2B513C2F20041C1F6D9
:103070004E33856D40F26F490A680168C4F2020957
:103080002E68A2FB032849452A6815DC9F22C4F25A
:10309000020291422CDC5722C4F20202914251DC1E
:1030A0001022C4F2020291427BD02822C4F2020212
:1030B000914276D040226FE045F22F43C5F60203DD
:1030C000994229DC40F2B743C4F20203994245DC3D
:1030D00040F27042C4F20202914262D040F2884251
:1030E000C4F2020291425CD040F2A04254E000BF20
:1030F00040F22742C4F2020291423FDCA022C4F215
:10310000020291424DD0B822C4F20202914248D04C
:1031100040F2104240E000BF45F26B43C5F60203A7
:10312000994275DC45F23043C5F60203994200F03E
:10313000828045F24443C5F6020399427BD045F2B2
:10314000584373E05822C4F20202914229D07022FF
:10315000C4F20202914224D088221DE040F2B8431A
:10316000C4F2020399421CD045F20843C5F602039B
:10317000994260D045F21C4358E000BF40F228421B
:10318000C4F2020291420CD040F24042C4F2020268
:10319000914206D040F25842C4F20202914240F0FD
:1031A0005383C26D082302F01F0240F20F4A93407E
:1031B000C4F2020A334200F0DE8051454FF00404AD
:1031C00012DC6F27C4F20207B9426DDC3F27C4F25C
:1031D0000207B94200F39C801027C4F20207B942EB
:1031E00000F0BD802827B5E0494569DC40F23F4743
:1031F000C4F20207B94200F3938040F21047C4F2D0
:103200000207B94200F0AB8040F22847A2E000BFBD
:1032100045F26C43C5F6020399420CD045F2804357
:10322000C5F60203994206D045F29443C5F602035F
:10323000994240F009830B68C76D07F01F07042609
:10324000BE40164218BF13F0040423D10226BE402C
:10325000164218BF13F0020442D1FA40120740F19F
:10326000F38213F0080200F0EF820A6822F00E02E7
:103270000A60012101FA07F26A60416580F83510A1
:10328000C16C00294FF0000280F8342040F0D88251
:10329000DAE200BF1A046E6034D49A0636D40A68A3
:1032A00022F004020A6031E09F27C4F20207B9420B
:1032B00040DC7027C4F20207B94250D0882749E0A9
:1032C00040F29F47C4F20207B9423BDC40F270472C
:1032D000C4F20207B94242D040F288473AE000BF48
:1032E0001A046E6000F1B4829A0600F1B5820A6891
:1032F00022F00A020A60012180F83510002180F8CE
:103300003410A9E2D90301D4816C98E2016C96E2F1
:103310004027C4F20207B94221D058271AE000BF63
:1033200040F24047C4F20207B94218D040F2584771
:1033300010E000BFA027C4F20207B9420FD0B8279F
:1033400008E000BF40F2A047C4F20207B94206D02D
:1033500040F2B847C4F20207B94218BF08240F6808
:10336000274208D00F6827F004070F60AB60436D59
:1033700043F0010343650123934033426FD051452D
:1033800010DC6F27C4F20207B9421DDC3F27C4F2EC
:103390000207B94234DC1027C4F20207B94256D002
:1033A00028274FE049451BDC40F23F47C4F20207A3
:1033B000B9422DDC40F21047C4F20207B94246D0B0
:1033C00040F228473EE000BF9F27C4F20207B942FF
:1033D00028DC7027C4F20207B94238D0882731E0D0
:1033E00040F29F47C4F20207B94223DC40F2704723
:1033F000C4F20207B9422AD040F2884722E000BF57
:103400004027C4F20207B94221D058271AE000BF72
:1034100040F24047C4F20207B94218D040F2584780
:1034200010E000BFA027C4F20207B9420FD0B827AE
:1034300008E000BF40F2A047C4F20207B94206D03C
:1034400040F2B847C4F20207B94240F007824F6920
:103450003F0604D5AB60436D43F00203436504238C
:10346000934033426FD0514510DC6F27C4F20207FE
:10347000B9421DDC3F27C4F20207B94234DC1027F1
:10348000C4F20207B94256D028274FE049451BDC59
:1034900040F23F47C4F20207B9422DDC40F2104728
:1034A000C4F20207B94246D040F228473EE000BFCE
:1034B0009F27C4F20207B94228DC7027C4F2020732
:1034C000B94238D0882731E040F29F47C4F2020762
:1034D000B94223DC40F27047C4F20207B9422AD055
:1034E00040F2884722E000BF4027C4F20207B942F9
:1034F00021D058271AE000BF40F24047C4F202072B
:10350000B94218D040F2584710E000BFA027C4F2DB
:103510000207B9420FD0B82708E000BF40F2A04729
:10352000C4F20207B94206D040F2B847C4F202071B
:10353000B94240F09B810F68BF0704D5AB60436D73
:1035400043F004034365102303FA02F2324200F011
:10355000828051454FF0080310DC6F27C4F2020748
:10356000B9421DDC3F27C4F20207B94234DC102700
:10357000C4F20207B94256D028274FE049451BDC68
:1035800040F23F47C4F20207B9422DDC40F2104737
:10359000C4F20207B94246D040F228473EE000BFDD
:1035A0009F27C4F20207B94228DC7027C4F2020741
:1035B000B94238D0882731E040F29F47C4F2020771
:1035C000B94223DC40F27047C4F20207B9422AD064
:1035D00040F2884722E000BF4027C4F20207B94208
:1035E00021D058271AE000BF40F24047C4F202073A
:1035F000B94218D040F2584710E000BFA027C4F2EB
:103600000207B9420FD0B82708E000BF40F2A04738
:10361000C4F20207B94206D040F2B847C4F202072A
:10362000B94218BF04230F681F4214D0AA600A6869
:1036300052030A6808D4D20508D40A6822F00802A6
:103640000A60016C21B906E0110351D4016C11B17B
:10365000044688472046C16D01F01F02202101FA6F
:1036600002F3334200F0AF8001681027514511DCAE
:103670006F26C4F20206B1421EDC3F26C4F20206E7
:10368000B14239DC1026C4F20206B1425BD02826D2
:1036900054E000BF49451BDC40F23F46C4F202063D
:1036A000B14231DC40F21046C4F20206B1424AD0C7
:1036B00040F2284642E000BF9F26C4F20206B14213
:1036C0002CDC7026C4F20206B1423CD0882635E0DC
:1036D00040F29F46C4F20206B14227DC40F2704637
:1036E000C4F20206B1422ED040F2884626E000BF66
:1036F000816C0029ACD1AEE74026C4F20206B1428B
:1037000021D058261AE000BF40F24046C4F202061B
:10371000B14218D040F2584610E000BFA026C4F2D3
:103720000206B1420FD0B82608E000BF40F2A04622
:10373000C4F20206B14206D040F2B846C4F2020614
:10374000B14218BF02270E683E423CD0AB6090F8F1
:103750003530042B0B681DD123F016030B604B6929
:1037600023F080034B61036C0BB9836C1BB10B68B6
:1037700023F008030B603F219140A960012180F8EC
:103780003510016D00294FF0000280F8342057D128
:103790005AE000BF5A030A680CD4D2050ED40A6856
:1037A00022F010020A60012180F83510002180F813
:1037B000341003E0110301D4416C00E0C16B11B17E
:1037C000044688472046416D00293DD0416DC90718
:1037D00034D0042180F8351001684FEA98220B6834
:1037E00023F001030B60019B0133019393421AD82C
:1037F0000B68DB0717D0019B01330193934212D86A
:103800000B68DB070FD0019B0133019393420AD869
:103810000B68DB0707D0019B01330193934202D869
:103820000B68DB07DFD10968C9074FF0030108BF48
:10383000012180F83510002180F83410C16C19B1D5
:1038400002B0BDE8F047084702B0BDE8F08700BF0E
:10385000D90301D4416CF2E7C16BF0E70B68042394
:10386000934033427FF4FFAD6DE600BF0B686AE61C
:103870002DE9F041044600F023FEFCB140F26F4810
:1038800005462068C4F2020840451BDC9F21C4F2B3
:103890000201884232DC5721C4F20201884259DC1D
:1038A0001021C4F20201884200F083802821C4F272
:1038B0000201884200F07D80402175E00120BDE8D2
:1038C000F08100BF45F22F41C5F60201884229DC94
:1038D00040F2B741C4F20201884247DC40F2704135
:1038E000C4F20201884264D040F28841C4F202016D
:1038F00088425ED040F2A04156E000BF40F227412E
:10390000C4F20201884241DCA021C4F202018842D3
:103910004FD0B821C4F2020188424AD040F210418F
:1039200042E000BF45F26B41C5F60201884200F358
:10393000B38045F23041C5F60201884200F0BF80F5
:1039400045F24441C5F60201884200F0B88045F2D4
:103950005841AFE05821C4F20201884229D07021B9
:10396000C4F20201884224D088211DE040F2B8410F
:10397000C4F2020188421CD045F20841C5F602019A
:10398000884200F09C8045F21C4193E040F22841BF
:10399000C4F2020188420CD040F24041C4F202015C
:1039A000884206D040F25841C4F20201884240F0F9
:1039B0001B81022184F83510002184F8341001683D
:1039C00021F00101016000BF20680168C9070DD026
:1039D00000F076FD401B0628F6D32020606503200A
:1039E00084F835000120BDE8F08100BF48F23F02B5
:1039F00004F108060168CFF61062114065694CCEEB
:103A00001143A2691943E3693143266A0D43616A90
:103A10002B43042943EA060343EA020303D1D4E912
:103A20000B652E43334341F20006C5F60046366867
:103A3000B6F1005F0FD36568A5F129061F2E00F2CD
:103A400035820127B7403F26CCF2C036374200F01E
:103A50002D8243F4801303600429436923F0070394
:103A600041EA030140F0DC80D4E90A53002B41EA2B
:103A7000050100F0D580B2F5005F00F0B780002AA4
:103A800040F0C080022D00F0C080012D00F0B48015
:103A9000002D00F0BA80C3E045F26C41C5F602018A
:103AA00088420CD045F28041C5F60201884206D01A
:103AB00045F29441C5F60201884240F0958004F138
:103AC000080E022184F83510002184F834100168B2
:103AD000A3699EE80450A2F18005E769B5FA85F56F
:103AE00066696D09402A4FEA853543EA07026FF39C
:103AF000101142EA060208BF102541EADC0142EA41
:103B00000E02236A294341EAD20141EA131140F827
:103B10000819C0B2CD2148433C2101EA9020E0655C
:103B20002046FDF761FBE16D012201F01F0102FA61
:103B300001F141602068404500F381809F21C4F27B
:103B40000201884214DC5721C4F20201884227DCBA
:103B50001021C4F20201884200F0C7802821C4F27B
:103B60000201884200F0C1804021C4F20201B9E0A4
:103B700040F22741C4F20201884221DCA021C4F2B4
:103B80000201884200F0B180B821C4F202018842EB
:103B900000F0AB8040F21041C4F20201A2E000BF8D
:103BA0005821C4F20201884200F09F807021C4F2C3
:103BB0000201884200F099808821C4F2020191E05C
:103BC00040F22841C4F20201884200F08E8040F2A7
:103BD0004041C4F20201884200F0878040F258411F
:103BE000C4F202017EE000BF4020F7E6032D17D8A3
:103BF000DFE805F00E0B0E02A3F1C072B2FA82F2FA
:103C0000520904E0032D03D30AD1C3F300623AB191
:103C100040206065012084F83500BDE8F08100BFD8
:103C200041612046FDF7E0FAE16D3F2201F01F01FE
:103C300002FA01F18160206840457FF77FAF45F2CD
:103C40002F41C5F60201884216DC40F2B741C4F2AA
:103C50000201884226DC40F27041C4F2020188422F
:103C600043D040F28841C4F2020188423DD040F284
:103C7000A041C4F2020135E045F26B41C5F60201F4
:103C800088421FDC45F23041C5F6020188422CD043
:103C900045F24441C5F60201884226D045F258411A
:103CA0001EE000BF40F2B841C4F2020188421CD0BD
:103CB00045F20841C5F60201884216D045F21C4182
:103CC0000EE000BF45F26C41C5F6020188420CD0FF
:103CD00045F29441C5F60201884206D045F2804182
:103CE000C5F60201884240F0D98045F2574C45F6AE
:103CF000FC0EC5F6020CC5F6020E60450EDC45F260
:103D00002F41C5F60201884218DC45F20841C5F68C
:103D10000201884228D045F21C4121E045F27F4152
:103D2000C5F60201884213DC45F25841C5F602018E
:103D3000884219D045F26C4112E000BF45F2304193
:103D4000C5F6020188420FD045F2444108E000BFA9
:103D500045F29441C5F60201884205D045F2804102
:103D6000C5F60201884247D100F0FC014CF6CD4275
:103D70000839CCF6CC42A1FB0212AEF1FC05AEF143
:103D80007C061309A26803F01F01802A4FF001028C
:103D900005EB8305256602FA01F26666A26605D187
:103DA00000206060286072601EE000BF6368D9B2C6
:103DB0005F1E072F2960726016D84E1E082E19D27A
:103DC00060450EF1440237DC45F22F41C5F6020191
:103DD000884241DC45F20841C5F60201884251D0D3
:103DE00045F21C414AE000BF00206067C4E91B00A7
:103DF00054E000BFE06E4CE000F0F8014AF6AB2260
:103E00001039CAF6AA22A1FB021240F20F43C4F2F3
:103E1000020308251109984203F1AA060B4688BF40
:103E200005EB121340F60005B042C4F2020505F19D
:103E3000800628BF0B46A5E745F27F41C5F6020183
:103E4000884213DC45F25841C5F60201884219D078
:103E500045F26C4112E000BF45F23041C5F6020167
:103E600088420FD045F2444108E000BF45F280414E
:103E7000C5F60201884205D045F29441C5F602011B
:103E800088421BD10EEB83000121E066B14022671E
:103E9000616700210160D4E91C0141600020606578
:103EA000012184F83510BDE8F08100BFA5F14F076E
:103EB000042F38BF43F48013CDE500BF40F6000067
:103EC000C4F2020000F1FC0E00F5A072DAE7000077
:103ED00030B110B590F83440012C03D1022010BD50
:103EE00001207047012480F8344090F83540012CBF
:103EF0002CD1022480F8354000244465D0F800C05D
:103F0000DCF8004024F00104CCF800400446FDF742
:103F1000FFF940F20F4C2068C4F2020C40F26F41EE
:103F20006045C4F2020119DC6F23C4F20203984217
:103F300026DC3F23C4F2020398423DDC1023C4F286
:103F4000020398425FD0282358E000BF4FF400617D
:103F50004165002180F83410012010BD88421BDC2F
:103F600040F23F43C4F2020398422DDC40F210437A
:103F7000C4F20203984246D040F228433EE000BF1C
:103F80009F23C4F20203984228DC7023C4F2020388
:103F9000984238D0882331E040F29F43C4F20203B4
:103FA000984223DC40F27043C4F2020398422AD0C4
:103FB00040F2884322E000BF4023C4F2020398424B
:103FC00021D058231AE000BF40F24043C4F202035C
:103FD000984218D040F2584310E000BFA023C4F22A
:103FE000020398420FD0B82308E000BF40F2B84364
:103FF000C4F20203984206D040F2A043C4F2020386
:10400000984240F02F8103680B2262F3440303605F
:10401000226C1AB1082302681A430260884219DC34
:104020009F22C4F20202904232DC5722C4F2020202
:10403000904259DC1022C4F20202904200F09680B5
:104040002822C4F20202904200F090804022C4F282
:10405000020289E045F22F42C5F6020290422DDCB1
:1040600040F2B742C4F2020290424BDC40F270428E
:10407000C4F20202904279D040F28842C4F20202B5
:10408000904273D040F2A042C4F202026CE000BF42
:1040900040F22742C4F20202904243DCA022C4F262
:1040A0000202904262D0B822C4F2020290425DD075
:1040B00040F21042C4F2020256E000BF45F26B42E9
:1040C000C5F6020290423FDC45F23042C5F60202DC
:1040D00090424BD045F24442C5F60202904245D090
:1040E00045F258423EE000BF5822C4F2020290421C
:1040F0003CD07022C4F20202904237D08822C4F22F
:10410000020231E040F2B842C4F2020290422DD0E5
:1041100045F20842C5F60202904227D045F21C4201
:1041200020E000BF40F22842C4F2020290421DD0BB
:1041300040F24042C4F20202904217D040F258428C
:10414000C4F2020210E000BF45F26C42C5F6020262
:1041500090420BD045F29442C5F60202904205D03F
:1041600045F28042C5F60202904274D1236E1A686D
:10417000D20303D51A6842F480721A60E36E1BB151
:104180001A6842F480721A60604511DC6F21C4F233
:10419000020188421EDC3F21C4F20201884235DC64
:1041A0001021C4F20201884255D0282150E000BFFE
:1041B00088421BDC40F23F41C4F2020188422DDC00
:1041C00040F21041C4F20201884244D040F228413A
:1041D0003EE000BF9F21C4F20201884228DC70212A
:1041E000C4F20201884236D0882131E040F29F417A
:1041F000C4F20201884223DC40F27041C4F20201A1
:10420000884228D040F2884122E000BF4021C4F219
:10421000020188421FD058211AE000BF40F24041FD
:10422000C4F20201884216D040F2584110E000BFAB
:10423000A021C4F2020188420DD0B82108E000BFDD
:1042400040F2B841C4F20201884204D040F2A041D9
:10425000C4F202018842016841F0010101600020BE
:1042600010BD00BF0268052363F343020260226CA5
:10427000002A3FF4D3AE0423CDE600000000000086
:10428000B0B5044600F01CF940F20C010546C2F23C
:104290000041621C097818BF0C4400BF00F010F9FF
:1042A000401BA042FAD3B0BDB0F5807F18BF704765
:1042B00088204FF48071C5F60000016040F21C00B8
:1042C000C2F200408021A0F84410704700000000B6
:1042D0008821C5F600010A68024208BF70470860DD
:1042E000FFF7E2BF000000002DE9F04F83B00F6838
:1042F000002F00F0C98000F1264642F2004506F189
:10430000FF76C5F602050A22A8424FEAB62540F21A
:10431000040C08BF092200F120030093092DC5F603
:10432000000C38BF4FEAB622002400264FF00008E8
:1043300001920AE008F101080F6837FA08F206F165
:10434000020604F1040400F09F80012202FA08FE34
:1043500017EA0E09EED0D1F804B003220BF00307E0
:10436000B2407D1E6FEA020A012D11D88268CD6825
:1043700002EA0A02B5402A438260CBF30015426884
:1043800022EA0E0205FA08F52A43426004E000BF63
:10439000032F01D103271FE0C2688D6802EA0A02D9
:1043A000B540022F42EA0502C26015D16FF0030248
:1043B00004F01C0502EA580B009A0F2352F80BE098
:1043C000AB400F692EEA0303AF403B4342F80B308A
:1043D000D1F804B00BF00307026807FA06F302EA0B
:1043E0000A021BF4403F42EA03020260A2D044F2F8
:1043F000F44340F2084EC5F60203C5F6000E0F2541
:104400001A6842F002021A601A6802F0020202926E
:1044100028F00302029B04F00C0352F80E709D403A
:10442000AF43019D05FA03F33B4342F80E304FF0D2
:10443000B04EDEF800204B6842EA0907DD0258BFA3
:1044400022EA09079D02CEF80070DCF8002042EA5B
:10445000090758BF22EA09079D03CCF80070DCF871
:10446000802042EA090758BF22EA0907DB03CCF89B
:104470008070DCF87C2042EA090758BF22EA09076D
:10448000CCF87C7056E700BF03B0BDE8F08F0000A9
:104490000069084018BF01207047000000000000BC
:1044A000002A08BF09048161704700000000000075
:1044B00041F20000C5F600400068000C70470000A3
:1044C00046F2D030C2F2024000687047000000009F
:1044D00090F84120202A03D190F84020012A01D1F0
:1044E00002207047242280F841200268136823F0DC
:1044F00001031360136823F4805313601368194396
:104500001160116841F001011160202180F8411013
:10451000002180F8401000207047000000000000DB
:1045200090F84120202A03D190F84020012A01D19F
:1045300002207047242280F841200268136823F08B
:1045400001031360136823F4706343EA01211160CF
:10455000116841F001011160202180F84110002113
:1045600080F840100020704710B310B590F841104B
:1045700031B9002180F84010044600F04DF8204683
:10458000242180F8411090E81210C3680A68012BBA
:1045900022F001020A6024F070620A618A6822F443
:1045A00000428A6006D14CF400428A600CE000BFF1
:1045B00001207047022B4CF404428A6004D14A68FF
:1045C00042F4006203E000BF4A6822F400624A60DD
:1045D00000F1100C4A6842F0007242F400424A6056
:1045E000CA6822F40042CA609CE81C101A4342EADE
:1045F0000422CA60026A42EA0C020A600A6842F0B7
:1046000001020A6000214164202280F841200163F8
:1046100080F84210002010BDB0B5B8B0044602A822
:104620000830B82100253395CDE93655CDE934550C
:10463000FBF786FE45F200412068C4F20001884283
:1046400002D038B0B0BD00BF0820029002A8039588
:1046500000F06AFD08B1FDF72BF844F2E04433A9FD
:10466000C5F60204206840F002002060206800F0D7
:10467000020001900198C020339012203490002055
:10468000CDE935000420379040F20040C5F6020025
:10469000FFF72AFEA06840F40010A060A06800F4B4
:1046A00000100190019838B0B0BD0000000000007B
:1046B00040F20C0046F2D031C2F20040C2F2024198
:1046C00000780A681044086070470000000000008D
:1046D00080B5032000F010F901F062FC44F21841AB
:1046E0004DF6B813C5F60201C0F600030A68C2F31E
:1046F00003229A5C096801F00F0102F01F02595C65
:10470000D04040F21802C2F2004201F01F0120FA2C
:1047100001F1116040F21401C2F2004108600F2063
:1047200000F00AF800281CBF012080BD00F07CF8D2
:10473000002080BD00000000B0B540F20C05C2F2C0
:1047400000452978F1B1044640F21400C2F200405D
:104750004FF47A72B2FBF1F10068B0FBF1F002F0B5
:1047600037F80F2C01464FF001000AD8002918BF76
:10477000B0BD4FF0FF300022214600F08DF8002040
:104780006C60B0BD0120B0BD10B54EF6A05E4378A0
:10479000CEF2000E90F800C04EF8083CDEF8003073
:1047A00023F00103CEF8003043684EF8043C037B4D
:1047B000C27A817A447B120642EA0372837B42EA20
:1047C000C141C27B41EA8441447A41EA4341007AD3
:1047D00041EA024141EA042141EA400040EA0C007A
:1047E000CEF8000010BD00004EF62450CEF20000BE
:1047F000BFF35F8F016821F4803101600021016700
:1048000070470000000000004EF6245140F0010007
:10481000CEF200010867086840F480300860BFF3FA
:104820004F8FBFF36F8F704780B582B044F2F44072
:10483000C5F60200016841F002010160016801F063
:10484000020101910199016841F400410160006891
:1048500000F4004000900098002001F0ADFF01F04E
:1048600087FF002002B0BDE8804001F099BF000042
:10487000002848BF704700F01F01012202FA01F131
:104880004EF20012C0F34A10CEF2000242F820109D
:10489000704700000000000070B54EF60C5C4FF051
:1048A000FF36CEF2000C00F1604505F56445DCF8FA
:1048B0000030C3F3022E8EF00703042B28BF04231D
:1048C000BEF1030406FA03F321EA030100F00F032B
:1048D00038BF0024043B0028634406FA04F048BFB4
:1048E00003F10C05A14022EA0000084300012870F2
:1048F00070BD0000000000004EF60C514FF6FF03A3
:10490000CEF200010A681A4060F30A2242F0806089
:1049100040F0FD7008607047B0B544F60C05C5F670
:10492000020529684907296806D401F00701081A19
:1049300018BF0120B0BD00BF21F007010843286067
:10494000FFF7BEFD044600BF55F8080C800407D4ED
:10495000FFF7B6FD001BB0F57A7FF5D90120B0BD99
:104960000020B0BD0000000080B501F091FA44F2D3
:1049700020414DF6B812C5F60201C0F600020968E2
:10498000C1F30211515C01F01F01C84080BD00005D
:1049900080B544F2304EC5F6020E5EF8083C5EF873
:1049A000081CC1F3051C5EF8041CBCF1000FDEF806
:1049B000042019D001F00101494201EAD20103F0BB
:1049C00003026FF35F31022A00EE101AB8EE400ABC
:1049D00014D0012A0ED01AB95EF8301C890611D401
:1049E0009FED361A1CE000BF00218160C0E9001174
:1049F00080BD00BF9FED2F1A12E000BF9FED2E1A61
:104A00000EE000BF5EF8301C49F20002C0F2D03266
:104A1000C1F3C10122FA01F101EE101AB8EE411AF8
:104A2000DEF800109FED263A6FF35F2102EE101AB8
:104A3000DEF80010C1F34621B8EE422A00EE032A48
:104A400000EE10CAB7EE003AB8EE400A81EE000A56
:104A500032EE031A02EE101AB8EE422A20EE010AD4
:104A600032EE031A80EE011ABCEEC11A80ED001A74
:104A7000DEF80010C1F3064101EE101AB8EE411A3B
:104A800031EE031A80EE011ABCEEC11A80ED011A54
:104A9000DEF80010C1F3066101EE101AB8EE411AFB
:104AA00031EE031A80EE010ABCEEC00A10EE101AB5
:104AB000816080BD0024744A20BCBE4B0024744C2D
:104AC000000000390000000080B544F2384EC5F601
:104AD000020E5EF8103C5EF8101C5EF80C2CC1F360
:104AE000053CDEF80410BCF1000F15D0C908D20651
:104AF00001EAE2716FF35F3100EE101A03F0030177
:104B00000229B8EE400A0DD081B95EF8381C89063A
:104B100010D49FED361A1BE000218160C0E900111E
:104B200080BD00BF9FED301A12E000BF9FED2D1A2F
:104B30000EE000BF5EF8381C49F20002C0F2D0322D
:104B4000C1F3C10122FA01F101EE101AB8EE411AC7
:104B5000DEF800109FED263A6FF35F2102EE101A87
:104B6000DEF80010C1F34621B8EE422A00EE032A17
:104B700000EE10CAB7EE003AB8EE400A81EE000A25
:104B800032EE031A02EE101AB8EE422A20EE010AA3
:104B900032EE031A80EE011ABCEEC11A80ED001A43
:104BA000DEF80010C1F3064101EE101AB8EE411A0A
:104BB00031EE031A80EE011ABCEEC11A80ED011A23
:104BC000DEF80010C1F3066101EE101AB8EE411ACA
:104BD00031EE031A80EE010ABCEEC00A10EE101A84
:104BE000816080BD0024744A20BCBE4B0024744CFC
:104BF000000000390000000080B544F2404EC5F6C8
:104C0000020E5EF8183C5EF8181C5EF8142CC1F316
:104C1000055CDEF80410BCF1000F15D0C908D20500
:104C200001EAE2716FF35F3100EE101A03F0030145
:104C30000229B8EE400A0DD081B95EF8401C890601
:104C400010D49FED361A1BE000218160C0E90011ED
:104C500080BD00BF9FED301A12E000BF9FED2D1AFE
:104C60000EE000BF5EF8401C49F20002C0F2D032F4
:104C7000C1F3C10122FA01F101EE101AB8EE411A96
:104C8000DEF800109FED263A6FF35F2102EE101A56
:104C9000DEF80010C1F34621B8EE422A00EE032AE6
:104CA00000EE10CAB7EE003AB8EE400A81EE000AF4
:104CB00032EE031A02EE101AB8EE422A20EE010A72
:104CC00032EE031A80EE011ABCEEC11A80ED001A12
:104CD000DEF80010C1F3064101EE101AB8EE411AD9
:104CE00031EE031A80EE011ABCEEC11A80ED011AF2
:104CF000DEF80010C1F3066101EE101AB8EE411A99
:104D000031EE031A80EE010ABCEEC00A10EE101A52
:104D1000816080BD0024744A20BCBE4B0024744CCA
:104D2000000000390000000010B584B0024641F6D2
:104D3000FF7300209B1A70EB010329DB40F2FF3365
:104D40009B1A70EB01034FDA82F480630B4300F08F
:104D5000E18082F400630B4300F00E8182F4805204
:104D6000114340F0B68144F20041C5F60201086DDE
:104D7000C0F30232042A00F25E8148F20000C0F261
:104D8000BB00DFE812F00B011D012701A601350170
:104D900047F6FF739B1A70EB010351DA82F400436C
:104DA0000B4300F0D78082F480330B4300F0F8808F
:104DB00082F40022114340F08C8144F20040C5F699
:104DC0000200816D01F44031B1F5003F00F04481F3
:104DD000B1F5803F00F03681002940F02C81006859
:104DE000000100F1F08026E182F480730B4353D080
:104DF00082F40072114340F06C8144F20041C5F628
:104E00000201086DC0F38212042A00F2148148F2F4
:104E10000000C0F2BB00DFE812F0C100D300DD00EB
:104E20005C010500C86C0A68520700F0405208682F
:104E300002D5002A00F03C81C00500F1E480E5E0E5
:104E400082F400530B434FD082F48042114340F070
:104E5000408144F20044C5F60204A06DC0F3027024
:104E6000052800F2E880DFE810F007002D010F01AF
:104E700019010301370100BF01F00AF8216A4DF65C
:104E8000B812C0F60002C1F30211515C01F01F011B
:104E9000C84004B010BD00BF44F20041C5F6020195
:104EA000086D00F00702042A00F2C58048F20000F5
:104EB000C0F2BB00DFE812F0720084008E000D012A
:104EC000060000BFC86C0A68520700F0405208682C
:104ED00002D5002A00F0EC80C00540F19780B2F1C5
:104EE000805F00F0088191E044F20040C5F60200C6
:104EF000016DC1F30241052900F29D80DFE801F058
:104F00000474C6D4BA3900BF04B0BDE8104000F044
:104F1000E7BF00BF44F20041C5F60201886DC0F34F
:104F20004252042A00F2878048F20000C0F2BB001F
:104F3000DFE802F0344650CF040000BFC86C0A68B6
:104F4000520700F0405208685BD5002A00F0B0809C
:104F500057E000BF44F20040C5F60200016D01F0C9
:104F60004051B1F1005F3FD0B1F1805F60D00029C6
:104F700061D10068B1E000BF44F20041C5F6020112
:104F8000886DC0F30262042A55D848F20000C0F2CE
:104F9000BB00DFE802F003151F9E2D00086848E003
:104FA00044F20040C5F60200C16C0068C90340D558
:104FB000000140D501A8FFF787FD039804B010BD9C
:104FC0000868000137D501A8FFF77EFD019804B0FD
:104FD00010BD00BF086880002DD501A8FFF70CFEAA
:104FE000019804B010BD00BF0068000123D56CE03B
:104FF000C86C0A68520700F04052086801D5002AC0
:1050000056D0C00502D5B2F1805F74D00868B2F105
:10501000005F00F400314FF0000004BF47F640008D
:10502000C0F27D10002908BF084604B010BD00BFC3
:105030000068800102D4002004B010BD01A8FFF771
:10504000A7FC45E000688000F5D501A8FFF7D4FD76
:10505000039804B010BD00BFC16C0268520701F094
:105060004051026842D5002940D1C2F3C10021E07D
:10507000206800E0006840F60011C005C0F23D0164
:1050800001EAE07004B010BD206800E00068800014
:10509000D1D501A8FFF7B0FD1AE000BF2068400796
:1050A000C9D5206804E000BF01684907C3D500687E
:1050B000C0F3C10049F20001C0F2D03121FA00F082
:1050C00004B010BD20680001B5D501A8FFF7FCFCB5
:1050D000029804B010BD00BF206847F6400180036D
:1050E000C0F27D1101EAE07004B010BDD20509D50F
:1050F000B1F1805F06D140F60010C0F23D0004B06F
:1051000010BD00BF0068B1F1005F00F400324FF045
:10511000000004BF47F64000C0F27D10002A08BF1F
:10512000104604B010BD00002DE9F0470446C078D9
:1051300044F22C480007C5F6020828D5A06E4FEAB5
:10514000305103292AD8DFE801F0030B131B00BFFD
:10515000D8F8001041F40031C8F8001010E000BF8A
:1051600004F10800022104F0DBF9064680B906E0EC
:1051700004F12800022104F067FA064640B9A06E47
:10518000D8F8241021F440110843C8F82400002660
:105190006078C00706D135462FE000BF0126607851
:1051A000C007F8D0A06D042858D83546DFE800F0D5
:1051B00004140E0B0B0000BFD8F80000354640F475
:1051C0000030C8F800002F46C5B90DE004F12800F2
:1051D000002104F039FA04E004F10800002104F091
:1051E0009FF905462F464DB9D8F82400A16D20F04F
:1051F000070000250843C8F8240037466078800778
:1052000031D5E06D4FEAB01004285FD8DFE800F038
:1052100004140E0A0A0000BFD8F8000040F4003061
:10522000C8F800002E46FDB90EE000BF04F12800CA
:10523000002104F009FA04E004F10800002104F060
:105240006FF905462E467DB9D8F82400E16D20F4AB
:10525000E07000250843C8F8240004E00125012778
:1052600060788007CDD43E466078400733D5D4F8C7
:10527000A8004FEA7050042860D8DFE800F003135C
:105280000D090900D8F8000040F40030C8F800000B
:10529000A9460DBB0EE000BF04F12800002104F078
:1052A000D3F904E004F10800002104F039F90546BF
:1052B000A9468DB9D8F82C00D4F8A81020F46000C5
:1052C00000250843C8F82C0005E000BF0125012691
:1052D00060784007CBD4B1466078000734D5D4F865
:1052E000AC004FEA306004285ED8DFE800F003131A
:1052F0000D090900D8F8000040F40030C8F800009B
:105300002F4615BB0EE000BF04F12800002104F079
:105310009BF904E004F10800002104F001F90546BE
:105320002F4695B9D8F82C00D4F8AC1020F0E060E6
:1053300000250843C8F82C0006E000BF01254FF007
:10534000010960780007CAD44F46E078800730D55D
:10535000E06C4FEA3010032820D8DFE800F00903A2
:10536000150900BFD8F8000040F40030C8F800006C
:105370002E46ADB9D8F82000E16C20F030000025B1
:105380000843C8F8200014E004F10800022104F0EA
:10539000C7F805462E461DB9ECE700BF01250126DA
:1053A0006078C00609D434E001250127E078800741
:1053B000CED43E466078C0062BD5206E4FEA303002
:1053C000042839D8DFE800F004140E0A0A0000BFF0
:1053D000D8F8000040F40030C8F800002F46CDB9DE
:1053E0000EE000BF04F12800002104F02DF904E0D4
:1053F00004F10800002104F093F805462F464DB94A
:10540000D8F82400216E20F4E04000250843C8F8B5
:10541000240037466078800635D5606E4FEA30400C
:10542000052815D8DFE800F0041A0E04040400BFB4
:105430002E46DDB91EE000BF0125012760788006F9
:10544000EBD420E004F12800012104F0FDF80AE08B
:10545000012501266078400619D449E004F10800CE
:10546000012104F05DF805462E461DB16078400626
:105470000DD43DE0D8F82400616E20F4E020002532
:105480000843C8F824003E466078400630D5D4F87A
:10549000B0004FEA307005280ED8DFE800F00313A3
:1054A000070303032F46ADB918E000BF04F128003D
:1054B000012104F0C9F80AE00125012760780006FF
:1054C0001AD43CE004F10800012104F029F8054653
:1054D0002F461DB1607800060ED430E0D8F82C00BD
:1054E000D4F8B01020F0E04000250843C8F82C00A4
:1054F00037466078000622D5206F58B1B0F1005FC2
:105500000CD0B0F1805F37D1D8F8000040F4003003
:10551000C8F800002E469DB908E000BF04F108005D
:10552000012103F0FDFF05462E464DB9D8F82400B1
:10553000216F20F0405000250843C8F824003E4663
:10554000E078C0071DD0A06C032855D8DFE800F034
:1055500008024A08D8F8000040F40030C8F80000FB
:10556000A9467DB9D8F82000A16C20F003000025E1
:105570000843C8F8200004E001250126E078C007B0
:10558000E1D1B146A078400602D44F4618E000BFF2
:10559000D8F8D40340F48070C8F8D403FEF790FF25
:1055A000064600BFD8F8D403C00507D4FEF788FF2D
:1055B000801B6428F6D90325032701E02F46FDB19F
:1055C0002078C00700F06F80E06F4FEAF0000528F8
:1055D0004ED8DFE800F0035347030303002D2E46A7
:1055E00054D157E004F10800022103F099FF054669
:1055F000002DA946C6D1B5E701254FF00109C1E745
:10560000D8F84410D4F8B400414011F4407F11D0D0
:10561000D8F84410D8F8442042F48032C8F8442026
:10562000D8F8442021F4407122F48032C8F8442094
:10563000C8F84410B0F5807F40F0E082FEF740FFEC
:10564000064641F2883A0325032700BFD8F84400F4
:10565000800700F1D182FEF733FF801B5045F5D95A
:10566000AEE700BF04F12800012103F0EDFF0AE0DE
:10567000012501262078800719D446E004F10800AE
:10568000012103F04DFF05462E461DB1207880070D
:105690000DD43AE0D8F82800E16F20F0380000255A
:1056A0000843C8F828003E46207880072DD5A06F13
:1056B00005280FD8DFE800F004140804040400BF34
:1056C0002F46ADB918E000BF04F12800012103F016
:1056D000BBFF0AE0012501272078400719D447E0E5
:1056E00004F10800012103F01BFF05462F461DB100
:1056F000207840070DD43BE0D8F82800A16F20F0B7
:10570000070000250843C8F82800374620784007DE
:105710002ED5D4F8940005280ED8DFE800F0031346
:10572000070303032E46ADB918E000BF04F12800BB
:10573000012103F089FF0AE0012501262078800677
:105740001AD44BE004F10800012103F0E9FE0546FC
:105750002E461DB1207880060ED43FE0D8F82C00EC
:10576000D4F8941020F0070000250843C8F82C0056
:105770003E462078800631D5D4F890004FEA30704C
:1057800005280FD8DFE800F004140804040400BF63
:105790002F46ADB918E000BF04F12800022103F044
:1057A00053FF0AE001250127207840061AD44BE078
:1057B00004F10800002103F0B3FE05462F461DB199
:1057C000207840060ED43FE0D8F82800D4F8901096
:1057D00020F0E04000250843C8F82800374620782C
:1057E000400631D5D4F89C004FEAB02005280FD8E8
:1057F000DFE800F004140804040400BF2E46ADB92D
:1058000018E000BF04F12800022103F01DFF0AE0A8
:1058100001250126207800061AD44EE004F1080084
:10582000002103F07DFE05462E461DB120780006BE
:105830000ED442E0D8F82C00D4F89C1020F4E050AC
:1058400000250843C8F82C003E462078000634D5D1
:10585000D4F8A0004FEA7030052815D8DFE800F032
:10586000041A0E04040400BF2F46E5B120680107A6
:1058700027D4C1063ED4000355D477E004F12800B4
:10588000022103F0E1FE0AE001250127206801075B
:10589000EFD516E004F10800002103F041FE0546B3
:1058A000002D2F46E2D1D8F82C00D4F8A01020F417
:1058B000604000250843C8F82C00374620680107DF
:1058C000D7D5D4F88400B0F5805F09D104F1280061
:1058D000022103F0B9FE002818BF0127D4F8840084
:1058E000D8F8281021F440510843C8F8280020684F
:1058F000C106C0D5D4F89800B0F5807F09D104F175
:105900002800022103F0A0FE002818BF0127D4F8C8
:105910009800D8F82C1021F440710843C8F82C00E6
:105920002068000322D5D4F8A400B0F5003F11D0C0
:10593000B0F5803F08D0002844D104F108000021D0
:1059400003F0EEFD05E000BF04F12800022103F0A2
:105950007BFE05462E4655B9D8F82C00D4F8A41085
:1059600020F4403000250843C8F82C003E46A078BB
:1059700040072CD5D4F88800B0F5401F0BD0B0F507
:10598000001F0BD0B0F5801F2AD1D8F8000040F4DA
:105990000030C8F800002F46D5B907E004F1280010
:1059A000012103F051FE05462F468DB9D8F8280095
:1059B000D4F8881020F4401000250843C8F82800C7
:1059C00005E000BF01250126A0784007D2D4374664
:1059D000A078C00709D13E462168880015D532E07D
:1059E00001250127A078C007F5D0206DB0F5803FD4
:1059F00010D018BBD8F8000040F40030C8F8000000
:105A00002E4685B1216888001DD460688A0326D49B
:105A100069E000BF04F10800022103F081FD0546A2
:105A2000002D2E46EED1D8F82000216D20F48030D4
:105A300000250843C8F82000CDE700BF0125012656
:105A400021688800E1D504F12800022103F0FCFD63
:105A5000002818BF0126D4E900108A0343D5D4F8E2
:105A600080206FF0010303EB3223022B0BD34FEAAC
:105A7000322343B1012B40F0B980D8F8003043F411
:105A80000033C8F800303DB3CA022FD4CA0037D45F
:105A90008A0240D44A0048D4CA0F55D109025DD4C5
:105AA000C10766D181076FD4410779D4010700F19E
:105AB0008380C10600F18C80800607D504F12800A0
:105AC000022103F0C1FD002818BF0125002D18BFD9
:105AD00001252846BDE8F087D8F8283023F4407324
