:020000040800F2
:1000000010640624AD02000809BC000851940008E1
:1000100001BC0008990B0008F1D2000800000000A4
:1000200000000000000000000000000041C00008C7
:10003000394400080000000011BC000849C0000855
:10004000C7020008C7020008C7020008C70200086C
:10005000C7020008C7020008C7020008C70200085C
:10006000C7020008C7020008C7020008B111000853
:100070006922000831310008C7020008C7020008E1
:10008000C7020008C7020008C7020008C70200082C
:10009000C7020008C7020008C7020008C9440008D8
:1000A000C7020008C7020008C7020008C70200080C
:1000B000C7020008C7020008C7020008C7020008FC
:1000C000C7020008C7020008C7020008C7020008EC
:1000D000C7020008C7020008C7020008C7020008DC
:1000E000C7020008C702000800000000C70200089D
:1000F000C7020008C7020008C7020008C7020008BC
:10010000C7020008C7020008C7020008C7020008AB
:10011000C7020008C7020008C7020008C70200089B
:10012000C7020008C7020008C7020008C70200088B
:10013000C7020008C7020008C7020008C70200087B
:1001400000000000000000000000000000000000AF
:10015000C7020008C7020008C7020008C70200085B
:10016000C7020008C7020008C7020008C70200084B
:10017000C7020008C7020008C7020008C70200083B
:10018000C7020008C7020008C7020008C70200082B
:10019000C7020008C7020008C7020008C70200081B
:1001A000C7020008C7020008C7020008C70200080B
:1001B000C7020008C7020008C7020008C7020008FB
:1001C000C7020008C7020008C7020008C7020008EB
:1001D000C7020008C7020008F93F0008C70200086C
:1001E000C7020008C7020008C7020008C7020008CB
:1001F000C7020008C7020008C7020008C7020008BB
:10020000C7020008C7020008C7020008C7020008AA
:10021000C7020008C7020008C7020008C70200089A
:10022000C7020008C7020008C7020008000000005B
:10023000C7020008C702000800000000C70200084B
:10024000C7020008C7020008C7020008C70200086A
:10025000C7020008C7020008C7020008C70200085A
:10026000C7020008C7020008C7020008C70200084A
:10027000C7020008C7020008C7020008000000000B
:10028000C7020008C7020008C702000800000000FB
:1002900000000000C7020008DFF80CD000F048FAA8
:1002A0000048004709FA0008106406240648804701
:1002B00006480047FEE7FEE7FEE7FEE7FEE7FEE74B
:1002C000FEE7FEE7FEE7FEE791C10008990200089D
:1002D0002DE9F05F0546002092469B46884606467B
:1002E000814640241BE0284641464746224600F00E
:1002F00057F853465A46C01A914110D31146184632
:10030000224600F03EF82D1A67EB01084F462246C0
:100310000120002100F035F817EB00094E41201EA6
:10032000A4F10104DFDC484631462A464346BDE8D5
:10033000F09FD2B201E000F8012B491EFBD27047BA
:100340000022F6E710B513460A4604461946FFF7A1
:10035000F0FF204610BD30B50B460146002020229C
:10036000012409E021FA02F59D4205D303FA02F5C2
:10037000491B04FA02F52844151EA2F10102F1DC22
:1003800030BD202A04DB203A00FA02F10020704739
:100390009140C2F1200320FA03F3194390407047C3
:1003A000202A04DB203A21FA02F00021704721FACA
:1003B00002F3D040C2F12002914008431946704731
:1003C0002DE9FE4F804681EA0300C00F0C460090E5
:1003D00021F0004123F00045B8EB0200A94105D20D
:1003E0004046214690461C460B46024623F00040FC
:1003F000104347D0270DC7F30A00C3F30A510290F8
:10040000401A019040286BDAC3F3130040F4801BBC
:100410000098924620B10023D2EB030A63EB0B0B4A
:1004200001985946C0F140025046FFF7AAFF064620
:100430000D4650465946019A00F092F910EB08001B
:100440006141002487EA115284EAE7731A4340D0DD
:10045000009A62B3019A012A4FEA075215DC001B89
:1004600061EB02014FF0004202EA0752CDE900427F
:10047000001C41F5801132462B4600F092F903B082
:10048000BDE8F08F40462146F9E7001B61EB020111
:10049000001C41F5801300185B412018A2F50017DD
:1004A00047EB030140EAD570B6196D4111E06D08C4
:1004B0004FEA360645EAC0754FEA0752001B61EB6A
:1004C0000201001C41F5801149084FEA3000001973
:1004D000514132462B4603B0BDE8F04F00F052B90F
:1004E0000098012240000023D0EB020263EBE0738E
:1004F000009821464FEAE074B8EB000061EB04017C
:10050000E9E783F000435BE781F0004158E72DE91C
:10051000FE4F81EA030404F0004421F000410094FE
:100520004FF0000B23F0004350EA01045ED052EA82
:1005300003045BD0C3F30A54C1F30A552C44A4F25C
:10054000F3340194A0FB0254C1F3130141F4801170
:10055000C3F3130343F4801301FB024400FB034E77
:10056000840A970A44EA815447EA8357A4FB076840
:1005700002958D0A05FB07854FEA932C04FB0C546A
:100580002705029D4FEA065847EA1637B5EB0805DE
:100590006EEB070C870E920E47EA811742EA831230
:1005A000A7FB0201B6EB0B0164EB00042B0D43EA41
:1005B0000C335E1844EB1C50DA465146E7FB02014F
:1005C000C5F313044FEA0B3343EA14534FEA0432E2
:1005D000019C43EA0603A4F10C040294009CCDE9BB
:1005E00000B400F0DEF803B0BDE8F08F0020014653
:1005F000F9E72DE9F04D81EA030404F0004B21F006
:10060000004514464FF0000A23F0004150EA05026D
:1006100020D054EA01021DD0C5F30A570246C5F3A3
:100620001303C1F31300C1F30A5640F4801543F4D9
:100630008013A7EB0608101BD64608F2FD3873EBB3
:10064000050002D308F1010801E092185B41B8F1FE
:10065000000F03DA00200146BDE8F08D00204FF4C2
:100660008011064684460EE0171B73EB050705D381
:10067000121B63EB050306434CEA010C49084FEAE1
:10068000300092185B4150EA0107EDD152EA0300B5
:1006900012D082EA040083EA0501084305D0101B4A
:1006A000AB4106D20122002306E000224FF00043B6
:1006B00002E06FF0010253101AEB06004CEB0851F8
:1006C00010EB0A0041EB0B01BDE8F04D00F05AB809
:1006D000C1F30A52C1F3130140F2FF3341F4801118
:1006E0009A4202DA00200146704740F233439A42B0
:1006F000A2F2334202DC5242FFF752BEFFF741BE84
:1007000030B5041E71F1000404DB4FF00044404298
:1007100064EB0101141E73F1000405DB1C464FF06D
:100720000043524263EB0403994208BF904230BD3C
:100730001CB509480090094801900546009C06E058
:10074000E06840F0010394E8070098471034AC4299
:10075000F6D3FFF7A5FD0000185A0108485A010812
:10076000202A06DBCB17203A41FA02F043EAE07375
:1007700006E041FA02F3D040C2F120029140084362
:100780001946704710B5141E73F1000408DA401CB6
:1007900041F1000192185B411A4301D120F00100A0
:1007A00010BD2DE9F04D92469B4611B1B1FA81F290
:1007B00002E0B0FA80F220329046FFF7E2FD0446F4
:1007C0000F4640EA0A0041EA0B0153465A460843E5
:1007D00013D0114653EA010019D0C8F14002504627
:1007E000FFF7DEFD05460E46504659464246FFF7E6
:1007F000C8FD084305D0012004E020463946BDE885
:10080000F08D0020054346EAE0762C4337430A98F2
:100810006305E40AA0EB08000022FD0A44EA4754FD
:100820000A3002D500200146E9E7010510196941A7
:10083000DDE9084500196941BDE8F04DA2E7000077
:10084000B0B50446006842F2001140F48070C4F272
:100850000201884218D142F20830C4F20200006856
:1008600010F4403F18D007F06BFE61680546B1F503
:10087000803F05D0B1F5403F2CD0B1F5003F2AD1E3
:10088000080CB5FBF0F526E046F20830C5F602008C
:10089000006810F4403FE6D14FF40020002106F03C
:1008A0009BFD61680546A1F580224FEAB2420A2A03
:1008B00011D8DFE802F0070707070707555359511A
:1008C000570000BF6FF0010000EA5140B5FBF0F5A2
:1008D00001E000BFAD0806F043F941F20301884290
:1008E0000ED8206842F60151C0F231118D42816864
:1008F0002CBF41F4807121F480718160B0BD00BFD4
:100900004BF62140C0F2BE00854205D820688168C0
:1009100021F440718160B0BD47F64100C0F27D1006
:10092000854207D820680122816862F3092181602D
:10093000B0BD00BF20684FF28101C0F2FA218D42A4
:10094000816805D8022262F309218160B0BD00BF31
:1009500041F440718160B0BDED09BCE76D09BAE7B3
:100960002D09B8E72D0AB6E7AD09B4E7000000008D
:1009700070B5044600688268836802F0040203F0E0
:100980000803D2186CD0C268920121D5627D012A79
:100990001ED1227D012A1BD10168490613D44DF6D0
:1009A0000441C0F20C01043950D0026852065CBF09
:1009B00002685FEA426206D4026852065CBF0268BF
:1009C0005FEA4262EFD540210160012106E000BFED
:1009D000022903D10221082612E000BF82685207D3
:1009E0000AD58268920707D44FF6C0738268C7F6AB
:1009F000FF731A401032826001294FF0040610D0B4
:100A0000826812070AD58268920707D44FF6C0732E
:100A10008268C7F6FF731A4020328260032908BF3C
:100A20000C2606F0A5F821688968314218D00546E1
:100A300003E000BF8068304212D006F099F8401BF6
:100A400006282068F6D381683142F3D0606D40F00B
:100A500010006065A06D40F00100A065012070BD30
:100A6000002070BD000000000146806B426D12F056
:100A7000500F426D06D0D20610D4C06CC26C08462E
:100A8000104700BF42F40071416501680A6812070F
:100A9000CA6805D4910709D004F002BA04F008BA74
:100AA00012F4406FF8D1C9688904F5D4416D21F47E
:100AB00080714165416DC904EED4416D41F0010181
:100AC000416504F0EDB90000806B416D41F04001DB
:100AD0004165816D41F00401816504F0E9B90000D0
:100AE000806B04F0E1B90000F0B581B00446006805
:100AF0008168C9074AD14FF6C0778168C7F6FF778A
:100B000007F17F0211420BD0606D40F0100060656C
:100B1000A06D40F00100A065012001B0F0BD00BF54
:100B20008168394041F00101816006F021F842F20C
:100B3000000246F20836C4F20202216802F5807310
:100B400002F54275C5F60206994208BF2E4691424B
:100B500008BF2E4699420546306814D110F01F0098
:100B600014D110E08868C00704D18868384040F08C
:100B70000100886005F0FCFF401B2168032802D3B8
:100B80000868C007C0D00868C007EBD0002001B0DB
:100B9000F0BD000000000000FEE7000000000000C3
:100BA000B0B586B044F2E04040F20044C5F6020021
:100BB000C5F6020401AD016841F002010160006860
:100BC000294600F0020001900198082001900120C0
:100BD000CDE9020003200490204605F0DDFE202030
:100BE00001902046294605F0D7FE2021012220460B
:100BF00005F0AEFF08210122204605F0A9FF06B04E
:100C0000B0BD0000000000002DE9F04F83B040F2BD
:100C100000448246C5F60204206820F4406020604B
:100C2000206820601E200DF0E7FD082100222046EC
:100C300005F08EFF02200DF0DFFD08210122204685
:100C400005F086FF2021204605F07AFF002818BF16
:100C50000120029002200DF0CFFD08210022204645
:100C600005F076FF02200DF0C7FD08210122204685
:100C700005F06EFF2021204605F062FF0190022062
:100C80000DF0BAFD08210022204605F061FF022088
:100C90000DF0B2FD08210122204605F059FF202168
:100CA000204605F04DFF834600284FF0020018BF94
:100CB0004FF0010B0DF0A0FD08210022204605F0A9
:100CC00047FF02200DF098FD08210122204605F083
:100CD0003FFF2021204605F033FF054602200DF09E
:100CE0008BFD08210022204605F032FF02200DF086
:100CF00083FD08210122204605F02AFF20212046FD
:100D000005F01EFF074600284FF0020018BF01271C
:100D10000DF072FD08210022204605F019FF022087
:100D20000DF06AFD08210122204605F011FF202167
:100D3000204605F005FF064602200DF05DFD082166
:100D40000022204605F004FF02200DF055FD082189
:100D50000122204605F0FCFE2021204605F0F0FE91
:100D6000804600284FF0020018BF4FF001080DF038
:100D700043FD08210022204605F0EAFE02200DF086
:100D80003BFD08210122204605F0E2FE20212046FD
:100D900005F0D6FE814602200DF02EFDBAFA8AF04B
:100DA00008214FEA501A0022204605F0D1FE2068A3
:100DB000202120F4406020602068524640F480608A
:100DC0002060204605F0C4FE02200DF015FD08212C
:100DD0000122204605F0BCFE02200DF00DFD082189
:100DE0000022204605F0B4FE0199002918BF012118
:100DF0000298002D18BF012541EA4000002E4FEA5D
:100E0000800040EA4B0028444FEA800018BF0126CA
:100E100040EA4700B9F1000F30444FEA800018BFA4
:100E20004FF0010940EA48004844C0B203B0BDE8B1
:100E3000F08F000000000000B0B540F2004405460D
:100E4000C5F602040022216821F440612160206877
:100E5000082140F480602060204605F079FEEA0910
:100E60002021204605F074FE02200DF0C5FC08216B
:100E70000122204605F06CFE02200DF0BDFC082189
:100E80000022204605F064FE02200DF0B5FCC5F3FB
:100E900080122021204605F05BFE02200DF0ACFC04
:100EA00008210122204605F053FE02200DF0A4FC8B
:100EB00008210022204605F04BFE02200DF09CFC8C
:100EC000C5F340122021204605F042FE02200DF01D
:100ED00093FC08210122204605F03AFE02200DF085
:100EE0008BFC08210022204605F032FE02200DF086
:100EF00083FCC5F300122021204605F029FE0220C4
:100F00000DF07AFC08210122204605F021FE022086
:100F10000DF072FC08210022204605F019FE022087
:100F20000DF06AFCC5F3C0022021204605F010FE3A
:100F300002200DF061FC08210122204605F008FE88
:100F400002200DF059FC08210022204605F000FE89
:100F500002200DF051FCC5F380022021204605F04F
:100F6000F7FD02200DF048FC08210122204605F083
:100F7000EFFD02200DF040FC08210022204605F084
:100F8000E7FD02200DF038FCC5F340022021204689
:100F900005F0DEFD02200DF02FFC08210122204685
:100FA00005F0D6FD02200DF027FC08210022204686
:100FB00005F0CEFD02200DF01FFC05F001022021FE
:100FC000204605F0C5FD02200DF016FC0821012287
:100FD000204605F0BDFD02200DF00EFC0821002288
:100FE000204605F0B5FD0220BDE8B0400DF004BC80
:100FF00010B540F200442021C5F602040122206809
:1010000020F440602060206840F48060206020462A
:1010100005F09EFD08210122204605F099FD1E20C5
:101020000DF0EAFB20210022204605F091FD022070
:101030000DF0E2FB082100222046BDE8104005F03B
:1010400087BD00000000000010B540F200440821F8
:10105000C5F602040022206820F440602060206869
:1010600040F480602060204605F072FD20210022BF
:10107000204605F06DFD1E200DF0BEFB082101226B
:10108000204605F065FD02200DF0B6FB202101226F
:101090002046BDE8104005F05BBD000000000000E8
:1010A000B0B540F200442021C5F6020401222068B8
:1010B00020F44060206020682060204605F048FD54
:1010C00008210122204605F043FD02200DF094FB8B
:1010D0002021204605F034FD60B10025FA2D11D203
:1010E000022001350DF088FB2021204605F028FD67
:1010F0000028F3D1082100220025204605F028FD14
:101100002846B0BD2068082120F440602060206897
:10111000002240F480602060204605F019FD202167
:101120000022204605F014FD1E200DF065FB08216D
:1011300001222046012505F00BFD02200DF05CFB8D
:1011400020210122204605F003FD2846B0BD000005
:1011500010B5846B204604F0BFFA0120207110BD49
:1011600010B5846B204604F0CBF90120207110BD2E
:1011700010B5846B206940F004002061204604F023
:10118000B3FA0120207110BD10B5846B206940F0C6
:1011900004002061204604F0BBF90120207110BD3D
:1011A000806B04F09DBA0000806B04F0ADB90000C4
:1011B0002DE9F04146F2900E40F25841C2F2024E43
:1011C000C4F2020101F1600245F2944CDEF8000025
:1011D00040F257439042C5F6020CC4F2020321D9F3
:1011E00098425CF8944C4FF0200569DD45F21B46AF
:1011F000C5F60206B04200F3838040F29F46C4F277
:101200000206B04200F3FE80884200F0118140F2F5
:101210007046C4F20206B04200F0C18140F2884537
:10122000B6E100BF884221D9984251F8544C4FF0A2
:10123000200540F3AF8045F21B46C5F60206B042DA
:1012400000F3FA8040F29F46C4F20206B04200F377
:101250006182884200F0748240F27046C4F2020655
:10126000B04200F0F48240F28845E9E240F25808CA
:10127000C4F2020808F16004A04261D99842D8F88B
:10128000A8634FF0200764DD45F21B45C5F6020553
:10129000A84200F3F18040F29F45C4F20205A84243
:1012A00000F35282884200F0658240F27045C4F239
:1012B0000205A84200F0DB8240F28845D0E200BF80
:1012C0008726C4F20206B04240F3848040F20F4603
:1012D000C4F20206B04200F307818825C4F2020579
:1012E000A84200F05A81A025C4F20205A84200F0ED
:1012F0000E81B825C4F20205A84200F09980C9E326
:1013000045F25746C5F60206B04200F3D58045F2D5
:101310001C46C5F60206B04200F0418145F2304558
:10132000C5F60205A84200F0AD8345F24445C5F676
:101330000205A84240F0AE834FF400552FE100BFF4
:10134000404540F2E780984258F8546C4FF020072F
:101350009ADC8725C4F20205A84240F3E38040F2FC
:101360000F45C4F20205A84200F34E828825C4F25C
:101370000205A84200F07982A025C4F20205A84225
:1013800000F05582B825C4F20205A84200F0F281AF
:10139000B2E300BF8726C4F20206B04240F3D88011
:1013A00040F20F46C4F20206B04200F317828825CD
:1013B000C4F20205A84200F04882A025C4F202054A
:1013C000A84200F01E82B825C4F20205A84200F02F
:1013D000B78189E33F26C4F20206B04240F3D280CF
:1013E0004026C4F20206B04200F091805826C4F2B2
:1013F0000206B0421CD07026C4F20206B04200F0D1
:10140000CE8047E340F2A045C4F20205A8427ED058
:1014100040F2B845C4F20205A84209D045F2084599
:10142000C5F60205A84240F035830225B7E000BFAB
:101430004FF00065B3E000BF45F25746C5F602061F
:10144000B04200F39B8145F21C46C5F60206B0424D
:1014500000F0FD8145F23045C5F60205A84200F0D6
:10146000338345F24445C5F60205A84240F03C836B
:101470004FF40055EBE100BF45F25745C5F60205B4
:10148000A84200F3938145F21C45C5F60205A84227
:1014900000F0ED8145F23045C5F60205A84200F0A6
:1014A000178345F24445C5F60205A84240F024835F
:1014B0004FF40057DBE100BF45F25845C5F6020581
:1014C000A84200F0E38245F26C45C5F60205A84249
:1014D0001DD045F28045C5F60205A84240F0DA82EB
:1014E0004FF000755BE000BF40F21046C4F2020608
:1014F000B04254D040F22845C4F20205A8424CD074
:1015000040F24045C4F20205A84240F0C3824FF4C5
:10151000001544E0984258F8586C4FF020073FF708
:10152000B3AE16E73F25C4F20205A84240F392810C
:101530004025C4F20205A84200F07981404500F040
:1015400019817025C4F20205A84200F09081D3E20F
:101550003F26C4F20206B04240F36C814026C4F23A
:101560000206B04200F04D815826C4F20206B04295
:1015700000F0E6807026C4F20206B04200F06781F7
:10158000B2E200BF1026C4F20206B04207D02825FE
:10159000C4F20205A84240F07D824FF40065254266
:1015A000044658D045F24344C5F60204A04215DD76
:1015B00045F26B44C5F60204A04225DC45F24444E2
:1015C000C5F60204A04239D045F25844C5F60204DB
:1015D000A0422BD14FF4003439E000BF45F208445B
:1015E000C5F60204A0421FD045F21C44C5F6020411
:1015F000A0422BD045F23044C5F60204A04215D1DA
:101600004FF4007423E000BF45F26C44C5F60204B9
:10161000A04217D045F28044C5F60204A04205D18D
:101620004FF0007413E000BF022410E0A0EB0C04A4
:10163000B4FA84F46409640709E000BF4FF400546D
:1016400005E000BF4FF4001401E000BF20244CF877
:10165000904CDEF800409C425CF8945C4FF0100621
:101660001CDD45F21B47C5F60207BC4234DC40F2E4
:101670009F47C4F20207BC4240F32C8140F2A046CF
:10168000C4F20206B44200F0C58140F2B846C4F28A
:101690000206B44240F0B081B8E100BF8727C4F22F
:1016A0000207BC4240F3448140F20F47C4F20207F4
:1016B000BC4200F329818826C4F20206B44200F03D
:1016C0008B81A026C4F20206B44200F0A381B826A2
:1016D000C4F2020619E000BF45F25746C5F60206FD
:1016E000B44240F3418145F25846C5F60206B44281
:1016F00000F0BC8145F26C46C5F60206B44200F02B
:101700009A8145F28046C5F60206B44200F07E8119
:10171000B0E100BF40F2A045C4F20205A84270D07B
:1017200040F2B845C4F20205A84209D045F2084586
:10173000C5F60205A84240F0D781022587E000BF28
:101740004FF0006583E000BF40F2A045C4F20205FF
:10175000A8426CD040F2B845C4F20205A84209D0B4
:1017600045F20845C5F60205A84240F0C5810227AA
:101770007DE000BF4FF0006779E000BF45F25845BB
:10178000C5F60205A84200F0A78145F26C45C5F6F2
:101790000205A84235D045F28045C5F60205A842AB
:1017A00040F0A2814FF0007551E000BF45F258456E
:1017B000C5F60205A84200F0938145F26C45C5F6D6
:1017C0000205A84233D045F28045C5F60205A8427D
:1017D00040F092814FF0007749E000BF40F21046A0
:1017E000C4F20206B04232D040F22845C4F20205EB
:1017F000A8422AD040F24045C4F20205A84240F077
:1018000073814FF4001522E040F21045C4F2020546
:10181000A8422CD040F22845C4F20205A84224D0A8
:1018200040F24045C4F20205A84240F065814FF401
:1018300000171CE01026C4F20206B04207D028258B
:10184000C4F20205A84240F04F814FF400652542E2
:1018500012D12AE01025C4F20205A84207D028259B
:10186000C4F20205A84240F047814FF400673E40B1
:10187000C6B1884240F28E804FF69034CBF6FD74AC
:1018800004444FEAF404092C08D841F2E815C0F6E4
:10189000010555F8244041F84C4C06E0002441F87D
:1018A0004C4C02E0884240F2368151F8545CDEF83C
:1018B00000409C424FF010061ADD45F21B47C5F66A
:1018C0000207BC424ADC40F29F47C4F20207BC4216
:1018D00000F386808C4200F0998040F27047C4F299
:1018E0000207BC4200F0948040F2884670E000BFDE
:1018F0008727C4F20207BC421ADD40F20F47C4F248
:101900000207BC427FF7D7AE40F21047C4F202078D
:10191000BC4200F07D8040F22846C4F20206B44288
:101920005AD040F24046C4F20206B44272D0A1E05E
:101930003F27C4F20207BC4244DD4027C4F202073D
:10194000BC4267D05827C4F20207BC425ED0702761
:10195000C4F20207BC425BD08CE000BF45F25746A0
:10196000C5F60206B44259DC45F21C46C5F602062D
:10197000B44277D045F23046C5F60206B4422BD0C9
:1019800045F24446C5F60206B44273D14FF4804690
:10199000354096E14FF69035A042CBF6FD7505EB4C
:1019A00000064DD906F160054FEAF506092E79D8F3
:1019B00041F2E815C0F6010555F8266041F8506C73
:1019C000A9E000BF1027C4F20207BC4220D028269D
:1019D000C4F20206B4424DD14FF48066354070E146
:1019E00040F2A046C4F20206B44213D040F2B84618
:1019F000C4F20206B44209D045F20846C5F6020612
:101A0000B44237D1042635405BE100BF4FF0806619
:101A1000354056E14FF48016354052E145F25846C4
:101A2000C5F60206B44221D045F26C46C5F6020660
:101A3000B4427FF466AE4FF48006354041E100BF0A
:101A4000404533D906F580654FEAF506092E5BD887
:101A500041F2E815C0F6010555F8266048F84C6CCF
:101A600059E000BF402635402BE100BF4FF48026EF
:101A7000354026E1A4EB0C06B6FA86F67609B607E1
:101A800035401EE14FF4007589E500BF4FF4003585
:101A900085E500BFA0EB0C05B5FA85F56D096D076E
:101AA0007DE500BF002641F8506C34E006F58C65FA
:101AB0004FEAF506092E2BD841F2E815C0F60105CC
:101AC00055F8266025E000BF4FF40075BFE600BF63
:101AD0004FF40077CBE600BF4FF40035B7E600BF08
:101AE0004FF40037C3E600BFA0EB0C05B5FA85F54F
:101AF0006D096D07ABE600BFA0EB0C05B5FA85F5E7
:101B00006D096F07B3E600BF002648F84C6C02E091
:101B1000002648F8506CA04220D9D8F8A863DEF817
:101B200000409C424FF0100722DD45F21B45C5F6F0
:101B30000205AC4238DC40F29F45C4F20205AC42DB
:101B40006CDC8C4200F0958040F27045C4F20205D6
:101B5000AC4200F0B48040F28845A9E0404541D94C
:101B600058F8546CDEF800409C424FF01007DCDC63
:101B70008725C4F20205AC423EDD40F20F45C4F2B7
:101B80000205AC4278DC8825C4F20205AC4200F0C4
:101B90009480A025C4F20205AC4200F08080B825F4
:101BA000C4F2020562E000BF45F25745C5F60205E2
:101BB000AC4249DC45F21C45C5F60205AC4200F0DA
:101BC000458345F23045C5F60205AC4275D045F275
:101BD0004445C5F60205AC4240F03E834FF48047D1
:101BE0006DE000BF58F8586CDEF800409C424FF0A2
:101BF00010079ADCBCE700BF3F25C4F20205AC42E7
:101C000050DD4025C4F20205AC4248D0444530D0F6
:101C10007025C4F20205AC4251D01DE340F2A0454C
:101C2000C4F20205AC423AD040F2B845C4F2020513
:101C3000AC421ED045F20845C5F60205AC4240F064
:101C40000B8304273BE000BF45F25845C5F602056B
:101C5000AC4200F0FD8245F26C45C5F60205AC428F
:101C600000F0F08245F28045C5F60205AC4240F036
:101C7000F3824FF0806722E040F21045C4F2020583
:101C8000AC421CD040F22845C4F20205AC4214D04C
:101C900040F24045C4F20205AC4240F0DD824FF410
:101CA00080170CE01025C4F20205AC4207D02825AD
:101CB000C4F20205AC4240F0CF824FF4806707EADD
:101CC0000605002D00F0C38094421DD945F243451E
:101CD000C5F60205AC4243DD45F26B45C5F602058B
:101CE000AC4255DC45F24445C5F60205AC4200F075
:101CF000858045F25845C5F60205AC4274D14FF4D3
:101D000080244CF8904CA2E04FF690368C42CBF6F3
:101D1000FD760DD934444FEAF404092C4AD841F237
:101D20001025C0F6010555F8244041F84C4C8EE0D2
:101D300058252644C4F2020505F16007BC423DD98E
:101D400006F160044FEAF404092C63D841F210252F
:101D5000C0F6010555F8244041F8504C77E000BF2B
:101D600045F20845C5F60205AC4239D045F21C459E
:101D7000C5F60205AC425FD045F23045C5F6020516
:101D8000AC4231D14FF480644CF8904C5FE000BF1E
:101D900045F26C45C5F60205AC4235D045F28045AA
:101DA000C5F60205AC421FD14FF080644CF8904C50
:101DB0004DE000BF002441F84C4C48E0AC422DD926
:101DC00006F580644FEAF404092C39D841F2102654
:101DD000C0F6010656F8244045F84C4C37E000BFE9
:101DE00004244CF8904C32E0A4EB0C04B4FA84F4D4
:101DF0006409A4074CF8904C29E000BF4FF48044DC
:101E00004CF8904C23E000BF4FF480044CF8904C09
:101E10001DE000BF002441F8504C18E006F58C642A
:101E20004FEAF404092C0FD841F21026C0F601063F
:101E300056F8244009E000BF40244CF8904C06E0DE
:101E4000002445F84C4C02E0002445F8504C9042E8
:101E500008D95CF8944CDEF8000098424FF0080373
:101E600033DC09E0884221D951F8544CDEF80000F7
:101E700098424FF0080328DC8727C4F20207B842D3
:101E800000F395803F27C4F20207B84240F3DC809C
:101E90004027C4F20207B84200F0B3805827C4F2CA
:101EA0000207B84240F0C680CAE000BF5825C4F21D
:101EB000020505F16004A0426AD9D5F8A843DEF80E
:101EC000000098424FF008036CDD45F21B47C5F651
:101ED0000207B84212DC40F29F47C4F20207B84240
:101EE0002ADC884200F0AC8040F27047C4F202075E
:101EF000B84200F0B68040F28843ABE045F2574369
:101F0000C5F6020398422BDC45F21C43C5F60203DA
:101F1000984200F0818145F23043C5F602039842B1
:101F200000F0728145F24443C5F60203984240F046
:101F300075814FF4004394E040F2A047C4F20207D9
:101F4000B8425ED040F2B847C4F20207B84277D038
:101F500045F20847C5F60207B84200F082805DE10D
:101F600045F25843C5F6020398424AD045F26C4305
:101F7000C5F60203984200F04B8145F28043C5F656
:101F80000203984240F04A814FF0006369E000BFCD
:101F9000A84239D955F8544CDEF8000098424FF069
:101FA000080392DC8727C4F20207B84236DD40F20C
:101FB0000F47C4F20207B84210DC8823C4F20203C0
:101FC00098424CD0A023C4F20203984219D0B823FF
:101FD000C4F20203984233D020E100BF40F2104720
:101FE000C4F20207B8423CD040F22843C4F20203D4
:101FF000984234D040F24043C4F20203984240F089
:102000000D814FF400232CE055F8584CDEF8000009
:1020100098424FF008033FF758AFC3E73F27C4F299
:102020000207B84210DD4027C4F20207B842E8D0E8
:10203000A84205D07027C4F20207B84211D0EDE0E3
:102040004FF000730DE000BF1027C4F20207B84242
:1020500007D02823C4F20203984240F0DF804FF4F7
:1020600000732340002B08BFBDE8F08190421FD9C8
:1020700045F24341C5F60201884247DD45F26B4116
:10208000C5F60201884259DC45F24441C5F6020119
:10209000884200F08F8045F25841C5F6020188421F
:1020A00002BF4FF400204CF8900CBDE8F08157E0DF
:1020B0004FF690338842CBF6FD730FD918444FEAA0
:1020C000F000092856D841F23822C0F6010252F831
:1020D000200041F84C0CBDE8F08100BF5822C4F24A
:1020E000020202F16007B8424AD9184460304FEA50
:1020F000F00009286AD841F23822C0F6010252F8ED
:10210000200041F8500CBDE8F08100BF45F20841C5
:10211000C5F60201884247D045F21C41C5F60201CE
:1021200088426BD045F23041C5F60201884217D192
:102130004FF400604CF8900CBDE8F08145F26C4122
:10214000C5F6020188423BD045F28041C5F6020146
:10215000884202BF4FF000604CF8900CBDE8F0815F
:10216000A0EB0C00B0FA80F04009C0074CF8900CCE
:10217000BDE8F081002041F84C0CBDE8F08100BFC3
:10218000904229D9184400F580604FEAF0000928F0
:102190004CD841F23821C0F6010151F8200042F834
:1021A0004C0CBDE8F08100BF08204CF8900CBDE855
:1021B000F08100BF4FF400404CF8900CBDE8F08176
:1021C0004FF400004CF8900CBDE8F081002041F87D
:1021D000500CBDE8F08100BF184400F58C604FEA58
:1021E000F000092828D841F23821C0F6010151F841
:1021F000200042F8500CBDE8F08100BF80204CF870
:10220000900CBDE8F08100BF4FF4006329E700BFE8
:102210004FF4000325E700BF802322E7A0EB0C0367
:10222000B3FA83F35B09DB071BE700BF002042F82A
:102230004C0CBDE8F08100BF002042F8500CBDE816
:10224000F08100BF4FF4800739E500BF402736E535
:102250004FF4802733E500BFA4EB0C05B5FA85F5F4
:102260006D09AF072BE500002DE9F04140F27C0835
:1022700040F25841C2F20048C4F2020101F1600389
:1022800045F2944CD8F8004040F2580E40F25740C6
:10229000C5F6020C9C42C4F2020EC4F2020021D91F
:1022A00084425CF8945C4FF0200665DD45F21B47E4
:1022B000C5F60207BC4200F3818040F29F47C4F29A
:1022C0000207BC4200F3FC808C4200F00F8140F218
:1022D0007047C4F20207BC4200F0BF8140F288465A
:1022E000B4E100BF8C4221D9844251F8545C4FF0D4
:1022F000200640F3AD8045F21B47C5F60207BC42FD
:1023000000F3F88040F29F47C4F20207BC4200F39A
:102310008F828C4200F0A28240F27047C4F2020722
:10232000BC4200F0228340F2884617E30EF16005BC
:10233000AC4263D98442DEF8A8634FF0200766DD23
:1023400045F21B42C5F60202944200F3F38040F2CC
:102350009F42C4F20202944200F384828C4200F055
:10236000978240F27042C4F20202944200F00D8360
:1023700040F2884202E300BF8727C4F20207BC4252
:1023800040F3888040F20F47C4F20207BC4200F3DA
:1023900009818826C4F20206B44200F05C81A026BE
:1023A000C4F20206B44200F01081B826C4F202065C
:1023B000B44200F09B8000F08FBC00BF45F257474D
:1023C000C5F60207BC4200F3D58045F21C47C5F6AE
:1023D0000207BC4200F0418145F23046C5F60206D4
:1023E000B44200F0718445F24446C5F60206B44298
:1023F00040F072844FF400562FE100BF744540F264
:10240000E78084425EF8546C4FF0200798DC872206
:10241000C4F20202944240F3E38040F20F42C4F25D
:102420000202944200F37E828822C4F202029442A5
:1024300000F0A982A022C4F20202944200F0858238
:10244000B822C4F20202944200F0228200F05CBE84
:102450008727C4F20207BC4240F3DA8040F20F47FC
:10246000C4F20207BC4200F347828826C4F2020687
:10247000B44200F07882A026C4F20206B44200F012
:102480004E82B826C4F20206B44200F0E78100F0A2
:1024900033BE00BF3F27C4F20207BC4240F3D080E6
:1024A0004027C4F20207BC4200F08F8074451DD063
:1024B0007027C4F20207BC4200F0CF8000F00CBCD1
:1024C00040F2A046C4F20206B4427ED040F2B846C2
:1024D000C4F20206B44209D045F20846C5F6020627
:1024E000B44240F0F9830226B7E000BF4FF0006627
:1024F000B3E000BF45F25747C5F60207BC4200F300
:10250000CB8145F21C47C5F60207BC4200F02D8284
:1025100045F23046C5F60206B44200F0DD8545F2CC
:102520004446C5F60206B44240F0E6854FF4005634
:102530001BE200BF45F25742C5F60202944200F387
:10254000C38145F21C42C5F60202944200F01D828E
:1025500045F23042C5F60202944200F0C18545F2D0
:102560004442C5F60202944240F0CE854FF4005733
:102570000BE200BF45F25846C5F60206B44200F031
:10258000A78345F26C46C5F60206B4421DD045F25B
:102590008046C5F60206B44240F09E834FF00076B6
:1025A0005BE000BF40F21047C4F20207BC4254D0C7
:1025B00040F22846C4F20206B4424CD040F24046F3
:1025C000C4F20206B44240F087834FF4001644E0A0
:1025D00084425EF8586C4FF020073FF7B1AE16E723
:1025E0003F22C4F20202944240F3C2814022C4F26C
:1025F0000202944200F0A981744500F049817022E2
:10260000C4F20202944200F0C08100F07DBD00BF20
:102610003F27C4F20207BC4240F39A814027C4F22C
:102620000207BC4200F07B81744500F017817027DF
:10263000C4F20207BC4200F0988100F05DBD00BF0B
:102640001027C4F20207BC4207D02826C4F20206B3
:10265000B44240F041834FF400662E42254660D0DC
:1026600045F24342C5F60202944215DD45F26B4243
:10267000C5F60202944225DC45F24442C5F6020248
:10268000944239D045F25842C5F6020294422BD109
:102690004FF4003539E000BF45F20842C5F60202AA
:1026A00094421FD045F21C42C5F6020294422BD040
:1026B00045F23042C5F60202944215D14FF400753E
:1026C00023E000BF45F26C42C5F60202944217D0E7
:1026D00045F28042C5F60202944205D14FF00075E2
:1026E00013E000BF022510E0A4EB0C02B2FA82F264
:1026F0005209550709E000BF4FF4005505E000BF3F
:102700004FF4001501E000BF202540F224124CF8E0
:10271000905CC2F20042156825F001051560D8F8FA
:10272000005085425CF8946C4FF0100740F35881DC
:1027300045F21B42C5F60202954213DC40F29F426D
:10274000C4F2020295422FDC8D4200F0858140F2F6
:102750007042C4F20202954200F0B78140F2884212
:10276000ACE100BF45F25742C5F60202954237DCA4
:1027700045F21C42C5F6020295424BD045F230426A
:10278000C5F60202954200F09E8145F24442C5F62C
:102790000202954240F04A824FF480473E40002EAC
:1027A00040F09781B9E200BF40F2A042C4F20202B9
:1027B000954200F06A8140F2B842C4F202029542AA
:1027C00000F04A8145F20842C5F60202954240F007
:1027D0002D8204273E40002E40F07B819DE200BF09
:1027E00045F25842C5F60202954219D045F26C42B4
:1027F000C5F60202954205D045F28042C5F60202B6
:1028000006E100BF4FF480073E40002E40F061819A
:1028100083E200BF40273E40002E40F05A817CE218
:102820004FF480273E40002E40F0538175E200BFF8
:1028300040F2A046C4F20206B44270D040F2B8465C
:10284000C4F20206B44209D045F20846C5F60206B3
:10285000B44240F05184022687E000BF4FF000668A
:1028600083E000BF40F2A042C4F2020294426CD066
:1028700040F2B842C4F20202944209D045F2084242
:10288000C5F60202944240F03F8402277DE000BF7B
:102890004FF0006779E000BF45F25846C5F60206E2
:1028A000B44200F0218445F26C46C5F60206B442FB
:1028B00035D045F28046C5F60206B44240F01C848D
:1028C0004FF0007651E000BF45F25842C5F60202D3
:1028D000944200F00D8445F26C42C5F60202944227
:1028E00033D045F28042C5F60202944240F00C8497
:1028F0004FF0007749E000BF40F21047C4F20207F2
:10290000BC4232D040F22846C4F20206B4422AD079
:1029100040F24046C4F20206B44240F0ED834FF468
:10292000001622E040F21042C4F2020294422CD07F
:1029300040F22842C4F20202944224D040F24042C3
:10294000C4F20202944240F0DF834FF400171CE00F
:102950001027C4F20207BC4207D02826C4F20206A0
:10296000B44240F0C9834FF400662E4212D12CE0ED
:102970001022C4F20202944207D02822C4F20202BA
:10298000944240F0C1834FF400673E40EEB18C4268
:1029900040F214814FF69032CBF6FD7222444FEA9A
:1029A000F205092D06D841F2E812C0F6010252F8EC
:1029B000255000E0002541F84C5C40F22412C2F2A0
:1029C0000042156825F0010515608C4224D951F8A4
:1029D000546CD8F8005085424FF010073FF7A8AE6E
:1029E0008722C4F20202954224DD40F20F42C4F273
:1029F0000202954236DC8822C4F20202954262D07D
:102A0000A022C4F2020295423FD0B822C4F20202D0
:102A1000954221D00AE100BF0EF16002944239D9FB
:102A2000DEF8A863D8F8005085424FF010073FF752
:102A30007FAED5E73F22C4F20202954238DD402244
:102A4000C4F20202954220D0754505D07022C4F22E
:102A50000202954239D0E9E04FF080673E40C6BBA4
:102A60005BE100BF40F21042C4F2020295422CD05A
:102A700040F22842C4F20202954224D040F2404281
:102A8000C4F20202954240F0D1804FF480173E40DC
:102A9000FEB942E1744540F2BF805EF8546CD8F84C
:102AA000005085424FF010073FF742AE98E700BF55
:102AB0001022C4F20202954207D02822C4F2020278
:102AC000954240F0B3804FF480673E40002E00F006
:102AD00024819D421ED945F24342C5F60202954229
:102AE00042DD45F26B42C5F60202954254DC45F2E6
:102AF0004442C5F60202954200F0B28045F25842C7
:102B0000C5F60202954240F0A1804FF480254CF8B2
:102B1000905C02E14FF690368D42CBF6FD760DD9F2
:102B2000AA194FEAF205092D60D841F21022C0F629
:102B3000010252F8255041F84C5CEEE00EF16002C3
:102B40002E44954256D906F160024FEAF205092D4E
:102B500000F2928041F21022C0F6010252F8255094
:102B600041F8505CD9E000BF45F20842C5F60202C8
:102B7000954267D045F21C42C5F60202954200F02C
:102B80009F8045F23042C5F6020295425ED14FF475
:102B900080654CF8905CC0E045F26C42C5F60202DC
:102BA000954263D045F28042C5F6020295424DD16E
:102BB0004FF080654CF8905CAFE000BF4FF690326C
:102BC000AC42CBF6FD7202EB040559D905F1600267
:102BD0004FEAF205092D00F2878041F2E812C0F6B3
:102BE000010252F8255041F8505CE6E6002541F814
:102BF0004C5C92E0754555D906F580624FEAF205C6
:102C0000092D75D841F21022C0F6010252F8255064
:102C10004EF84C5C81E000BF5EF8586CD8F800506C
:102C200085424FF010073FF783ADD9E6A5EB0C02C4
:102C3000B2FA82F2520997073E40002E7FF449AF64
:102C40006BE000BF04254CF8905C66E0A5EB0C023D
:102C5000B2FA82F2520995074CF8905C5DE000BF31
:102C60004FF480454CF8905C57E000BF4FF480056E
:102C70004CF8905C51E000BF002541F8505C4CE0FE
:102C8000744539D905F580624FEAF205092D00F245
:102C9000438241F2E812C0F6010252F825504EF884
:102CA0004C5C8AE606F58C624FEAF205092D31D8B4
:102CB00041F21022C0F6010252F825502BE000BF6D
:102CC00040254CF8905C28E04FF40076C5E400BF46
:102CD0004FF40036C1E400BFA4EB0C06B6FA86F64A
:102CE00076097607B9E400BF002541F8505C64E638
:102CF00000254EF84C5C10E005F58C624FEAF205B9
:102D0000092D00F20F8241F2E812C0F6010252F8DA
:102D1000255008E200254EF8505C9C4220D95CF812
:102D2000944CD8F8002082424FF0080022DD45F292
:102D30001B45C5F60205AA423ADC40F29F45C4F2A3
:102D40000205AA4272DC8A4200F0848040F270459B
:102D5000C4F20205AA4200F0CA8040F28840BFE0F7
:102D60008C4243D951F8544CD8F8002082424FF09D
:102D70000800DCDC8725C4F20205AA4244DD40F2EB
:102D80000F45C4F20205AA4200F380808820C4F2F5
:102D90000200824200F0A980A020C4F20200824218
:102DA00000F08780B820C4F20200824252D07FE156
:102DB00045F25740C5F6020082424FDC45F21C4006
:102DC000C5F60200824200F0718145F23040C5F63E
:102DD0000200824200F0628145F24440C5F60200E2
:102DE000824240F065814FF4004080E00EF16002C5
:102DF000944261D9DEF8A843D8F8002082424FF00F
:102E0000080094DCB6E700BF3F25C4F20205AA42E1
:102E100060DD4025C4F20205AA424AD0724519D0AD
:102E20007025C4F20205AA4261D041E140F2A045FA
:102E3000C4F20205AA423CD040F2B845C4F20205F1
:102E4000AA4207D045F20845C5F60205AA424ED06F
:102E50002EE100BF4FF0007049E000BF45F258403E
:102E6000C5F60200824224D045F26C40C5F602004D
:102E7000824200F0178145F28040C5F6020082428E
:102E800040F016814FF0006031E000BF40F2104585
:102E9000C4F20205AA422AD040F22840C4F202003D
:102EA000824222D040F24040C4F20200824240F00E
:102EB000FF804FF400201AE0744540F2C9805EF8AC
:102EC000544CD8F8002082424FF008003FF72FAF53
:102ED00050E700BF1025C4F20205AA4207D02820FF
:102EE000C4F20200824240F0E3804FF400702040C0
:102EF000002808BFBDE8F0819A421FD945F243403F
:102F0000C5F60200824243DD45F26B40C5F6020081
:102F1000824255DC45F24440C5F60200824200F090
:102F20008B8045F25840C5F60200824202BF4FF442
:102F300000204CF8900CBDE8F08153E04FF6903043
:102F40008A42CBF6FD700FD910444FEAF0000928F1
:102F500052D841F23822C0F6010252F8200041F85E
:102F60004C0CBDE8F08100BF0EF160039A4249D9D4
:102F7000104460304FEAF000092873D841F238223B
:102F8000C0F6010252F8200041F8500CBDE8F08173
:102F900045F20840C5F60200824247D045F21C4087
:102FA000C5F60200824273D045F23040C5F60200F9
:102FB000824217D14FF400604CF8900CBDE8F081CC
:102FC00045F26C40C5F6020082423BD045F280409B
:102FD000C5F60200824202BF4FF000604CF8900C30
:102FE000BDE8F081A2EB0C00B0FA80F04009C00708
:102FF0004CF8900CBDE8F081002041F84C0CBDE885
:10300000F08100BF1044724532D900F580604FEA6C
:10301000F000092854D841F23821C0F6010151F8D6
:1030200020004EF84C0CBDE8F08100BF08204CF8A1
:10303000900CBDE8F08100BF4FF400404CF8900CBC
:10304000BDE8F0814FF400004CF8900CBDE8F08131
:103050005EF8584CD8F8002082424FF008003FF745
:1030600066AE87E6002041F8500CBDE8F08100BF55
:1030700000F58C604FEAF000092827D841F238218A
:10308000C0F6010151F820004EF8500CBDE8F08167
:1030900080204CF8900CBDE8F08100BF4FF4006038
:1030A00025E700BF4FF4000021E700BF80201EE7A6
:1030B000A2EB0C00B0FA80F04009C00717E700BF90
:1030C00000204EF84C0CBDE8F08100BF00204EF807
:1030D000500CBDE8F08100BF4FF40076FFF745BC0F
:1030E0004FF40077FFF751BC4FF40036FFF73DBCBB
:1030F0004FF40037FFF749BCA4EB0C06B6FA86F68E
:1031000076097607FFF731BCA4EB0C02B2FA82F223
:1031100052095707FFF739BC00254EF84C5CFFF702
:103120004CBC00BF00254EF8505CFFF746BC0000C9
:103130002DE9F04146F2180840F25841C2F2024827
:10314000C4F2020101F1600345F2944CD8F800404A
:1031500040F2580E40F25740C5F6020C9C42C4F2B1
:10316000020EC4F2020021D984425CF8945C4FF054
:10317000200665DD45F21B47C5F60207BC4200F399
:10318000818040F29F47C4F20207BC4200F3FC80FA
:103190008C4200F00F8140F27047C4F20207BC423B
:1031A00000F0BF8140F28846B4E100BF8C4221D9D3
:1031B000844251F8545C4FF0200640F3AD8045F254
:1031C0001B47C5F60207BC4200F3F88040F29F4758
:1031D000C4F20207BC4200F38F828C4200F0A2824C
:1031E00040F27047C4F20207BC4200F0228340F272
:1031F000884617E30EF16005AC4263D98442DEF8DD
:10320000A8634FF0200766DD45F21B42C5F60202B7
:10321000944200F3F38040F29F42C4F202029442CF
:1032200000F384828C4200F0978240F27042C4F234
:103230000202944200F00D8340F2884202E300BF94
:103240008727C4F20207BC4240F3888040F20F4750
:10325000C4F20207BC4200F309818826C4F20206C8
:10326000B44200F05C81A026C4F20206B44200F031
:103270001081B826C4F20206B44200F09B8000F030
:103280008FBC00BF45F25747C5F60207BC4200F3AA
:10329000D58045F21C47C5F60207BC4200F04181CB
:1032A00045F23046C5F60206B44200F0718445F29C
:1032B0004446C5F60206B44240F072844FF400560C
:1032C0002FE100BF744540F2E78084425EF8546C01
:1032D0004FF0200798DC8722C4F20202944240F3A8
:1032E000E38040F20F42C4F20202944200F37E8275
:1032F0008822C4F20202944200F0A982A022C4F201
:103300000202944200F08582B822C4F20202944282
:1033100000F0228200F05CBE8727C4F20207BC42A4
:1033200040F3DA8040F20F47C4F20207BC4200F3D8
:1033300047828826C4F20206B44200F07882A026B2
:10334000C4F20206B44200F04E82B826C4F202066D
:10335000B44200F0E78100F033BE00BF3F27C4F263
:103360000207BC4240F3D0804027C4F20207BC42AF
:1033700000F08F8074451DD07027C4F20207BC4254
:1033800000F0CF8000F00CBC40F2A046C4F2020670
:10339000B4427ED040F2B846C4F20206B44209D02C
:1033A00045F20846C5F60206B44240F0F98302260B
:1033B000B7E000BF4FF00066B3E000BF45F25747EB
:1033C000C5F60207BC4200F3CB8145F21C47C5F6A7
:1033D0000207BC4200F02D8245F23046C5F60206D7
:1033E000B44200F0DD8545F24446C5F60206B4421B
:1033F00040F0E6854FF400561BE200BF45F257420D
:10340000C5F60202944200F3C38145F21C42C5F6A0
:103410000202944200F01D8245F23042C5F60202DB
:10342000944200F0C18545F24442C5F6020294423E
:1034300040F0CE854FF400570BE200BF45F25846EE
:10344000C5F60206B44200F0A78345F26C46C5F605
:103450000206B4421DD045F28046C5F60206B442CB
:1034600040F09E834FF000765BE000BF40F21047D3
:10347000C4F20207BC4254D040F22846C4F202060D
:10348000B4424CD040F24046C4F20206B44240F08E
:1034900087834FF4001644E084425EF8586C4FF086
:1034A00020073FF7B1AE16E73F22C4F20202944272
:1034B00040F3C2814022C4F20202944200F0A9818A
:1034C000744500F049817022C4F20202944200F077
:1034D000C08100F07DBD00BF3F27C4F20207BC429F
:1034E00040F39A814027C4F20207BC4200F07B817E
:1034F000744500F017817027C4F20207BC4200F047
:10350000988100F05DBD00BF1027C4F20207BC42E5
:1035100007D02826C4F20206B44240F041834FF49B
:1035200000662E42254660D045F24342C5F60202AF
:10353000944215DD45F26B42C5F60202944225DC49
:1035400045F24442C5F60202944239D045F258424F
:10355000C5F6020294422BD14FF4003539E000BF8A
:1035600045F20842C5F6020294421FD045F21C42C1
:10357000C5F6020294422BD045F23042C5F6020253
:10358000944215D14FF4007523E000BF45F26C4220
:10359000C5F60202944217D045F28042C5F60202F7
:1035A000944205D14FF0007513E000BF022510E0F2
:1035B000A4EB0C02B2FA82F25209550709E000BFEF
:1035C0004FF4005505E000BF4FF4001501E000BFC7
:1035D000202540F224124CF8905CC2F2004215689B
:1035E00025F002051560D8F8005085425CF8946C0F
:1035F0004FF0100740F3588145F21B42C5F6020216
:10360000954213DC40F29F42C4F2020295422FDC45
:103610008D4200F0858140F27042C4F20202954270
:1036200000F0B78140F28842ACE100BF45F257425A
:10363000C5F60202954237DC45F21C42C5F602028D
:1036400095424BD045F23042C5F60202954200F059
:103650009E8145F24442C5F60202954240F04A82FC
:103660004FF480473E40002E40F09781B9E200BF02
:1036700040F2A042C4F20202954200F06A8140F298
:10368000B842C4F20202954200F04A8145F2084273
:10369000C5F60202954240F02D8204273E40002EDE
:1036A00040F07B819DE200BF45F25842C5F6020220
:1036B000954219D045F26C42C5F60202954205D0FA
:1036C00045F28042C5F6020206E100BF4FF48007D2
:1036D0003E40002E40F0618183E200BF40273E4023
:1036E000002E40F05A817CE24FF480273E40002EAD
:1036F00040F0538175E200BF40F2A046C4F20206DA
:10370000B44270D040F2B846C4F20206B44209D0C6
:1037100045F20846C5F60206B44240F0518402263E
:1037200087E000BF4FF0006683E000BF40F2A04298
:10373000C4F2020294426CD040F2B842C4F20202D7
:10374000944209D045F20842C5F60202944240F084
:103750003F8402277DE000BF4FF0006779E000BFA3
:1037600045F25846C5F60206B44200F0218445F2FF
:103770006C46C5F60206B44235D045F28046C5F621
:103780000206B44240F01C844FF0007651E000BFC6
:1037900045F25842C5F60202944200F00D8445F20B
:1037A0006C42C5F60202944233D045F28042C5F61F
:1037B0000202944240F00C844FF0007749E000BFD1
:1037C00040F21047C4F20207BC4232D040F2284611
:1037D000C4F20206B4422AD040F24046C4F20206C5
:1037E000B44240F0ED834FF4001622E040F2104264
:1037F000C4F2020294422CD040F22842C4F20202E7
:10380000944224D040F24042C4F20202944240F07A
:10381000DF834FF400171CE01027C4F20207BC42FC
:1038200007D02826C4F20206B44240F0C9834FF400
:1038300000662E4212D12CE01022C4F20202944201
:1038400007D02822C4F20202944240F0C1834FF410
:1038500000673E40EEB18C4240F214814FF6903248
:10386000CBF6FD7222444FEAF205092D06D841F24B
:10387000E812C0F6010252F8255000E0002541F898
:103880004C5C40F22412C2F20042156825F0020599
:1038900015608C4224D951F8546CD8F800508542F8
:1038A0004FF010073FF7A8AE8722C4F202029542FC
:1038B00024DD40F20F42C4F20202954236DC882237
:1038C000C4F20202954262D0A022C4F202029542E2
:1038D0003FD0B822C4F20202954221D00AE100BFD3
:1038E0000EF16002944239D9DEF8A863D8F800508E
:1038F00085424FF010073FF77FAED5E73F22C4F275
:103900000202954238DD4022C4F20202954220D0E4
:10391000754505D07022C4F20202954239D0E9E023
:103920004FF080673E40C6BB5BE100BF40F21042F3
:10393000C4F2020295422CD040F22842C4F20202A4
:10394000954224D040F24042C4F20202954240F037
:10395000D1804FF480173E40FEB942E1744540F2F9
:10396000BF805EF8546CD8F8005085424FF01007C5
:103970003FF742AE98E700BF1022C4F20202954220
:1039800007D02822C4F20202954240F0B3804FF4DF
:1039900080673E40002E00F024819D421ED945F2F2
:1039A0004342C5F60202954242DD45F26B42C5F63E
:1039B0000202954254DC45F24442C5F602029542A9
:1039C00000F0B28045F25842C5F60202954240F03E
:1039D000A1804FF480254CF8905C02E14FF69036C0
:1039E0008D42CBF6FD760DD9AA194FEAF205092DC5
:1039F00060D841F21022C0F6010252F8255041F879
:103A00004C5CEEE00EF160022E44954256D906F170
:103A100060024FEAF205092D00F2928041F2102275
:103A2000C0F6010252F8255041F8505CD9E000BFC1
:103A300045F20842C5F60202954267D045F21C42A3
:103A4000C5F60202954200F09F8045F23042C5F66D
:103A5000020295425ED14FF480654CF8905CC0E064
:103A600045F26C42C5F60202954263D045F28042AF
:103A7000C5F6020295424DD14FF080654CF8905C3E
:103A8000AFE000BF4FF69032AC42CBF6FD7202EBD6
:103A9000040559D905F160024FEAF205092D00F23B
:103AA000878041F2E812C0F6010252F8255041F831
:103AB000505CE6E6002541F84C5C92E0754555D92E
:103AC00006F580624FEAF205092D75D841F2102201
:103AD000C0F6010252F825504EF84C5C81E000BF60
:103AE0005EF8586CD8F8005085424FF010073FF749
:103AF00083ADD9E6A5EB0C02B2FA82F25209970720
:103B00003E40002E7FF449AF6BE000BF04254CF827
:103B1000905C66E0A5EB0C02B2FA82F252099507BE
:103B20004CF8905C5DE000BF4FF480454CF8905C31
:103B300057E000BF4FF480054CF8905C51E000BFA7
:103B4000002541F8505C4CE0744539D905F5806298
:103B50004FEAF205092D00F2438241F2E812C0F665
:103B6000010252F825504EF84C5C8AE606F58C624C
:103B70004FEAF205092D31D841F21022C0F60102B8
:103B800052F825502BE000BF40254CF8905C28E00F
:103B90004FF40076C5E400BF4FF40036C1E400BF27
:103BA000A4EB0C06B6FA86F676097607B9E400BFF0
:103BB000002541F8505C64E600254EF84C5C10E0AE
:103BC00005F58C624FEAF205092D00F20F8241F2F1
:103BD000E812C0F6010252F8255008E200254EF81E
:103BE000505C9C4220D95CF8944CD8F8002082426A
:103BF0004FF0080022DD45F21B45C5F60205AA423A
:103C00003ADC40F29F45C4F20205AA4272DC8A42C5
:103C100000F0848040F27045C4F20205AA4200F030
:103C2000CA8040F28840BFE08C4243D951F8544CDE
:103C3000D8F8002082424FF00800DCDC8725C4F26F
:103C40000205AA4244DD40F20F45C4F20205AA4231
:103C500000F380808820C4F20200824200F0A98034
:103C6000A020C4F20200824200F08780B820C4F293
:103C70000200824252D07FE145F25740C5F6020071
:103C800082424FDC45F21C40C5F60200824200F041
:103C9000718145F23040C5F60200824200F0628137
:103CA00045F24440C5F60200824240F065814FF47F
:103CB000004080E00EF16002944261D9DEF8A84332
:103CC000D8F8002082424FF0080094DCB6E700BF2D
:103CD0003F25C4F20205AA4260DD4025C4F2020578
:103CE000AA424AD0724519D07025C4F20205AA42F0
:103CF00061D041E140F2A045C4F20205AA423CD0A5
:103D000040F2B845C4F20205AA4207D045F2084580
:103D1000C5F60205AA424ED02EE100BF4FF000705A
:103D200049E000BF45F25840C5F60200824224D067
:103D300045F26C40C5F60200824200F0178145F260
:103D40008040C5F60200824240F016814FF00060CC
:103D500031E000BF40F21045C4F20205AA422AD069
:103D600040F22840C4F20200824222D040F2404099
:103D7000C4F20200824240F0FF804FF400201AE0BB
:103D8000744540F2C9805EF8544CD8F80020824255
:103D90004FF008003FF72FAF50E700BF1025C4F2E7
:103DA0000205AA4207D02820C4F20200824240F055
:103DB000E3804FF400702040002808BFBDE8F08188
:103DC0009A421FD945F24340C5F60200824243DDC4
:103DD00045F26B40C5F60200824255DC45F2444094
:103DE000C5F60200824200F08B8045F25840C5F6CD
:103DF0000200824202BF4FF400204CF8900CBDE854
:103E0000F08153E04FF690308A42CBF6FD700FD927
:103E100010444FEAF000092852D841F23822C0F687
:103E2000010252F8200041F84C0CBDE8F08100BFBF
:103E30000EF160039A4249D9104460304FEAF00015
:103E4000092873D841F23822C0F6010252F8200046
:103E500041F8500CBDE8F08145F20840C5F602007B
:103E6000824247D045F21C40C5F60200824273D020
:103E700045F23040C5F60200824217D14FF400608F
:103E80004CF8900CBDE8F08145F26C40C5F602009C
:103E900082423BD045F28040C5F60200824202BF1A
:103EA0004FF000604CF8900CBDE8F081A2EB0C00E4
:103EB000B0FA80F04009C0074CF8900CBDE8F081E2
:103EC000002041F84C0CBDE8F08100BF1044724561
:103ED00032D900F580604FEAF000092854D841F249
:103EE0003821C0F6010151F820004EF84C0CBDE815
:103EF000F08100BF08204CF8900CBDE8F08100BFB5
:103F00004FF400404CF8900CBDE8F0814FF40000F5
:103F10004CF8900CBDE8F0815EF8584CD8F80020C1
:103F200082424FF008003FF766AE87E6002041F876
:103F3000500CBDE8F08100BF00F58C604FEAF00046
:103F4000092827D841F23821C0F6010151F8200094
:103F50004EF8500CBDE8F08180204CF8900CBDE884
:103F6000F08100BF4FF4006025E700BF4FF4000070
:103F700021E700BF80201EE7A2EB0C00B0FA80F022
:103F80004009C00717E700BF00204EF84C0CBDE801
:103F9000F08100BF00204EF8500CBDE8F08100BF5A
:103FA0004FF40076FFF745BC4FF40077FFF751BCA4
:103FB0004FF40036FFF73DBC4FF40037FFF749BC24
:103FC000A4EB0C06B6FA86F676097607FFF731BC45
:103FD000A4EB0C02B2FA82F252095707FFF739BC80
:103FE00000254EF84C5CFFF74CBC00BF00254EF896
:103FF000505CFFF746BC000040F27C00C2F200407B
:1040000001F0CABC0000000040F20F42D0F800C02E
:10401000C4F20202944511DC6F22C4F202029445FC
:1040200022DC3F22C4F20202944539DC1022C4F2A1
:10403000020294455AD0282254E000BF40F26F4259
:10404000C4F2020294451BDC40F23F42C4F2020279
:1040500094452DDC40F21042C4F20202944545D052
:1040600040F228423EE000BF9F22C4F20202944583
:1040700028DC7022C4F20202944537D0882231E055
:1040800040F29F42C4F20202944523DC40F27042A7
:10409000C4F20202944529D040F2884222E000BFD7
:1040A0004022C4F20202944520D058221AE000BFF8
:1040B00040F24042C4F20202944517D040F2584206
:1040C00010E000BFA022C4F2020294450ED0B82234
:1040D00008E000BF40F2B842C4F20202944505D0A5
:1040E00040F2A042C4F20202944517D10CF0F8024B
:1040F0004AF6AB23103ACAF6AA23A2FB03310AA35D
:104100005F2AC1F302115B5C40F2FF312CEA01012E
:10411000C36588BF04318165084670472CF0FF01F4
:1041200081650846704700BF00061016000610168D
:1041300070B540F26F44D0F800C0C4F20204D0F869
:1041400058E0A4451ADC9F25C4F20205AC4533DCD7
:104150005725C4F20205AC455ADC1025C4F202050D
:10416000AC4500F098802825C4F20205AC4500F06B
:1041700092804025C4F202058AE000BF45F22F4537
:10418000C5F60205AC452DDC40F2B745C4F2020588
:10419000AC454BDC40F27045C4F20205AC457AD028
:1041A00040F28845C4F20205AC4574D040F2A04507
:1041B000C4F202056CE000BF40F22745C4F20205DC
:1041C000AC4543DCA025C4F20205AC4563D0B8255C
:1041D000C4F20205AC455ED040F21045C4F20205BF
:1041E00056E000BF45F26B45C5F60205AC453FDC25
:1041F00045F23045C5F60205AC454CD045F2444584
:10420000C5F60205AC4546D045F258453EE000BF34
:104210005825C4F20205AC453DD07025C4F2020514
:10422000AC4538D08825C4F2020531E040F2B845EB
:10423000C4F20205AC452ED045F20845C5F602058C
:10424000AC4528D045F21C4520E000BF40F228458F
:10425000C4F20205AC451ED040F24045C4F202054E
:10426000AC4518D040F25845C4F2020510E000BF3A
:1042700045F26C45C5F60205AC450CD045F29445B7
:10428000C5F60205AC4506D045F28045C5F60205E7
:10429000AC4540F0D080456EC66E002E866E6E60D6
:1042A0001CBFD0E91C566E60A44515DC9F24C4F2E7
:1042B0000204A4452CDC5724C4F20204A44551DCBA
:1042C0001024C4F20204A4457AD02824C4F20204C3
:1042D000A44575D040246FE045F22F44C5F6020492
:1042E000A44529DC40F2B744C4F20204A44545DCED
:1042F00040F27044C4F20204A44561D040F2884404
:10430000C4F20204A4455BD040F2A04454E000BFD4
:1043100040F22744C4F20204A4453FDCA024C4F2C6
:104320000204A4454CD0B824C4F20204A44547D0EA
:1043300040F2104440E000BF45F26B44C5F6020471
:10434000A44555DC45F23044C5F60204A44561D0CD
:1043500045F24444C5F60204A4455BD045F25844F6
:1043600054E000BF5824C4F20204A44528D07024AD
:10437000C4F20204A44523D088241DE040F2B844CE
:10438000C4F20204A4451BD045F20844C5F6020459
:10439000A4453FD045F21C4438E000BF40F2284419
:1043A000C4F20204A4450BD040F24044C4F202041B
:1043B000A44505D040F25844C4F20204A4453AD1C1
:1043C0008468C06D00F01F003F2505FA00F0CEF8AC
:1043D0000800DCF80000402C20F48020CCF800001D
:1043E000CCF8043023D1CCF80820CCF80C1070BDE8
:1043F00045F26C44C5F60204A4450BD045F2804456
:10440000C5F60204A44505D045F29444C5F602045D
:10441000A44510D1C46D012504F01F04806805FA7D
:1044200004F4CEF804404028CCF80430DBD0CCF8BB
:104430000810CCF80C2070BD704700000000000090
:104440004FEA901CBCF1040F98BFEF2900D97047C8
:10445000B0B501EB810E40F238744FEAD22CC2F2B3
:10446000004403FB0CFC02F01F0104EBCE1E01FB19
:1044700003F5C2F345122CF0FF0C3EF810104FEA82
:10448000CC045A4304EB152CC3F58073CC0A9DB2BF
:104490006343C1F3451401F01F01694323F0FF0397
:1044A0006C436FF01F05DB0005EAD20205EAD40475
:1044B000624403EB1121214411442EF81010BDE891
:1044C000B0407047000000004FF4807002F058BA0E
:1044D000EFF3108072B600BFFEE70000000000009E
:1044E000B3F5804F03461BD1B0B5002053F822C06E
:1044F000CCF6F0708D680CEA000C8C69D1E9000EE6
:1045000040EA0C00C96840EA0E1040EA052020434A
:1045100040EA0141BDE8B040002043F82210704756
:104520006FF07041002043F8221070470000000037
:10453000B0B50A6850F8223023F0010340F8223069
:10454000D1F808E0CB68D1E900C2BEF1080F08BF7E
:1045500042F04002D1E904451A438B692243CC69F9
:104560002A430D6A1A434B6A22438C6A2A43CD6A56
:104570001A430B6B22434C6B2A438D6B1A4350F842
:104580002C30224340F28044CFF6C0742A432340AB
:104590001A4342EA0E0240F82C200A6BB2F5801F43
:1045A00005D10A684AB1026842F4801202600A68C2
:1045B0001AB1496B0268114301600020B0BD0000D0
:1045C000F0B500EB820340F2000CCFF6F07C5A68A5
:1045D0008E6802F0404E0D69D1E9002742EA0E02D2
:1045E000CC6842EA07124F6942EA06228E690CEB58
:1045F0000555FE3742EA04422A43324342EA076243
:104600005A600268D20209D54268096943681A43B0
:104610000CEB015122F47002114341600020F0BD07
:10462000F0B587B044F2E04040F60044C5F6020021
:10463000C5F6020401AD00260168012741F0010121
:104640000160016801F0010101910199016841F0E7
:10465000080101600068294600F0080001900198F7
:104660004FF48070019003200490A4F540600296FE
:10467000039702F091F908202946CDE90107204669
:1046800002F08AF9FCF78CFA08210022204602F099
:104690005FFA14200AF078F808210122204602F07F
:1046A00057FA32200AF070F8FCF7A2FC7020FCF7F1
:1046B000C3FBFCF7F5FC0020FCF7BEFBFCF7F0FCAD
:1046C0000020FCF7B9FBFCF7EBFCFCF7BDFCFCF7AA
:1046D0008FFC7020FCF7B0FBFCF7E2FCA420FCF799
:1046E000ABFBFCF7DDFC0020FCF7A6FBFCF7D8FCDD
:1046F000FCF7AAFCFCF77CFC7020FCF79DFBFCF7A8
:10470000CFFC8020FCF798FBFCF7CAFC5020FCF79C
:1047100093FBFCF7C5FCFCF797FC0C208DF81A0006
:10472000FCF766FC7020FCF787FBFCF7B9FC8820DF
:10473000FCF782FBFCF7B4FC0C20FCF77DFBFCF7DC
:10474000AFFCFCF781FC0DF11A01A120022200F060
:1047500017F89DF81A009DF81B1080F0300081F0CA
:1047600003020339104311F1020F38BF0126B0FADA
:1047700080F0400926EA000007B0F0BD000000000C
:1047800070B514460D460646FCF732FC7020FCF767
:1047900053FBFCF785FCF0B2FCF74EFBFCF780FC0A
:1047A000FCF726FC7120FCF747FBFCF779FC5CB1B9
:1047B000013D6442B4F1FF3018BF0120FCF724FA38
:1047C000013405F8010FF5D3BDE87040FCF73CBC9F
:1047D0002DE9F04F83B040F221148346C2F2004429
:1047E0008DF80BB02178481C2070C1B20A290FD374
:1047F000CD225143C90A01EB8101A0EB4100000623
:1048000006D04FF000095FEACB6014D1D9E000BFB9
:104810000DF10B0102200122FFF7B2FF9DF80BB052
:104820004FF000090BF00F00411E04290CD95FEA7C
:10483000CB6000F0C6802078F12880F0D880484610
:1048400003B0BDE8F08F00BF40F22807FF21C2F29D
:10485000004746F2B83801FA00F04FF6C1710DF189
:10486000070AC2F20248002561EA0000388703E027
:104870000135052D00F09480388FE840C007F7D04F
:1048800041F27C200422C0F60100514630F81500A8
:10489000FFF776FF98F8080001283FD003281FD0C3
:1048A00004285DD19DF80700B8F802309DF8081083
:1048B00007EB450400F00F029DF8096041EA022170
:1048C0009DF80A2006F00F06C9431944A18342EA65
:1048D0000621218100F0F0008028C9D059E000BFF6
:1048E0009DF807009DF809209DF8081000F00F03BF
:1048F0009DF80A6002F00F0241EA032107EB45032D
:1049000046EA0222B8F800609983D1433144198104
:1049100000F0F0008028ABD03BE000BF9DF807001E
:10492000B8F800309DF8081000F00F029DF80960FB
:104930009DF80A4041EA022106F00F02C943B8F887
:104940000260194407EB450344EA02221981D1436E
:104950003144998300F0F000802889D019E000BF2D
:104960009DF8070007EB45069DF809209DF8081003
:1049700000F00F039DF80A4002F00F0241EA032104
:10498000318144EA0221B18300F0F00080283FF435
:104990006FAF07EB4500A0F81C90A0F8089067E700
:1049A0003889B98B40F221144FF00109C2F200445A
:1049B000084308BF8346002020705FEACB607FF485
:1049C0003AAF40F22800C2F20040018F0A0605D437
:1049D0004FF6FF7202818283602202E04FF0FF32C5
:1049E000803A114001872078F128FFF428AF0A208F
:1049F0002070484603B0BDE8F08F000000000000C2
:104A0000C20AC0F345134A4300F01F004B4348431A
:104A100002F4F852D1006FF01F0202EAD30201EB58
:104A20001020104480B2704790F85020012A01D124
:104A300002207047B0B582B042F2083200230193E1
:104A4000C4F202020093A2F542740368A34227D184
:104A50004FF6006C4FF60055CFF6FF7CCFF6FF7592
:104A600052F80C40535923435B0719D4D1F800E0A6
:104A70001368BEF1000F23F440441FD04B6823435A
:104A80001360535952F80C502B43DB0722D11368A3
:104A900040F61F75AB438968194341EA0E0118E0DF
:104AA000416D41F0200141650121002280F8502034
:104AB00002B0BDE8B0400846704700BF14605159CD
:104AC00052F80C301943C90704D1116840F61F731E
:104AD000994311600021E8E7F0B581B0002200920F
:104AE00090F85020012A03D10221084601B0F0BD00
:104AF0000768012380F85030BB685B0700F16C81C8
:104B00000C684FF6FF7CB4F1FF3FC0F20F0C4FEA88
:104B1000946E0FDD94FAA4F314EA0C0FB3FA83F346
:104B200008BFA30E012403F01F0304FA03F3FC697A
:104B30002343FB614B681F260EF01F02C3F30124C1
:104B400003F01F039E4007EB84049A40256B25EA7F
:104B5000060632432263BA68BB6802F0040203F01F
:104B60000803D21840F095800A6807258E68C2F3C2
:104B70004063C2F3045207EB830395405C6906FA75
:104B800002F224EA05052A435A6141F20002C5F601
:104B90000042126802F07042B2F1805F32D14A697D
:104BA000FB680E2606EA530302FA03F30C69042C91
:104BB00038D007F160020E6806F0F84652F824502B
:104BC000334305F000452B4342F824300B694E7EF9
:104BD00052F82350012E25F0004508BF05F100458D
:104BE00042F823500A7E0B693E69013A03F01F0325
:104BF000B2FA82F226F4F0465209D2029A403243C7
:104C00003A6146E0FA684B69FE68D2064FEA5604FC
:104C100002D404F00E0201E004F0080293400C6993
:104C2000042CC6D13A6E0B6802F0F8429B069A42F9
:104C300018D13A6E22F000423A667A6E02F0F842DB
:104C40009A4214D0BA6E02F0F8429A4218D1BA6E63
:104C500022F00042BA66FA6E02F0F8429A4214D08C
:104C600017E000BF7A6E02F0F8429A42EAD17A6EFB
:104C700022F000427A66BA6E02F0F8429A42E6D01A
:104C8000FA6E02F0F8429A4203D1FA6E22F0004224
:104C9000FA66BA68D20752D1CA680B6802F01805E2
:104CA00003EA0C042CFA05F540F2000CD7F8C060BA
:104CB000C4F2FF7CA6431D40624545EA0602C7F8E0
:104CC000C02039D194B193FAA3F2B2FA82F2013240
:104CD00002F01E03092B02F01F0310D8012203EB80
:104CE00043069A4042EA065315E000BF012202EB58
:104CF000936202F01E030A2B02F01F03EED301227F
:104D000003EB43069A400023CFF6206303EB0653E0
:104D10001A4342F00073C3F340620725C3F3045300
:104D20008E6807EB82029D40546906FA03F324EA79
:104D300005052B4353610B68B3F1FF3F02DD0021F2
:104D40004FE000BF42F2000146F2083CC4F202010B
:104D5000C5F6020C01F5807201F542769742624673
:104D600008BF32468F4242F2001508BF324647F470
:104D70008076C4F20205AE42D2F800E024D18A68FF
:104D8000D1F808111143C90726D100210EF0E074B3
:104D9000CCF684318B4208BF1EF4000128D00021DC
:104DA000CCF252718B4263D10021B1EB146F5FD111
:104DB000ACF542718F42C2D1DCF8001021F0E071F5
:104DC000214341F0807168E04FF60051CFF6FF714A
:104DD0005CF80110C907D8D0416D41F02001416550
:104DE0000121002280F85020084601B0F0BD00BF2C
:104DF000ACF542718F42A2D1DCF8001042F663524A
:104E000021F0E071C0F23E52214341F40001CCF8A0
:104E1000001040F21401C2F2004109688909A1FBA7
:104E200002129109022202EB41010091009900292E
:104E30003FF485AF009901390091009900293FF4B2
:104E40007EAF009901390091009900293FF477AFB6
:104E5000009901390091009900293FF470AF009941
:104E600001390091009900294FF00001E2D1B8E723
:104E7000ACF542718F424FF00001B2D10022CCF666
:104E8000B872934208BF1EF48002AAD1DCF8001069
:104E900021F0E071214341F48001CCF800104EE78D
:104EA0007047000000000000704700000000000094
:104EB000704700000000000070B582B00446002872
:104EC0004FF0000001902DD0606D30B9204600F009
:104ED0001FF90020A06584F85000206881688900CF
:104EE0004FF6C071C5F6FF7102D582680A40826034
:104EF0008268D20031D4826801F18051114042F6BB
:104F0000635241F08051816040F21401C0F23E5280
:104F1000C2F2004109688909A1FB0212012101EBDB
:104F2000921105E00126304602B070BD01990139A9
:104F30000191019989B1019901390191019961B1F9
:104F4000019901390191019900291FBF0199013986
:104F50000191019918BF0029E8D18168C90009D4DD
:104F6000616D012641F010016165A16D41F0010103
:104F7000A16500E000268168626D02F0100201F078
:104F800004018918616D40F0918021F48171023132
:104F900061658168C90728D142F2001240F480712E
:104FA000C4F20202914242F20001C4F2020140F056
:104FB000A5808A68D1F808311A43D20715D101F5C6
:104FC000807201F5427346F2080C9042C5F6020C5D
:104FD0001A4618BF0CF54072884208BF1A4660682E
:104FE000116821F47C110843106001F0B9FD41F211
:104FF000030100228842A068A0F1100188BF0122AD
:10500000B1FA81F1237F49091140226B617D154678
:1050100016BF4D034A031C20012B45EA034141EA18
:10502000020141EA000106D1206A0022CFF6FE7299
:1050300002EB40400143606A20B100F47870A26A3C
:105040001043014320684CF20303CFF6F073C268AB
:105050001A401143C1608168826801F0040102F0C6
:105060000802891836D1217D44F20305E26AC3683B
:1050700042EA813123EA05021143C16094F83810F5
:10508000012901691AD14FF61E020125CFF600420F
:10509000CFF6FF751140D4E90F231943636C05EB7C
:1050A00002421143A26C1943114309E041F0100080
:1050B00001266065304602B070BD00BF21F00101DD
:1050C00001610169626B21F0704111430161204669
:1050D000FBF7B6FB2068E1680129026B22F00F01A3
:1050E00002D1A269013A114301630121606D61F3AC
:1050F00001006065304602B070BD00BF46F2080294
:10510000C5F602021268D2073FF459AF6DE70000FE
:1051100070B58AB042F2001204460068C4F202027E
:1051200090424FF00001CDE90811CDE90611CDE91B
:1051300004110391CDE9011164D042F20001C4F2DF
:10514000020188425BD140F2780644F2D840C2F2B4
:105150000046C5F602003168002901F10101316005
:1051600008D1016841F020010160016801F02001CF
:10517000009100998168002541F0010181608068FB
:1051800005A900F001000090009840200590032040
:1051900006900020C5F60200079501F0FDFB3046A1
:1051A0002821C4F2020140F8041F0921C0E90115B9
:1051B000C5604FF4806101614FF4006141614FF4BB
:1051C0000051C0E90615C0E9085500F0A9FE08B174
:1051D000FFF77EF9062001A9CDE90105351D4FF441
:1051E0008070ADF80C0001200490284600F098FB78
:1051F00006F13C0608B1FFF76BF9E56434600AB0CC
:1052000070BD00BF40F2780144F2D840C2F20041C4
:10521000C5F602000A68002A02F101020A6008D1FC
:10522000016841F020010160016801F02001009156
:1052300000998168002641F004018160806805A919
:1052400000F00400009000981020059003200690C4
:105250000020C5F60200079600F5006001F09CFBF7
:1052600046F218052820C2F20245C4F202001830A6
:1052700028600A20C5E901064FF4806028614FF4D8
:10528000006068614FF40050EE60C5E906062846EC
:10529000C5E9086600F044FE002805F13806AAD1E9
:1052A000ABE70000000000002DE9F04142F20016DB
:1052B00046F20834C4F20206076806F50275C5F620
:1052C0000204A6F58073B74208BF2C469F4208BF70
:1052D0002C462368BF687F0703D490F85070012FD5
:1052E00002D10220BDE8F08103F01F070123092F3E
:1052F00080F850305AD8BB4040F221252B4255D07F
:105300000D4690460446FBF7EFFB28B1002084F8D9
:1053100050000120BDE8F0812168606D40F6017306
:105320002246984300F5807060650FB1B14203D00A
:10533000506D20F480105065506D40F66927C00410
:105340004FF0000044BF906D20F0060040F6E126CB
:10535000C0F600079065C0F60006D06C0023144626
:10536000C0E90F7640F6C927D66AC0F60007C764C1
:105370001C270F6082F850302A464B6843F0100318
:105380004B60CB6823F003033343CB60403143468B
:1053900001F0F6F821684FF6C073C7F6FF738A680C
:1053A0001A4004328A60BDE8F08100BF002180F815
:1053B00050100120BDE8F08170B5044690F850000F
:1053C000012801D1022070BD03212046012584F867
:1053D0005050FBF7CDFA28B1002084F85000284641
:1053E00070BD00BF2168E06CCA6822F00302CA6089
:1053F00090F83520022A3AD100F0FEFAB0B3054603
:105400002068616D41F040016165416821F0100143
:10541000416081688268D207DED011F00201DBD1E1
:10542000816801F00D0101291ED14FF6C07281681B
:10543000C7F6FF721140023181600321016001F063
:1054400097FB21688968C907C6D0064603E000BFFC
:105450008068C007C0D001F08BFB801B0328206848
:10546000F6D38168C907F3D0606D39E021684868D8
:1054700020F01000486088688A68D20717D010F0C2
:10548000020014D1886800F00D00012826D14FF6E3
:10549000C0728868C7F6FF7210400230886003202F
:1054A000086001F065FB21688968C90708D12046BA
:1054B00041F20112002550F8541F914316E000BF3D
:1054C000054602E08068C007F1D001F051FB401BA7
:1054D00003282068F6D38168C907F3D0606D0125E1
:1054E00040F010006065204650F8581F41F001015F
:1054F0000160002084F85000284670BD00000000C4
:10550000704700000000000070470000000000002D
:10551000704700000000000000B34379012B4FF0FA
:10552000020319D080B5037101F01001D0F800E03A
:105530004FF47C638B4042F08002DEF800C002FA38
:1055400001F12CEA030319430023CEF800100121D6
:1055500001714371BDE880401846704701207047D3
:105560002DE9F041044600284FF0010018BF002942
:1055700002D1BDE8F08100BF607901284FF0020040
:1055800008BFBDE8F0810123637120710868042819
:105590001ED10F46154601F0EBFA2368A846002DF0
:1055A0000546586B24D0B0F1FF3F06DD3946B86997
:1055B00058643AE0586B0028F8D501F0D9FA401B3E
:1055C00023680228F6D3586BB0F1FF3FF2DC21E0EC
:1055D00023680869012843D102F010021F27986B45
:1055E00097404E69B84306FA02F73843986339E0AA
:1055F00048F20006C2F2000601E000BF586B3042DC
:1056000010D001F0B5FA401B23680228F6D3586B7E
:105610003042F3D0206940F008002061032020715F
:10562000BDE8F0813946B869186408F0100040F20E
:10563000FF379E6C8740D1E9075C26EA070705FA29
:1056400000F637439F64FF27DE6C8740424626EA18
:1056500007070CFA00F03843D86408690128BBD06A
:1056600002F010020727D86BCE689740012E20EA7F
:10567000070C4FF0000003D0022E03D1012605E0F5
:10568000002603E08E68B6FA86F676090D688F6804
:105690002E4337434968974047EA0C07DF634FF4CE
:1056A00080471E68974026EA07071F6040F6FE778E
:1056B0001E68974026EA0707914039431960C021C8
:1056C00091401A6822EA010119600121217160717B
:1056D000BDE8F081000000007047000000000000FD
:1056E000704700000000000070470000000000004C
:1056F00090B1017941B910B500214171044600F023
:105700000FF82046BDE8104002210171002101611F
:105710000122027108467047012070470000000016
:1057200070B586B047F2004104460068C4F200013B
:1057300000268842CDE9046603960296019601D0C0
:1057400006B070BD44F2E040C5F60200816841F049
:1057500000518160816801F0005100910099016859
:1057600041F001010160006801A900F00100009012
:105770000098302001900320CDE902060020C5F6F4
:10578000020001F009F946F290051020C2F202452C
:10579000C4F202002860432068604020C5E9020688
:1057A0004FF4806028614FF4006068614FF400504E
:1057B000A8614FF480706E62C5E90706284600F0C4
:1057C000AFFB08B1FEF784FEA560AC6306B070BD08
:1057D000B0B38446407901284FF0020008BF7047FB
:1057E000F0B581B0069C0F464FF001068CF80560BD
:1057F0008CF8040031B3DCF80C0041F2611141F285
:10580000A916C0F60001C0F60006042CC0E90F1668
:1058100041F28916DCF80010C0F60006C6644FF0AD
:105820001C06654608BF1826002C0C6808BF142605
:1058300044F080540C6001EB060C4FF0005424E05F
:1058400001207047DCF8080041F2511141F2A11526
:1058500041F27116C0F60001C0F60005C0E90F154F
:10586000C0F60006DCF80010C6641026042C65465D
:1058700008BF0C26002C0C6808BF082644F480548E
:105880000C6001EB060C4FF400540E6826430E60CA
:105890001146624600F074FE4FF00001697118B1C4
:1058A00005F11001042204E007F0100101228A40F2
:1058B00029680B681A430A6001B0BDE8F0407047E0
:1058C00070B54FF0010E38B3036801F0100C4FF4BF
:1058D0008052002902FA0CF21C6824EA02021A60C3
:1058E0004FF00C04196808BF08240EFA0CF26FF090
:1058F000005521EA0201196008BF6FF400550159F3
:1059000006460846012400F077F830684FF0000E94
:105910000168294001603471704670BD00000000CC
:1059200070B50A7A012A0DD1D1E9003C4FEA036E25
:1059300090F83530012B0DD04FF400614165012006
:1059400070BD00BF4FF0000E4FF0000C90F83530E6
:10595000012BF1D190F83430012B01D1022070BD20
:10596000036E00264EEA0242CFF6F8761C6842EA41
:105970000C0224F481341C601C68CD68E4B2497ABE
:1059800006EBC5462243324342EA41211960002119
:1059900080F83410002070BD10B5D0E919231168CB
:1059A0000B4211D0046ED0F84CC0BCF1000F21683E
:1059B00021F4807121605360416D41F400714165B3
:1059C00002D00446E0472046C16E99B1D0E91C23BD
:1059D0001468234208BF10BD0C6824F480740C6066
:1059E0005360416D41F480614165C16C11B1BDE806
:1059F0001040084710BD00002DE9F041044601F0B9
:105A0000B7F81CB3054694F83500022822D140F2BD
:105A10000F472668C4F2020740F26F48BE426FF09B
:105A20000E00C4F202081DDC6F21C4F202018E4296
:105A30002ADC3F21C4F202018E4241DC1021C4F273
:105A400002018E4263D028215CE000BF0120BDE846
:105A5000F08100BF802060650120002184F83410AF
:105A6000BDE8F08146451BDC40F23F41C4F2020133
:105A70008E422DDC40F21041C4F202018E4246D02B
:105A800040F228413EE000BF9F21C4F202018E4255
:105A900028DC7021C4F202018E4238D0882131E026
:105AA00040F29F41C4F202018E4223DC40F2704179
:105AB000C4F202018E422AD040F2884122E000BFA7
:105AC0004021C4F202018E4221D058211AE000BFC9
:105AD00040F24041C4F202018E4218D040F25841D7
